:020000040800F2
:1000000000000524FD0A00080D0A00080F0A000878
:10001000110A0008130A0008150A00080000000071
:10002000000000000000000000000000170A0008A7
:10003000190A0008000000001B0A00081D0A000839
:10004000510B0008510B0008510B0008510B000820
:10005000510B0008510B0008510B0008510B000810
:10006000510B0008510B0008510B0008510B000800
:10007000510B0008510B0008510B0008510B0008F0
:10008000510B0008510B0008510B0008510B0008E0
:10009000510B0008510B0008510B0008510B0008D0
:1000A000510B0008510B0008510B0008510B0008C0
:1000B000510B0008510B0008510B0008510B0008B0
:1000C000510B0008510B0008510B0008510B0008A0
:1000D000510B0008510B0008510B0008510B000890
:1000E000510B0008510B000800000000510B0008E4
:1000F000510B0008510B0008510B0008510B000870
:10010000510B0008510B0008510B0008510B00085F
:10011000510B0008510B0008510B0008510B00084F
:10012000510B0008510B0008510B0008510B00083F
:10013000510B0008510B0008510B0008510B00082F
:1001400000000000000000000000000000000000AF
:10015000510B0008510B0008510B0008510B00080F
:10016000510B0008510B0008510B0008510B0008FF
:10017000510B0008510B0008510B00080000000053
:10018000510B0008510B0008510B0008510B0008DF
:10019000510B0008510B0008510B0008510B0008CF
:1001A000510B0008510B0008510B00080000000023
:1001B000510B0008510B0008510B0008510B0008AF
:1001C000510B0008510B0008000000000000000067
:1001D0000000000000000000510B000800000000BB
:1001E000000000000000000000000000000000000F
:1001F0000000000000000000510B0008510B000837
:10020000510B0008510B000800000000510B0008C2
:10021000510B0008510B0008510B0008510B00084E
:10022000510B000800000000510B00080000000006
:10023000510B0008510B000800000000510B000892
:10024000510B0008510B0008510B0008510B00081E
:10025000510B0008510B0008510B0008510B00080E
:10026000510B0008510B0008510B0008510B0008FE
:10027000510B0008510B0008510B00080000000052
:10028000510B0008510B0008510B0008510B0008DE
:1002900000000000510B0008510B00080000000096
:1002A00000000000510B0008510B0008510B000822
:1002B000510B0008510B0008510B0008510B0008AE
:0C02C000510B0008510B0008510B000806
:1002CC0080F0004002E000BF81F0004142001FBFFF
:1002DC005FEA410392EA030F7FEA226C7FEA236C08
:1002EC006AD04FEA1262D2EB1363C1BFD2184140FD
:1002FC0048404140B8BF5B42192B88BF704710F093
:10030C00004F40F4000020F07F4018BF404211F035
:10031C00004F41F4000121F07F4118BF494292EA9D
:10032C00030F3FD0A2F1010241FA03FC10EB0C00C9
:10033C00C3F1200301FA03F100F0004302D5494256
:10034C0060EB4000B0F5000F13D3B0F1807F06D303
:10035C0040084FEA310102F10102FE2A51D2B1F1FB
:10036C00004F40EBC25008BF20F0010040EA0300F0
:10037C007047490040EB0000013A28BFB0F5000F70
:10038C00EDD2B0FA80FCACF1080CB2EB0C0200FA26
:10039C000CF0AABF00EBC25052421843BCBFD04075
:1003AC001843704792F0000F81F4000106BF80F4EF
:1003BC0000000132013BB5E74FEA41037FEA226CB2
:1003CC0018BF7FEA236C21D092EA030F04D092F07D
:1003DC00000F08BF0846704790EA010F1CBF0020B1
:1003EC00704712F07F4F04D1400028BF40F000400E
:1003FC00704712F100723CBF00F50000704700F02E
:10040C00004343F0FE4040F4000070477FEA226254
:10041C0016BF08467FEA23630146420206BF5FEA25
:10042C00412390EA010F40F4800070474FF0000325
:10043C0004E000BF10F0004348BF40425FEA000CEC
:10044C0008BF704743F0964301464FF000001CE094
:10045C0050EA010208BF70474FF000030AE000BFEA
:10046C0050EA010208BF704711F0004302D5404228
:10047C0061EB41015FEA010C02BF8446014600209A
:10048C0043F0B64308BFA3F18053A3F50003BCFAB5
:10049C008CF2083AA3EBC25310DB01FA02FC634462
:1004AC0000FA02FCC2F12002BCF1004F20FA02F269
:1004BC0043EB020008BF20F00100704702F120025C
:1004CC0001FA02FCC2F1200250EA4C0021FA02F2BD
:1004DC0043EB020008BF20EADC7070474FF0FF0CC2
:1004EC001CEAD0521EBF1CEAD15392EA0C0F93EABD
:1004FC000C0F6FD01A4480EA010C400218BF5FEA5F
:10050C0041211ED04FF0006343EA501043EA5111D1
:10051C00A0FB01310CF00040B1F5000F3EBF4900CB
:10052C0041EAD3715B0040EA010062F17F02FD2ACF
:10053C001DD8B3F1004F40EBC25008BF20F00100B2
:10054C00704790F0000F0CF0004C08BF49024CEAC9
:10055C00502040EA51207F3AC2BFD2F1FF0340EA5B
:10056C00C250704740F400004FF00003013A5DDCCC
:10057C0012F1190FDCBF00F000407047C2F100020D
:10058C00410021FA02F1C2F1200200FA02FC5FEAFA
:10059C00310040F1000053EA4C0308BF20EADC7044
:1005AC00704792F0000F00F0004C02BF400010F4B6
:1005BC00000F013AF9D040EA0C0093F0000F01F063
:1005CC00004C02BF490011F4000F013BF9D041EA85
:1005DC000C018FE70CEAD15392EA0C0F18BF93EA87
:1005EC000C0F0AD030F0004C18BF31F0004CD8D1B1
:1005FC0080EA010000F00040704790F0000F17BF38
:10060C0090F0004F084691F0000F91F0004F14D07D
:10061C0092EA0C0F01D142020FD193EA0C0F03D1D5
:10062C004B0218BF084608D180EA010000F00040D8
:10063C0040F0FE4040F40000704740F0FE4040F4B3
:10064C00400070474FF0FF0C1CEAD0521EBF1CEA52
:10065C00D15392EA0C0F93EA0C0F69D0A2EB030270
:10066C0080EA010C49024FEA402037D04FF080530A
:10067C0043EA111143EA10130CF000408B4238BFCF
:10068C005B0042F17D024FF4000C8B4224BF5B1ADD
:10069C0040EA0C00B3EB510F24BFA3EB510340EA2B
:1006AC005C00B3EB910F24BFA3EB910340EA9C00D9
:1006BC00B3EBD10F24BFA3EBD10340EADC001B0149
:1006CC0018BF5FEA1C1CE0D1FD2A3FF650AF8B42ED
:1006DC0040EBC25008BF20F0010070470CF0004CFA
:1006EC004CEA50207F32C2BFD2F1FF0340EAC25025
:1006FC00704740F400004FF00003013A37E792F0E6
:10070C00000F00F0004C02BF400010F4000F013A43
:10071C00F9D040EA0C0093F0000F01F0004C02BF3E
:10072C00490011F4000F013BF9D041EA0C0195E7A7
:10073C000CEAD15392EA0C0F08D142027FF47DAF40
:10074C0093EA0C0F7FF470AF084676E793EA0C0F30
:10075C0004D14B023FF44CAF08466EE730F0004C2E
:10076C0018BF31F0004CCAD130F000427FF45CAFBE
:10077C0031F000437FF43CAF5FE700BF42000ED284
:10078C00B2F1FE4F0BD34FF09E03B3EB126209D4C0
:10079C004FEA002343F0004323FA02F070474FF076
:1007AC000000704712F1610F01D1420202D14FF0EB
:1007BC00FF3070474FF00000704700BF0348044BF8
:1007CC00834202D0034B03B1184770471400002436
:1007DC0014000024000000000548064B1B1AD90F1A
:1007EC0001EBA301491002D0034B03B1184770472A
:1007FC0014000024140000240000000010B5064C66
:10080C00237843B9FFF7DAFF044B13B10448AFF375
:10081C0000800123237010BD140000240000000090
:10082C00781C000808B5054B1BB105490548AFF30A
:10083C000080BDE80840FFF7CFBF00BF00000000FC
:10084C0018000024781C000830B589B000240394EB
:10085C000494059406940794204BD3F8E02042F0BE
:10086C008002C3F8E020D3F8E02002F0800200926E
:10087C00009AD3F8E02042F00102C3F8E020D3F84C
:10088C00E02002F001020192019AD3F8E02042F03C
:10089C000202C3F8E020D3F8E03003F00203029325
:1008AC00029B0F4D22460721284600F07FFB0723B1
:1008BC000393012304930594069403A9284600F09E
:1008CC0067FA21464FF0807000F0A6F921464FF0F0
:1008DC00007000F0A1F909B030BD00BF004402580F
:1008EC000000025810B584B00024009401940294C6
:1008FC00039400F003FA01238DF800308DF80140C9
:10090C0001941F228DF8082087228DF809208DF87C
:10091C000A408DF80B408DF80C308DF80D308DF8A9
:10092C000E408DF80F40684600F006FA042000F0E7
:10093C00F3F904B010BD72B6FEE7000000B59DB02F
:10094C004C22002109A801F0AFF82022002101A8B7
:10095C0001F0AAF8022000F02FFB00230093194AA3
:10096C00936923F4404343F480439361936903F404
:10097C0040430093009B134B9B6913F4005FFAD028
:10098C000223099301230C9340230D93002312930C
:10099C0009A800F03BFB88B93F2301930023029385
:1009AC00039304930593069307930893012101A8DD
:1009BC0000F030FF20B91DB05DF804FBFFF7BBFF62
:1009CC00FFF7B9FF0048025808B5FFF78BFF00F09E
:1009DC00E3F8FFF7B3FFFFF737FFFEE782B0074BF3
:1009EC00D3F8F42042F00202C3F8F420D3F8F43028
:1009FC0003F002030193019B02B0704700440258BC
:100A0C00FEE7FEE7FEE7FEE7FEE77047704770473C
:100A1C0008B500F0EFF808BD274B1B6803F00F0377
:100A2C00062B06D8244A136823F00F0343F0070360
:100A3C001360224B1A6842F001021A6000221A61FC
:100A4C0019681F4A0A401A601B4B1B6813F0080FE9
:100A5C0006D0194A136823F00F0343F00703136001
:100A6C00164B00229A61DA611A621649996216498C
:100A7C00D962164919635A639963DA6319645A6423
:100A8C00196821F4802119601A66D3F8D43013F454
:100A9C00805F10D1094BD3F8D42042F48052C3F8B4
:100AAC00D4200B4A43F2D2011160D3F8D42022F4A3
:100ABC008052C3F8D42070470020005200440258E2
:100ACC007FEDF6EA000202020000FF018002010144
:100ADC0000400052054AD36843F00203D360034B35
:100AEC005B6813F4005FFAD0704700BF00480258EF
:100AFC00DFF838D0FFF7EEFFFFF78EFF0C480D49FB
:100B0C000D4A002302E0D458C4500433C4188C425C
:100B1C00F9D30A4A0A4C002301E013600432A242C2
:100B2C00FBD301F013F8FFF74FFF704700000524CB
:100B3C000000002414000024AC1C00081400002445
:100B4C00CC010024FEE70000104B1B780BB90120F0
:100B5C00704710B504464FF47A70B0FBF3F30C4AAF
:100B6C001068B0FBF3F000F0B5F868B90F2C01D9A0
:100B7C0001200AE0002221464FF0FF3000F09AF8E5
:100B8C00044B1C60002000E0012010BD0800002474
:100B9C00040000240C00002410B5032000F078F8A9
:100BAC0000F026FD0F498B69C3F303230E4AD35C77
:100BBC0003F01F03D8408B6903F00F03D35C03F0E1
:100BCC001F0320FA03F3094A1360094B18600F2026
:100BDC00FFF7BAFF10B10124204610BD0446FFF701
:100BEC00FDFEF9E700440258901C000800000024A8
:100BFC0004000024034B1B78034A11680B44136058
:100C0C00704700BF0800002430000024014B186816
:100C1C00704700BF30000024034A536823EA0003E6
:100C2C000B435360704700BF00040058002804DBDE
:100C3C000901C9B2044B1954704700F00F000901A7
:100C4C00C9B2024B1954704700E400E014ED00E007
:100C5C0000B500F00700C0F1070CBCF1040F28BF71
:100C6C004FF0040C031D062B0FD9C31E4FF0FF3E93
:100C7C000EFA0CF021EA000199400EFA03FE22EA6A
:100C8C000E0241EA02005DF804FB0023EEE70000CF
:100C9C000649CB6823F4E0631B041B0C000200F430
:100CAC00E0600343024A1A43CA60704700ED00E05B
:100CBC000000FA0510B50446054BD868C0F30220B5
:100CCC00FFF7C6FF01462046FFF7B0FF10BD00BF7F
:100CDC0000ED00E00138B0F1807F0BD24FF0E02343
:100CEC005861054AF02182F82310002098610722F0
:100CFC001A6170470120704700ED00E0BFF35F8F71
:100D0C00044B5A6A22F480325A620022C3F89420AF
:100D1C00704700BF00ED00E040F00100054BC3F848
:100D2C0094005A6A42F480325A62BFF34F8FBFF379
:100D3C006F8F704700ED00E04378144AC2F898308A
:100D4C00D2F8A03023F00103C2F8A0304368C2F8F7
:100D5C009C30017BC37A1B0643EA0173817A43EA18
:100D6C00C143417B43EA8143817B43EA4143C17BDD
:100D7C0043EA0143417A43EA0123017A43EA4103FE
:100D8C0001780B43C2F8A030704700BF00ED00E0C3
:100D9C0070B582B000236EE085685E000324B44019
:100DAC0025EA0405CC68B4402C438460456825EAE8
:100DBC000C054C68C4F300149C402C4344606DE05B
:100DCC00DD08083550F8254003F0070C4FEA8C0C71
:100DDC004FF00F0E0EFA0CFE24EA0E0E0C6904FAFC
:100DEC000CF444EA0E0440F825406FE0092400E0BE
:100DFC00002404FA0EF42C430CF1020C684D45F857
:100E0C002C404FF0B0442568D44325EA0206D1F8B3
:100E1C0004C01CF4801F01D042EA05064FF0B04517
:100E2C002E606D6804EA0506D1F804C01CF4001F9E
:100E3C0001D042EA05064FF0B0456E60D5F88450FB
:100E4C0004EA0506D1F804C01CF4003F01D042EAC4
:100E5C0005064FF0B045C5F88460D5F880502C409D
:100E6C004E6816F4803F01D042EA05044FF0B042C0
:100E7C00C2F8804001330A6832FA03F400F08D8026
:100E8C004FF0010C0CFA03FC1CEA0202F2D04C6885
:100E9C0004F00304013C012C7FF67EAF4C6804F097
:100EAC000304032C0CD0C4685D004FF0030C0CFA47
:100EBC0005FC24EA0C0C8C68AC4044EA0C04C460BD
:100ECC004C6804F00304022C3FF47AAF04684FEA38
:100EDC00430E4FF0030C0CFA0EFC24EA0C0C4C687D
:100EEC0004F0030404FA0EF444EA0C0404604C68A5
:100EFC0014F4403FBED02B4CD4F8F45045F002050E
:100F0C00C4F8F450D4F8F44004F002040194019CA9
:100F1C004FEA930C0CF10205214C54F8255003F0C8
:100F2C00030E4FEA8E0E0F2404FA0EF425EA040584
:100F3C001D4CA0423FF45CAF04F58064A0421ED06F
:100F4C0004F58064A0421CD004F58064A0421AD041
:100F5C0004F58064A04218D004F58064A04216D039
:100F6C0004F58064A04214D004F58064A04212D031
:100F7C0004F50064A0423FF439AF0A2439E7012498
:100F8C0037E7022435E7032433E7042431E705244B
:100F9C002FE706242DE707242BE702B070BD00BF16
:100FAC000004005800440258000002580AB1816144
:100FBC007047090481617047134BDB6813F0040F11
:100FCC0007D1114BDB6803F0070383421AD00120D1
:100FDC00704710B50C4AD36823F007030343D36062
:100FEC00FFF714FE0446084B5B6813F4005F07D14F
:100FFC00FFF70CFE001BB0F57A7FF4D9012000E05E
:10100C00002010BD0020704700480258002800F056
:10101C00D58238B50446036813F0010F25D0A04AD9
:10102C00136903F03803926A102B15D0182B0FD0CC
:10103C006368B3F5803F3FD0002B53D1984B1A68AF
:10104C0022F480321A601A6822F480221A6038E086
:10105C0002F00302022AEBD1914B1B6813F4003F00
:10106C0003D06368002B00F0AB82236813F0020FEF
:10107C0000F088808A4A1369926A13F038035AD0B8
:10108C00182B55D0E368002B00F0A98084490A681E
:10109C0022F0190213430B60FFF7B8FD0546804B95
:1010AC001B6813F0040F40F09180FFF7AFFD401B5D
:1010BC000228F4D903208AE2794A136843F4803376
:1010CC00136063682BB3FFF7A1FD0546744B1B68D7
:1010DC0013F4003FC9D1FFF799FD401B6428F5D9E3
:1010EC00032074E2B3F5A02F09D06D4B1A6822F4DB
:1010FC0080321A601A6822F480221A60E1E7684B89
:10110C001A6842F480221A601A6842F480321A601B
:10111C00D7E7FFF77BFD0546614B1B6813F4003FD7
:10112C00A3D0FFF773FD401B6428F5D903204EE2D2
:10113C0012F0030FA6D15A4B1B6813F0040F03D007
:10114C00E368002B00F03E82554A136823F0190324
:10115C00E1680B431360FFF759FD0546504B1B68C4
:10116C0013F0040F06D1FFF751FD401B0228F5D9EF
:10117C0003202CE24A4A536823F0FE43216943EAD8
:10118C0001635360236813F0100F51D0444A136964
:10119C0003F03803926A082B39D0182B33D0E3694B
:1011AC00002B69D03E4A136843F080031360FFF7AD
:1011BC002DFD05463A4B1B6813F4807F53D1FFF786
:1011CC0025FD401B0228F5D9032000E2344A536860
:1011DC0023F0FE43216943EA01635360D2E7304AAE
:1011EC00136823F001031360FFF710FD05462C4B29
:1011FC001B6813F0040FC5D0FFF708FD401B022835
:10120C00F5D90320E3E102F00302012AC7D1244BF4
:10121C001B6813F4807F03D0E369802B40F0D481EA
:10122C001F4AD36823F07C53216A43EA0163D360DD
:10123C00236813F0080F49D06369002B32D0184A89
:10124C00536F43F001035367FFF7E0FC0546144B63
:10125C005B6F13F0020F39D1FFF7D8FC401B02284B
:10126C00F5D90320B3E10E4AD36823F07C53216AED
:10127C0043EA0163D360DBE7094A136823F0800378
:10128C001360FFF7C3FC0546054B1B6813F4807F06
:10129C00CED0FFF7BBFC401B0228F5D9032096E10A
:1012AC00004402589D4A536F23F001035367FFF724
:1012BC00ADFC0546994B5B6F13F0020F06D0FFF7A0
:1012CC00A5FC401B0228F5D9032080E1236813F00C
:1012DC00200F29D0A3699BB1904A136843F4805323
:1012EC001360FFF793FC05468C4B1B6813F4005FEF
:1012FC001AD1FFF78BFC401B0228F5D9032066E1BD
:10130C00864A136823F480531360FFF77FFC05466D
:10131C00824B1B6813F4005F06D0FFF777FC401B71
:10132C000228F5D9032052E1236813F0040F21D1D0
:10133C00636A002B00F04A81784A126902F0380285
:10134C00182A00F0F180022B75D0744A136823F030
:10135C0080731360FFF75AFC0446704B1B6813F044
:10136C00007F00F0D880FFF751FC001B0228F4D955
:10137C0003202CE16A4A136843F480731360FFF76F
:10138C0045FC0546664B1B6813F4807F06D1FFF7BE
:10139C003DFC401B6428F5D9032018E1A368012B00
:1013AC000AD00BBB5D4B1A6F22F001021A671A6F41
:1013BC0022F004021A6704E0584A136F43F0010349
:1013CC001367A36833B3FFF721FC0546534B1B6F20
:1013DC0013F0020FACD1FFF719FC401B41F288331C
:1013EC009842F3D90320F2E0052B09D04B4B1A6F2E
:1013FC0022F001021A671A6F22F004021A67E0E762
:10140C00464B1A6F42F004021A671A6F42F001023F
:10141C001A67D6E7FFF7FAFB0546404B1B6F13F034
:10142C00020F85D0FFF7F2FB401B41F28833984244
:10143C00F3D90320CBE0394A136823F0807313608F
:10144C00FFF7E4FB0546354B1B6813F0007F06D015
:10145C00FFF7DCFB401B0228F5D90320B7E02F4B2C
:10146C00996A304A0A40A16AE06A41EA00110A43CB
:10147C009A62226B013AC2F30802616B013949028C
:10148C0089B20A43A16B0139090401F4FE010A4334
:10149C00E16B0139090601F0FE410A431A63DA6A6D
:1014AC0022F00102DA625A6B6FF3CF02A16C42EAAE
:1014BC00C1025A63DA6A22F00C02216C0A43DA6226
:1014CC00DA6A22F00202616C0A43DA62DA6A42F4E6
:1014DC008032DA62DA6A42F40032DA62DA6A42F4B0
:1014EC008022DA62DA6A42F00102DA621A6842F0A9
:1014FC0080721A60FFF78AFB0446084B1B6813F0D6
:10150C00007F06D1FFF782FB001B0228F5D90320D0
:10151C005DE000205BE0002059E000BF0044025871
:10152C00004802580CFCFFFF30498A6A086B012BFB
:10153C004ED002F00303A16A8B424BD1C2F30512C9
:10154C00E36A9A4248D1C0F30802236B013B9A42EA
:10155C0044D1C0F34622636B013B9A4240D1C0F3A5
:10156C000642A36B013B9A423CD1C0F30660E36B8D
:10157C00013B984238D11D4B5B6BC3F3CC03A26C7F
:10158C009A4201D1002022E0184AD36A23F00103C9
:10159C00D362FFF73BFB0546FFF738FBA842FBD0B5
:1015AC00124A536B6FF3CF03A16C43EAC10353632D
:1015BC00D36A43F00103D362002008E00120704796
:1015CC00012004E0012002E0012000E0002038BDF1
:1015DC000120FCE70120FAE70120F8E70120F6E7FB
:1015EC000120F4E70120F2E70120F0E70044025863
:1015FC00F8B5814B1B6903F03803102B00F0F48015
:10160C00182B0FD0002B40F0F2807B4B1B6813F093
:10161C00200F00F0EE80784B1B68C3F3C103774CAE
:10162C00DC40E2E0744B9D6A05F003059C6AC4F350
:10163C000514D86A00F001005B6BC3F3CC0303FB09
:10164C0000F0FEF7F3FE0646002C00F0CE80012DD4
:10165C0056D0022D00F08480002D40F0A380664B04
:10166C001B6813F0200F29D0634F3B68C3F3C103F1
:10167C006248D840FEF7DAFE05462046FEF7D6FE55
:10168C0001462846FEF7DEFF0446386BC0F308001F
:10169C00FEF7CCFE05464FF064513046FEF71EFFB8
:1016AC0001462846FEF712FE4FF07E51FEF70EFE65
:1016BC0001462046FEF712FF044642E02046FEF7A4
:1016CC00B5FE01464E48FEF7BDFF04464A4B186B6B
:1016DC00C0F30800FEF7AAFE05464FF064513046F1
:1016EC00FEF7FCFE01462846FEF7F0FD4FF07E515A
:1016FC00FEF7ECFD01462046FEF7F0FE044620E026
:10170C002046FEF793FE01463E48FEF79BFF04463B
:10171C00394B186BC0F30800FEF788FE05464FF0F6
:10172C0064513046FEF7DAFE01462846FEF7CEFD40
:10173C004FF07E51FEF7CAFD01462046FEF7CEFE65
:10174C0004462D4B1B6BC3F34623581CFEF76EFE51
:10175C0001462046FEF776FFFFF710F8044644E0FA
:10176C002046FEF763FE01462748FEF76BFF044652
:10177C00214B186BC0F30800FEF758FE05464FF0DE
:10178C0064513046FEF7AAFE01462846FEF79EFD40
:10179C004FF07E51FEF79AFD01462046FEF79EFE65
:1017AC000446CEE72046FEF741FE01461548FEF7FB
:1017BC0049FF0446104B186BC0F30800FEF736FEC9
:1017CC0005464FF064513046FEF788FE0146284628
:1017DC00FEF77CFD4FF07E51FEF778FD014620466A
:1017EC00FEF77CFE0446ACE7084C2046F8BD084CDE
:1017FC00FBE7024CF9E700BF004402580090D0030D
:10180C000024744C0024744A20BCBE4B40787D01EB
:10181C0000093D00002800F0328170B50D460446E9
:10182C009B4B1B6803F00F038B420BD2984A136837
:10183C0023F00F030B431360136803F00F038B4269
:10184C0040F01F81236813F0040F0CD02269914BD8
:10185C009B6903F070039A4205D98E498B6923F07A
:10186C0070031A438A61236813F0080F0CD0626965
:10187C00884BDB6903F070039A4205D98549CB6923
:10188C0023F070031A43CA61236813F0100F0CD0B5
:10189C00A269804BDB6903F4E0639A4205D97D4968
:1018AC00CB6923F4E0631A43CA61236813F0200F59
:1018BC000CD0E269774B1B6A03F070039A4205D98E
:1018CC0074490B6A23F070031A430A62236813F0FD
:1018DC00020F0CD0E2686F4B9B6903F00F039A4226
:1018EC0005D96C498B6923F00F031A438A6123686D
:1018FC0013F0010F41D0674A936923F47063A16818
:10190C000B4393616368022B0AD0032B27D0012B66
:10191C002CD0604A126812F0040F06D10120ADE001
:10192C00126812F4003F00F0AE805A490A6922F0A6
:10193C00070213430B61FFF769F90646554B1B6908
:10194C0003F038036268B3EBC20F16D0FFF75EF9F1
:10195C00801B41F288339842F0D903208EE04D4A27
:10196C00126812F0007FE0D1012087E0494A12682A
:10197C0012F4807FD9D1012080E0236813F0020F8C
:10198C000CD0E268434B9B6903F00F039A4205D2DB
:10199C0040498B6923F00F031A438A613C4B1B6847
:1019AC0003F00F03AB420AD9394A136823F00F0333
:1019BC002B431360136803F00F03AB4265D123680C
:1019CC0013F0040F0CD02269324B9B6903F07003A7
:1019DC009A4205D22F498B6923F070031A438A610E
:1019EC00236813F0080F0CD062692A4BDB6903F0F3
:1019FC0070039A4205D22749CB6923F070031A432E
:101A0C00CA61236813F0100F0CD0A269214BDB695B
:101A1C0003F4E0639A4205D21E49CB6923F4E063D8
:101A2C001A43CA61236813F0200F0CD0E269194BDA
:101A3C001B6A03F070039A4205D216490B6A23F015
:101A4C0070031A430A62FFF7D3FD12498B69C3F383
:101A5C000323114AD35C03F01F03D8408B6903F0B6
:101A6C000F03D35C03F01F0320FA03F30B4A13603C
:101A7C000B4B18600B4B1868FFF766F870BD012014
:101A8C0070470120FAE70120F8E70120F6E700BFD4
:101A9C000020005200440258901C00080000002452
:101AAC00040000240C000024830730B547D0541EDA
:101ABC00002A3ED0CAB2034601E0013C39D303F8F8
:101ACC00012B9D07F9D1032C2CD9CDB205EB0525A3
:101ADC000F2C05EB054535D9A4F1100222F00F0CA3
:101AEC0003F1100EE6444FEA121C1A46C2E90055E7
:101AFC00C2E9025510327245F8D10CF1010214F012
:101B0C000C0F03EB021204F00F0C13D0ACF1040316
:101B1C0023F003030433134442F8045B9342FBD1D8
:101B2C000CF003042CB1C9B21C4403F8011BA342F2
:101B3C00FBD130BD64461346002CF4D1F9E70346C3
:101B4C001446C0E71A46A446E0E700BF70B50F4B39
:101B5C000F4DAB42A3EB050607D0B610002455F889
:101B6C00043B01349847A642F9D800F07FF8094DA0
:101B7C00094B5E1BAB424FEAA60606D0002455F873
:101B8C00043B01349847A642F9D870BDA01C00084C
:101B9C00A01C0008A01C0008A81C0008704700BF6F
:101BAC00704700BF024B13B1024800F005B87047F4
:101BBC0000000000D11B0008002301461A461846FD
:101BCC0000F014B838B5074D074C2C1BA41005D0E9
:101BDC00013C55F8043D9847002CF9D1BDE838403C
:101BEC0000F04AB8AC1C0008A81C00082DE9F8430A
:101BFC001B4D0646286898460F469146FFF7CEFFC8
:101C0C00184B1C681CB3286865681F2D22DC4EB964
:101C1C006B1C0235636044F82570FFF7C1FF002090
:101C2C00BDE8F88304EB85010123C1F88890D4F852
:101C3C008821AB401A43022EC4F88821C1F80881D0
:101C4C00E6D1D4F88C211A43C4F88C21E0E7064C79
:101C5C001C60D8E7FFF7A4FF4FF0FF30E0E700BFB0
:101C6C0010000024380000243C000024F8B500BF0C
:101C7C00F8BC08BC9E467047F8B500BFF8BC08BC61
:041C8C009E467047B9
:101C90000000000001020304010203040607080912
:081CA000B11B00083108000827
:041CA800090800081F
:101CAC000090D0030090D003010000001000000051
:041CBC0034000024CC
:0400000508000AFDE8
:00000001FF
