:020000040800F2
:1000000000000524F91A00083D1900083F190008EE
:1000100041190008431900084519000800000000B4
:100020000000000000000000000000004719000868
:1000300049190008000000004B1900084D1900087C
:100040004D1B00084D1B00084D1B00084D1B0008F0
:100050004D1B00084D1B00084D1B00084D1B0008E0
:100060004D1B00084D1B00084D1B00084D1B0008D0
:100070004D1B00084D1B00084D1B00084D1B0008C0
:100080004D1B00084D1B00084D1B00084D1B0008B0
:100090004D1B00084D1B00084D1B00084D1B0008A0
:1000A0004D1B00084D1B00084D1B00084D1B000890
:1000B0004D1B00084D1B00084D1B00084D1B000880
:1000C0004D1B00084D1B00084D1B00084D1B000870
:1000D0004D1B00084D1B00084D1B00084D1B000860
:1000E0004D1B00084D1B0008000000004D1B0008C0
:1000F0004D1B00084D1B00084D1B00084D1B000840
:100100004D1B00084D1B00084D1B00084D1B00082F
:100110004D1B00084D1B00084D1B00084D1B00081F
:100120004D1B00084D1B00084D1B00084D1B00080F
:100130004D1B00084D1B00084D1B00084D1B0008FF
:1001400000000000000000000000000000000000AF
:100150004D1B00084D1B00084D1B00084D1B0008DF
:100160004D1B00084D1B00084D1B00084D1B0008CF
:100170004D1B0008551900084D1B00080000000029
:100180004D1B00084D1B00084D1B00084D1B0008AF
:100190004D1B00084D1B00084D1B00084D1B00089F
:1001A0004D1B00084D1B00084D1B000800000000FF
:1001B0004D1B00084D1B00084D1B00084D1B00087F
:1001C0004D1B00084D1B000800000000000000004F
:1001D00000000000000000004D1B000800000000AF
:1001E000000000000000000000000000000000000F
:1001F00000000000000000004D1B00084D1B00081F
:100200004D1B00084D1B0008000000004D1B00089E
:100210004D1B00084D1B00084D1B00084D1B00081E
:100220004D1B0008000000004D1B000800000000EE
:100230004D1B00084D1B0008000000004D1B00086E
:100240004D1B00084D1B00084D1B00084D1B0008EE
:100250004D1B00084D1B00084D1B00084D1B0008DE
:100260004D1B00084D1B00084D1B00084D1B0008CE
:100270004D1B00084D1B00084D1B0008000000002E
:100280004D1B00084D1B00084D1B00084D1B0008AE
:10029000000000004D1B00084D1B0008000000007E
:1002A000000000004D1B00084D1B00084D1B0008FE
:1002B0004D1B00084D1B00084D1B00084D1B00087E
:0C02C0004D1B00084D1B00084D1B0008E2
:1003000080F0004002E000BF81F0004142001FBFCA
:100310005FEA410392EA030F7FEA226C7FEA236CD3
:100320006AD04FEA1262D2EB1363C1BFD2184140C8
:1003300048404140B8BF5B42192B88BF704710F05E
:10034000004F40F4000020F07F4018BF404211F001
:10035000004F41F4000121F07F4118BF494292EA69
:10036000030F3FD0A2F1010241FA03FC10EB0C0095
:10037000C3F1200301FA03F100F0004302D5494222
:1003800060EB4000B0F5000F13D3B0F1807F06D3CF
:1003900040084FEA310102F10102FE2A51D2B1F1C7
:1003A000004F40EBC25008BF20F0010040EA0300BC
:1003B0007047490040EB0000013A28BFB0F5000F3C
:1003C000EDD2B0FA80FCACF1080CB2EB0C0200FAF2
:1003D0000CF0AABF00EBC25052421843BCBFD04041
:1003E0001843704792F0000F81F4000106BF80F4BB
:1003F00000000132013BB5E74FEA41037FEA226C7E
:1004000018BF7FEA236C21D092EA030F04D092F048
:10041000000F08BF0846704790EA010F1CBF00207C
:10042000704712F07F4F04D1400028BF40F00040D9
:10043000704712F100723CBF00F50000704700F0F9
:10044000004343F0FE4040F4000070477FEA226220
:1004500016BF08467FEA23630146420206BF5FEAF1
:10046000412390EA010F40F4800070474FF00003F1
:1004700004E000BF10F0004348BF40425FEA000CB8
:1004800008BF704743F0964301464FF000001CE060
:1004900050EA010208BF70474FF000030AE000BFB6
:1004A00050EA010208BF704711F0004302D54042F4
:1004B00061EB41015FEA010C02BF84460146002066
:1004C00043F0B64308BFA3F18053A3F50003BCFA81
:1004D0008CF2083AA3EBC25310DB01FA02FC63442E
:1004E00000FA02FCC2F12002BCF1004F20FA02F235
:1004F00043EB020008BF20F00100704702F1200228
:1005000001FA02FCC2F1200250EA4C0021FA02F288
:1005100043EB020008BF20EADC7070474FF0FF0C8D
:100520001CEAD0521EBF1CEAD15392EA0C0F93EA88
:100530000C0F6FD01A4480EA010C400218BF5FEA2A
:1005400041211ED04FF0006343EA501043EA51119D
:10055000A0FB01310CF00040B1F5000F3EBF490097
:1005600041EAD3715B0040EA010062F17F02FD2A9B
:100570001DD8B3F1004F40EBC25008BF20F001007E
:10058000704790F0000F0CF0004C08BF49024CEA95
:10059000502040EA51207F3AC2BFD2F1FF0340EA27
:1005A000C250704740F400004FF00003013A5DDC98
:1005B00012F1190FDCBF00F000407047C2F10002D9
:1005C000410021FA02F1C2F1200200FA02FC5FEAC6
:1005D000310040F1000053EA4C0308BF20EADC7010
:1005E000704792F0000F00F0004C02BF400010F482
:1005F000000F013AF9D040EA0C0093F0000F01F02F
:10060000004C02BF490011F4000F013BF9D041EA50
:100610000C018FE70CEAD15392EA0C0F18BF93EA52
:100620000C0F0AD030F0004C18BF31F0004CD8D17C
:1006300080EA010000F00040704790F0000F17BF03
:1006400090F0004F084691F0000F91F0004F14D049
:1006500092EA0C0F01D142020FD193EA0C0F03D1A1
:100660004B0218BF084608D180EA010000F00040A4
:1006700040F0FE4040F40000704740F0FE4040F47F
:10068000400070474FF0FF0C1CEAD0521EBF1CEA1E
:10069000D15392EA0C0F93EA0C0F69D0A2EB03023C
:1006A00080EA010C49024FEA402037D04FF08053D6
:1006B00043EA111143EA10130CF000408B4238BF9B
:1006C0005B0042F17D024FF4000C8B4224BF5B1AA9
:1006D00040EA0C00B3EB510F24BFA3EB510340EAF7
:1006E0005C00B3EB910F24BFA3EB910340EA9C00A5
:1006F000B3EBD10F24BFA3EBD10340EADC001B0115
:1007000018BF5FEA1C1CE0D1FD2A3FF650AF8B42B8
:1007100040EBC25008BF20F0010070470CF0004CC5
:100720004CEA50207F32C2BFD2F1FF0340EAC250F0
:10073000704740F400004FF00003013A37E792F0B1
:10074000000F00F0004C02BF400010F4000F013A0F
:10075000F9D040EA0C0093F0000F01F0004C02BF0A
:10076000490011F4000F013BF9D041EA0C0195E773
:100770000CEAD15392EA0C0F08D142027FF47DAF0C
:1007800093EA0C0F7FF470AF084676E793EA0C0FFC
:1007900004D14B023FF44CAF08466EE730F0004CFA
:1007A00018BF31F0004CCAD130F000427FF45CAF8A
:1007B00031F000437FF43CAF5FE700BF42000ED250
:1007C000B2F1FE4F0BD34FF09E03B3EB126209D48C
:1007D0004FEA002343F0004323FA02F070474FF042
:1007E0000000704712F1610F01D1420202D14FF0B7
:1007F000FF3070474FF00000704700BF000000005E
:1008000030B490F800F020F007016FF0000C10F009
:10081000070491F820F040F048804FF000046FF09A
:100820000700D1E9002391F840F000F1080082FAB6
:100830004CF2A4FA8CF283FA4CF3A2FA8CF34BBB81
:10084000D1E9022382FA4CF200F10800A4FA8CF2FA
:1008500083FA4CF3A2FA8CF3E3B9D1E9042382FAC8
:100860004CF200F10800A4FA8CF283FA4CF3A2FADD
:100870008CF37BB9D1E9062301F1200182FA4CF215
:1008800000F10800A4FA8CF283FA4CF3A2FA8CF37C
:10089000002BC6D0002A04BF04301A4612BAB2FA9E
:1008A00082F200EBD20030BC7047D1E9002304F0A3
:1008B0000305C4F100004FEAC50514F0040F91F8D8
:1008C00040F00CFA05F562EA05021CBF63EA050375
:1008D00062464FF00004AAE700000000000000009C
:1008E00001F0FF01102A2BDB10F0070F08D010F8E1
:1008F000013B013A8B422DD010F0070F42B3F6D1E5
:10090000F0B441EA012141EA014122F007047FF0FD
:1009100000070023F0E80256083C85EA010586EA54
:10092000010685FA47F5A3FA87F586FA47F6A5FA90
:1009300087F68EB9EED1F0BC01F0FF0102F007029C
:1009400032B110F8013B013A83EA010313B1F8D147
:100950000020704701387047002D06BF3546033828
:10096000073815F0010F07D1013015F4807F02BF61
:10097000013015F4C03F0130F0BC0138704700BFB2
:10098000844641EA000313F003036DD1403A41D39A
:1009900051F8043B40F8043B51F8043B40F8043B59
:1009A00051F8043B40F8043B51F8043B40F8043B49
:1009B00051F8043B40F8043B51F8043B40F8043B39
:1009C00051F8043B40F8043B51F8043B40F8043B29
:1009D00051F8043B40F8043B51F8043B40F8043B19
:1009E00051F8043B40F8043B51F8043B40F8043B09
:1009F00051F8043B40F8043B51F8043B40F8043BF9
:100A000051F8043B40F8043B51F8043B40F8043BE8
:100A1000403ABDD2303211D351F8043B40F8043B88
:100A200051F8043B40F8043B51F8043B40F8043BC8
:100A300051F8043B40F8043B103AEDD20C3205D398
:100A400051F8043B40F8043B043AF9D2043208D090
:100A5000D2071CBF11F8013B00F8013B01D30B8802
:100A600003806046704700BF082A13D38B078DD0E0
:100A700010F003038AD0C3F10403D21ADB071CBFB2
:100A800011F8013B00F8013B80D331F8023B20F81C
:100A9000023B7BE7043AD9D3013A11F8013B00F855
:100AA000013BF9D20B7803704B7843708B788370DD
:100AB0006046704781F0004102E000BF83F00043D0
:100AC00030B54FEA41044FEA430594EA050F08BFE9
:100AD00090EA020F1FBF54EA000C55EA020C7FEAAD
:100AE000645C7FEA655C00F0E2804FEA5454D4EB2A
:100AF0005555B8BF6D420CDD2C4480EA020281EAF4
:100B0000030382EA000083EA010180EA020281EA2B
:100B10000303362D88BF30BD11F0004F4FEA01317D
:100B20004FF4801C4CEA113102D0404261EB41018C
:100B300013F0004F4FEA03334CEA133302D0524212
:100B400063EB430394EA050F00F0A780A4F10104CE
:100B5000D5F1200E0DDB02FA0EFC22FA05F2801808
:100B600041F1000103FA0EF2801843FA05F35941EE
:100B70000EE0A5F120050EF1200E012A03FA0EFC6D
:100B800028BF4CF0020C43FA05F3C01851EBE37197
:100B900001F0004507D54FF0000EDCF1000C7EEBB4
:100BA00000006EEB0101B1F5801F1BD3B1F5001FF2
:100BB0000CD349085FEA30004FEA3C0C04F1010411
:100BC0004FEA445212F5800F80F09A80BCF1004F3A
:100BD00008BF5FEA500C50F1000041EB045141EABC
:100BE000050130BD5FEA4C0C404141EB0101013C85
:100BF00028BFB1F5801FE9D291F0000F04BF014674
:100C00000020B1FA81F308BF2033A3F10B03B3F145
:100C100020020CDA0C3208DD02F1140CC2F10C02D5
:100C200001FA0CF021FA02F10CE002F11402D8BF33
:100C3000C2F1200C01FA02F120FA0CFCDCBF41EAFF
:100C40000C019040E41AA2BF01EB0451294330BDCE
:100C50006FEA04041F3C1CDA0C340EDC04F11404AB
:100C6000C4F1200220FA04F001FA02F340EA030082
:100C700021FA04F345EA030130BDC4F10C04C4F1C8
:100C8000200220FA02F001FA04F340EA03002946A8
:100C900030BD21FA04F0294630BD94F0000F83F4F2
:100CA000801306BF81F480110134013D4EE77FEAD5
:100CB000645C18BF7FEA655C29D094EA050F08BF21
:100CC00090EA020F05D054EA000C04BF1946104602
:100CD00030BD91EA030F1EBF0021002030BD5FEA46
:100CE000545C05D14000494128BF41F0004130BD6E
:100CF00014F580043CBF01F5801130BD01F00045C2
:100D000045F0FE4141F470014FF0000030BD7FEA34
:100D1000645C1ABF194610467FEA655C1CBF0B462F
:100D2000024650EA013406BF52EA033591EA030F46
:100D300041F4002130BD00BF90F0000F04BF00213E
:100D4000704730B54FF4806404F132044FF0000571
:100D50004FF0000150E700BF90F0000F04BF0021EA
:100D6000704730B54FF4806404F1320410F0004550
:100D700048BF40424FF000013EE700BF42004FEA4B
:100D8000E2014FEA31014FEA02701FBF12F07F43C8
:100D900093F07F4F81F06051704732F07F4208BF7F
:100DA000704793F07F4F04BF41F40021704730B586
:100DB0004FF4607401F0004521F000411CE700BFD2
:100DC00050EA010208BF704730B54FF000050AE055
:100DD00050EA010208BF704730B511F0004502D556
:100DE000404261EB41014FF4806404F132045FEA58
:100DF000915C3FF4D8AE4FF003025FEADC0C18BF01
:100E000003325FEADC0C18BF033202EBDC02C2F1F2
:100E1000200300FA03FC20FA02F001FA03FE40EA84
:100E20000E0021FA02F11444BDE600BF70B54FF088
:100E3000FF0C4CF4E06C1CEA11541DBF1CEA135566
:100E400094EA0C0F95EA0C0F00F0DEF82C4481EACE
:100E5000030621EA4C5123EA4C5350EA013518BFEE
:100E600052EA033541F4801143F4801338D0A0FBDB
:100E700002CE4FF00005E1FB02E506F00042E0FB88
:100E800003E54FF00006E1FB03569CF0000F18BF8E
:100E90004EF0010EA4F1FF04B6F5007F64F5407436
:100EA00004D25FEA4E0E6D4146EB060642EAC621C9
:100EB00041EA55514FEAC52040EA5E504FEACE2E36
:100EC000B4F1FD0C88BFBCF5E06F1ED8BEF1004F39
:100ED00008BF5FEA500E50F1000041EB045170BDB5
:100EE00006F0004646EA010140EA020081EA0301F9
:100EF000B4EB5C04C2BFD4EB0C0541EA045170BDF5
:100F000041F480114FF0000E013C00F3AB8014F16E
:100F1000360FDEBF002001F0004170BDC4F10004B7
:100F2000203C35DA0C341BDC04F11404C4F1200538
:100F300000FA05F320FA04F001FA05F240EA020093
:100F400001F0004221F0004110EBD37021FA04F6C9
:100F500042EB06015EEA430E08BF20EAD37070BD83
:100F6000C4F10C04C4F1200500FA04F320FA05F0E2
:100F700001FA04F240EA020001F0004110EBD370E4
:100F800041F100015EEA430E08BF20EAD37070BD54
:100F9000C4F1200500FA05F24EEA020E20FA04F32D
:100FA00001FA05F243EA020321FA04F001F00041DC
:100FB00021FA04F220EA020000EBD3705EEA430E4D
:100FC00008BF20EAD37070BD94F0000F0FD101F07C
:100FD0000046400041EB010111F4801F08BF013CB5
:100FE000F7D041EA060195F0000F18BF704703F0F3
:100FF0000046520043EB030313F4801F08BF013D7A
:10100000F7D043EA0603704794EA0C0F0CEA135535
:1010100018BF95EA0C0F0CD050EA410618BF52EAEF
:101020004306D1D181EA030101F000414FF00000F5
:1010300070BD50EA410606BF1046194652EA430603
:1010400019D094EA0C0F02D150EA013613D195EA77
:101050000C0F05D152EA03361CBF104619460AD1BF
:1010600081EA030101F0004141F0FE4141F47001C9
:101070004FF0000070BD41F0FE4141F4780170BDB9
:1010800070B54FF0FF0C4CF4E06C1CEA11541DBF1E
:101090001CEA135594EA0C0F95EA0C0F00F0A7F820
:1010A000A4EB050481EA030E52EA03354FEA01314D
:1010B00000F088804FEA03334FF0805545EA131360
:1010C00043EA12634FEA022245EA111545EA106528
:1010D0004FEA00260EF000419D4208BF964244F1BF
:1010E000FD0404F5407402D25B084FEA3202B61ADE
:1010F00065EB03055B084FEA32024FF480104FF4B2
:10110000002CB6EB020E75EB030E22BFB61A754625
:1011100040EA0C005B084FEA3202B6EB020E75EBB8
:10112000030E22BFB61A754640EA5C005B084FEA20
:101130003202B6EB020E75EB030E22BFB61A7546ED
:1011400040EA9C005B084FEA3202B6EB020E75EBF8
:10115000030E22BFB61A754640EADC0055EA060EB9
:1011600018D04FEA051545EA16754FEA06164FEAFC
:10117000C30343EA52734FEAC2025FEA1C1CC0D1A8
:1011800011F4801F0BD141EA00014FF000004FF035
:10119000004CB6E711F4801F04BF01430020B4F1F6
:1011A000FD0C88BFBCF5E06F3FF6AFAEB5EB030CAE
:1011B00004BFB6EB020C5FEA500C50F1000041EBAB
:1011C000045170BD0EF0004E4EEA113114EB5C0478
:1011D000C2BFD4EB0C0541EA045170BD41F480114B
:1011E0004FF0000E013C90E645EA060E8DE60CEA53
:1011F000135594EA0C0F08BF95EA0C0F3FF43BAF70
:1012000094EA0C0F0AD150EA01347FF434AF95EA26
:101210000C0F7FF425AF104619462CE795EA0C0F0A
:1012200006D152EA03353FF4FDAE1046194622E7D7
:1012300050EA410618BF52EA43067FF4C5AE50EAB1
:1012400041047FF40DAF52EA43057FF4EBAE12E7A1
:101250004FF0FF3C06E000BF4FF0010C02E000BF82
:101260004FF0010C4DF804CD4FEA410C7FEA6C5C65
:101270004FEA430C18BF7FEA6C5C1BD001B050EA08
:10128000410C0CBF52EA430C91EA030F02BF90EAF3
:10129000020F0020704710F1000F91EA030F58BFB2
:1012A000994208BF90422CBFD8176FEAE37040F014
:1012B000010070474FEA410C7FEA6C5C02D150EAB2
:1012C000013C07D14FEA430C7FEA6C5CD6D152EA6D
:1012D000033CD3D05DF8040B704700BF8446104632
:1012E00062468C461946634600E000BF01B5FFF731
:1012F000B7FF002848BF10F1000F01BD4DF808ED01
:10130000FFF7F4FF0CBF012000205DF808FB00BFD1
:101310004DF808EDFFF7EAFF34BF012000205DF82B
:1013200008FB00BF4DF808EDFFF7E0FF94BF012078
:1013300000205DF808FB00BF4DF808EDFFF7CEFF79
:1013400094BF012000205DF808FB00BF4DF808EDB8
:10135000FFF7C4FF34BF012000205DF808FB00BF89
:101360004FEA410C7FEA6C5C02D150EA013C0AD1A1
:101370004FEA430C7FEA6C5C02D152EA033C02D193
:101380004FF0000070474FF0010070474FEA4102F4
:1013900012F5001215D211D56FF47873B3EB6252C7
:1013A00012D94FEAC12343F0004343EA505311F0EE
:1013B000004F23FA02F018BF404270474FF0000080
:1013C000704750EA013005D111F0004008BF6FF0BE
:1013D000004070474FF00000704700BF0348044BC7
:1013E000834202D0034B03B118477047D40700244F
:1013F000D4070024000000000548064B1B1AD90F33
:1014000001EBA301491002D0034B03B11847704709
:10141000D4070024D40700240000000010B5064CB7
:10142000237843B9FFF7DAFF044B13B10448AFF355
:1014300000800123237010BDD407002400000000A9
:1014400030CE000808B5054B1BB105490548AFF380
:101450000080BDE80840FFF7CFBF00BF00000000DC
:10146000D807002430CE0008F0B58BB000240594D6
:101470000694079408940994344BD3F8E02042F082
:101480008002C3F8E020D3F8E02002F0800200924E
:10149000009AD3F8E02042F00102C3F8E020D3F82C
:1014A000E02002F001020192019AD3F8E02042F01C
:1014B0000802C3F8E020D3F8E02002F0080202920C
:1014C000029AD3F8E02042F00402C3F8E020D3F8F7
:1014D000E02002F004020392039AD3F8E02042F0E5
:1014E0000202C3F8E020D3F8E03003F002030493D3
:1014F000049B174F22460721384600F081FD154D09
:1015000022464FF40071284600F07AFD0723059328
:10151000012606960794089405A9384600F062FC57
:101520004FF40073059306960794089405A928467E
:1015300000F058FC21464FF0807000F085FB2146FA
:101540004FF0007000F080FB0BB0F0BD004402587B
:1015500000000258000C025810B584B0002400941A
:1015600001940294039400F0F3FB01238DF8003002
:101570008DF8014001941F228DF8082087228DF8F4
:1015800009208DF80A408DF80B408DF80C308DF84D
:101590000D308DF80E408DF80F40684600F0F6FBD8
:1015A000042000F0E3FB04B010BD00B54FF0000EC6
:1015B000102312E05B009BB20132D2B2072A08D896
:1015C00013F4804FF6D044F2995C8CEA43039BB24B
:1015D000F2E70EF1010E5FFA8EFE8E4505D210F88D
:1015E0000E2083EAC2130022E8E75B0098B25DF8A0
:1015F00004FB000030B5A9B04FF40073ADF89C3087
:10160000022127A8FFF7D1FF00228DF8982002239E
:101610008DF89930C0F307238DF89A308DF89B0030
:10162000244C1021204600F0EBFC234D4FF0FF33FB
:10163000042226A9284603F07BF84FF0FF33082246
:1016400024A9284603F0D4F901221021204600F0F5
:10165000D7FC9DF896309DF8974044EA0324062174
:1016600024A8FFF7A2FF84420ED003462246134966
:1016700004A805F0DFFC04A8FFF7C2F881B204A8B3
:1016800005F0E8F929B030BD9DF892309DF893201F
:101690009DF894109DF8950003900291019200939B
:1016A0009DF891309DF89020054904A805F0C2FCF2
:1016B000E1E700BF00000258F007002470CE0008E8
:1016C00048CE000872B6FEE700B59DB04C2200215E
:1016D00009A805F019FD2022002101A805F014FD3C
:1016E000022001F00BFB00230093214B9A6922F4A6
:1016F00040429A619B6903F440430093009B1C4B5A
:101700009B6913F4005FFAD0212309934FF48033CF
:101710000A9301230F9302221292139214930F2122
:1017200015911693179218930C23199300231A936B
:101730004FF4A0531B9309A801F012FBA0B93F235B
:101740000193032102910023039304934023059303
:1017500006934FF480620792089301A801F004FFFA
:1017600020B91DB05DF804FBFFF7ACFFFFF7AAFF3F
:101770000048025808B5FFF7EFFE00F011FAFFF736
:10178000A3FFFFF771FE00F02FF805F00FF9C82056
:1017900000F046FAFFF72EFF114C0121204600F021
:1017A00035FC4FF4FA7000F03BFA0221204600F0BD
:1017B0002DFC4FF4FA7000F033FA0421204600F0BB
:1017C00025FC4FF4FA7000F02BFAFFF713FF0B2102
:1017D000044805F03FF94FF47A7000F021FADBE796
:1017E0000000025898CE000808B51548154B036054
:1017F0004FF480034360002383600722C2604FF0F0
:10180000007202614FF0807242614FF0806282612B
:10181000C361036243628362C3624FF080424263EA
:101820008363C363036443648364C3640365436580
:10183000836502F0B5FE00B908BDFFF743FFFBE783
:10184000F0070024003C004030B5B9B00446002148
:1018500033913491359136913791B82204A805F02F
:1018600053FC2268284B9A4201D039B030BD4FF466
:1018700080520023CDE9042304A802F0E9F80028EF
:101880003ED1224BD3F8E82042F40042C3F8E820CE
:10189000D3F8E82002F400420192019AD3F8E02044
:1018A00042F00402C3F8E020D3F8E02002F0040282
:1018B0000292029AD3F8E02042F00802C3F8E02036
:1018C000D3F8E03003F008030393039B4FF4406325
:1018D00033930225349500243594369406233793A8
:1018E00033A90B4800F07EFA4023339334953594A6
:1018F00036940523379333A9064800F073FAB4E70A
:10190000FFF7E0FEBDE700BF003C00400044025886
:1019100000080258000C025882B0074BD3F8F4209C
:1019200042F00202C3F8F420D3F8F43003F00203CB
:101930000193019B02B0704700440258FEE7FEE7A6
:10194000FEE7FEE7FEE770477047704708B500F016
:1019500055F908BD08B5024800F091FE08BD00BF6A
:10196000801F00240120704708B505F073FC162382
:1019700003604FF0FF3008BD08B54FF0FF31FFF7AF
:10198000F3FFFEE770B50C461646002506E0AFF300
:101990000080214601F8010B01350C46B542F6DB0B
:1019A000304670BD70B50C461646002504E014F8AC
:1019B000010BAFF300800135B542F8DB304670BD56
:1019C0004FF0FF3070474FF400534B6000207047DA
:1019D000012070470020704710B503460C4A0D499E
:1019E0000D48006840B10C4800680344521A934205
:1019F00006D8094A136010BD0748084C0460F2E796
:101A000005F028FC0C2303604FF0FF30F3E700BF24
:101A10000000052400040000780800247827002432
:101A2000274B1B6803F00F03062B06D8244A1368C4
:101A300023F00F0343F007031360224B1A6842F0B0
:101A400001021A6000221A6119681F4A0A401A60CE
:101A50001B4B1B6813F0080F06D0194A136823F0BC
:101A60000F0343F007031360164B00229A61DA61FB
:101A70001A62164999621649D962164919635A635E
:101A80009963DA6319645A64196821F48021196032
:101A90001A66D3F8D43013F4805F10D1094BD3F811
:101AA000D42042F48052C3F8D4200B4A43F2D2012E
:101AB0001160D3F8D42022F48052C3F8D4207047A8
:101AC00000200052004402587FEDF6EA00020202B4
:101AD0000000FF018002010100400052054AD36866
:101AE00043F00203D360034B5B6813F4005FFAD04A
:101AF000704700BF00480258DFF838D0FFF7EEFF0C
:101B0000FFF78EFF0C480D490D4A002302E0D45820
:101B1000C4500433C4188C42F9D30A4A0A4C002337
:101B200001E013600432A242FBD305F099FBFFF7FA
:101B300021FE70470000052400000024D407002483
:101B4000F8D20008D407002478270024FEE700001C
:101B5000104B1B780BB90120704710B504464FF4A9
:101B60007A70B0FBF3F30C4A1068B0FBF3F000F0AE
:101B7000DBF868B90F2C01D901200AE000222146C8
:101B80004FF0FF3000F0BCF8044B1C60002000E078
:101B9000012010BD08000024040000240C000024D3
:101BA00010B5032000F09AF801F0CCFB0F498B69C7
:101BB000C3F303230E4AD35C03F01F03D8408B69A1
:101BC00003F00F03D35C03F01F0320FA03F3094A69
:101BD0001360094B18600F20FFF7BAFF10B1012402
:101BE000204610BD0446FFF797FEF9E7004402586F
:101BF00094D000080000002404000024034B1B784C
:101C0000034A11680B441360704700BF08000024AA
:101C10007C080024014B1868704700BF7C08002432
:101C200038B50446FFF7F6FF0546B4F1FF3F02D092
:101C3000044B1B781C44FFF7EDFF401BA042FAD376
:101C400038BD00BF08000024034A536823EA00039C
:101C50000B435360704700BF00040058002807DBA7
:101C600000F01F02400901239340024A42F820304D
:101C7000704700BF00E100E0002804DB0901C9B2A1
:101C8000044B1954704700F00F000901C9B2024B10
:101C90001954704700E400E014ED00E000B500F0D6
:101CA0000700C0F1070CBCF1040F28BF4FF0040C73
:101CB000031D062B0FD9C31E4FF0FF3E0EFA0CF08A
:101CC00021EA000199400EFA03FE22EA0E0241EADF
:101CD00002005DF804FB0023EEE700000649CB6834
:101CE00023F4E0631B041B0C000200F4E0600343D8
:101CF000024A1A43CA60704700ED00E00000FA058E
:101D000010B50446054BD868C0F30220FFF7C6FFA4
:101D100001462046FFF7B0FF10BD00BF00ED00E018
:101D200008B5FFF79BFF08BD0138B0F1807F0BD2EB
:101D30004FF0E0235861054AF02182F8231000207B
:101D4000986107221A6170470120704700ED00E09A
:101D5000BFF35F8F044B5A6A22F480325A6200222A
:101D6000C3F89420704700BF00ED00E040F0010090
:101D7000054BC3F894005A6A42F480325A62BFF3AA
:101D80004F8FBFF36F8F704700ED00E04378144A28
:101D9000C2F89830D2F8A03023F00103C2F8A03086
:101DA0004368C2F89C30017BC37A1B0643EA017387
:101DB000817A43EAC143417B43EA8143817B43EA21
:101DC0004143C17B43EA0143417A43EA0123017A5B
:101DD00043EA410301780B43C2F8A030704700BFCB
:101DE00000ED00E070B582B000236EE085685E0013
:101DF0000324B44025EA0405CC68B4402C43846035
:101E0000456825EA0C054C68C4F300149C402C433B
:101E100044606DE0DD08083550F8254003F0070CFC
:101E20004FEA8C0C4FF00F0E0EFA0CFE24EA0E0E49
:101E30000C6904FA0CF444EA0E0440F825406FE003
:101E4000092400E0002404FA0EF42C430CF1020CE7
:101E5000684D45F82C404FF0B0442568D44325EA3E
:101E60000206D1F804C01CF4801F01D042EA050626
:101E70004FF0B0452E606D6804EA0506D1F804C045
:101E80001CF4001F01D042EA05064FF0B0456E6019
:101E9000D5F8845004EA0506D1F804C01CF4003FCC
:101EA00001D042EA05064FF0B045C5F88460D5F888
:101EB00080502C404E6816F4803F01D042EA050461
:101EC0004FF0B042C2F8804001330A6832FA03F49E
:101ED00000F08D804FF0010C0CFA03FC1CEA0202AA
:101EE000F2D04C6804F00304013C012C7FF67EAF75
:101EF0004C6804F00304032C0CD0C4685D004FF060
:101F0000030C0CFA05FC24EA0C0C8C68AC4044EA87
:101F10000C04C4604C6804F00304022C3FF47AAF54
:101F200004684FEA430E4FF0030C0CFA0EFC24EA4F
:101F30000C0C4C6804F0030404FA0EF444EA0C049C
:101F400004604C6814F4403FBED02B4CD4F8F450DD
:101F500045F00205C4F8F450D4F8F44004F002044B
:101F60000194019C4FEA930C0CF10205214C54F8AA
:101F7000255003F0030E4FEA8E0E0F2404FA0EF4E0
:101F800025EA04051D4CA0423FF45CAF04F58064D3
:101F9000A0421ED004F58064A0421CD004F58064E9
:101FA000A0421AD004F58064A04218D004F58064E1
:101FB000A04216D004F58064A04214D004F58064D9
:101FC000A04212D004F50064A0423FF439AF0A24C5
:101FD00039E7012437E7022435E7032433E70424F3
:101FE00031E705242FE706242DE707242BE702B06D
:101FF00070BD00BF000400580044025800000258A1
:102000000AB181617047090481617047436901EA3F
:10201000030221EA030141EA0241816170472DE98F
:10202000F04383B0D0F8008001EBC10300EB8303E1
:102030009A6A5B6A9A4254D807460C469B1A01EB8F
:10204000C10200EB8202D2699A4200D31A4602F121
:1020500003094FEA990915E006F103094FEA9909C6
:10206000BB7904EBC40507EB8505296A0093B3B27D
:10207000E2B2404603F09AF92B6A33442B62AB6A12
:102080003344AB6208EB441303F510639B699BB2C6
:102090004B4512D304EBC40307EB83039A6A5B6AD4
:1020A0009A420AD24BB19B1A04EBC40207EB82029C
:1020B000D6699E42D0D31E46CEE704EBC40307EB9D
:1020C00083077A6ABB6A9A420FD804F00F04012290
:1020D000A240D8F8343823EA0203C8F83438002084
:1020E00000E0012003B0BDE8F0830020FAE730B53E
:1020F00083B000287AD0044690F89534ABB103231E
:1021000084F89534206802F009FF237C8DF80030B4
:10211000231D0ECB206802F037FE58B1022384F84D
:1021200095340125284603B030BD80F8943404F07E
:1021300041FDE4E70021206803F04FFB024608B9A7
:10214000034617E0022384F895340125EAE703EB00
:10215000C30104EB8101012048750B75CB8500207C
:102160000876C861086203EBC30104EB8101486291
:102170000133DBB220799842E9D816E002EBC203C2
:1021800004EB8303002183F8551283F8542283F86B
:102190005812C3F85C12C3F8601202EBC20304EBDE
:1021A0008303C3F864120132D2B29042E6D8237C92
:1021B0008DF80030231D0ECB206802F005FF054688
:1021C00058B900236374012384F89534237B012BD1
:1021D00008D0206803F0C0FAA4E7022384F89534FD
:1021E00001259FE7204600F073FDF2E7012599E7FE
:1021F000036890F89424012A1AD010B504460122ED
:1022000080F89424DA6812F0400F02D0427B012A51
:1022100009D0206802F07CFE206803F08FFA0020CD
:1022200084F8940410BD9A6B42F480329A63F0E70C
:102230000220704770B504460D460068066C00EB3E
:10224000411303F530639A68A179012911D0384907
:102250008E4256D03DB905EBC50304EB8303D3F89A
:102260006432002B5ED0E9B2204604F0E5FC002089
:1022700070BD12F0080F09D02E498E42F7D912F422
:10228000004FF4D04FF400429A60F0E712F0200FB4
:1022900002D020229A60EAE712F0280FE7D1254900
:1022A0008E4206D912F4004F03D04FF400429A60D8
:1022B000DDE705EBC50204EB8202D2F874121B695C
:1022C000C3F31203CB1AC2F868327DB905EBC5021D
:1022D00004EB8202D2F864226AB105EBC50204EB7A
:1022E0008202D2F860121944C2F86012E9B22046A4
:1022F00004F0A2FCBBE704F29C42012103F0ACFA1B
:10230000F4E712F4004F03D04FF400429A60AEE7B6
:1023100012F0200F01D020229A60E9B2204604F08A
:102320008BFCA4E704F29C42002103F095FA9AE7A3
:102330000A31544F0A30544F38B5044603681D6CB7
:1023400003EB4113D3F8081B0E4A954207D903F556
:10235000306311F4004F02D04FF400429A602046DF
:1023600004F062FC074B9D4202D9A379012B01D0F6
:10237000002038BD04F29C420121206803F06CFA71
:10238000F6E700BF0A30544F90F89434012B0CD07C
:1023900010B50446012380F894344174006803F0BA
:1023A000BDF9002084F8940410BD0220704738B5B0
:1023B00005468C4611F0800F2BD101F00F0E0EEB6D
:1023C000CE04A40004F514740444211D0EEBCE0EBB
:1023D00000EB8E0E00208EF855020CF00F0C81F8E9
:1023E00000C0C2F30A028A600B714A780AB1A1F8F0
:1023F0001AC0022B1CD095F89434012B1BD001235A
:1024000085F89434286802F0B7FE002085F894041B
:1024100038BD01F00F0000EBC001890010312944E4
:10242000043100EBC00005EB800001244475D4E7C3
:1024300000234B71DFE70220EAE710B504460A46A5
:1024400011F0800F20D101F00F0000EBC0039B00C2
:1024500003F514732344191D00EBC00004EB800046
:10246000002380F8553202F00F020A7094F8943479
:10247000012B18D0012384F89434206802F0C8FEA0
:10248000002084F8940410BD01F00F0000EBC0039D
:102490009B0010332344191D00EBC00004EB8000A7
:1024A00001234375DFE70220EDE710B5144601F084
:1024B0000F0C0CEBCC01890001F5147101440431BF
:1024C0000CEBCC0E00EB8E0ECEF86022CEF8643210
:1024D0000023CEF868328EF855328EF854C28279D5
:1024E000012A04D0006802F079FF002010BDCEF868
:1024F0007042F7E701F00F0101EBC10100EB810031
:10250000D0F86802704710B5144601F00F0C0CEBC0
:10251000CC0189001031014404310CEBCC0E00EBEE
:102520008E0ECEF82020CEF824300023CEF82830AE
:1025300001238EF815308EF814C082799A4204D0A7
:10254000006802F04BFF002010BDCEF83040F7E7E6
:1025500038B501F00F050279AA4238D304460B467C
:1025600011F0800F1FD101EBC101890001F5147139
:102570000144043103EBC30300EB8303002283F81F
:10258000552201238B700D7094F89434012B20D0C8
:10259000012384F89434206803F065F885B10020A5
:1025A00084F8940438BD05EBC5018900103101445D
:1025B000043105EBC50300EB830301225A75E0E704
:1025C00004F29C42A179206803F046F9E7E7012074
:1025D000E8E70220E6E701F00F0302799A4230D3E0
:1025E00010B5044611F0800F1ED103EBC301890022
:1025F00001F514710144043103EBC30200EB8202C4
:10260000002082F8550200228A700B7094F89434EE
:10261000012B18D0012384F89434206803F050F87B
:10262000002084F8940410BD03EBC301890010312D
:102630000144043103EBC30200EB82020120507518
:10264000E1E7012070470220EDE708B511F0800FA7
:102650000CD101F00F0101EBC101890001F51471EA
:1026600001440431006802F043FE08BD01F00F018F
:1026700001EBC1018900103101440431F2E72DE979
:10268000F04F83B004460568284603F0A2F810B165
:1026900003B0BDE8F08F0646206803F06BF8002811
:1026A000F6D005F50067BB68C3F30D23C4F8D43436
:1026B000206803F05FF810F0020F04D0226853691D
:1026C00003F002035361206803F054F810F0100F78
:1026D00016D02268936923F010039361D5F8208007
:1026E00008F00F0908F4F013B3F5802F6AD0B3F5A2
:1026F000402F00F08D802268936943F010039361AE
:10270000206803F037F810F4002F40F09380206821
:1027100003F030F810F4802F40F0FC80206803F0C4
:1027200029F80028C0F27D81206803F023F810F416
:10273000006F09D0BB6813F0010F40F08A81226856
:10274000536903F400635361206803F013F810F039
:10275000006F15D02268536903F00063536194F849
:10276000CC34002B40F07981012184F8CC1423680B
:102770005B6DC3F38303C4F8D034204600F0BCFA89
:10278000206802F0F7FF10F4805F40F06A81206853
:1027900002F0F0FF10F4005F40F0B681206802F014
:1027A000E9FF10F0080F40F0C781206802F0E2FF57
:1027B00010F0800F00F0DA81AB6923F08003AB6189
:1027C0000126C3E147F6F07318EA030F93D04FEAEE
:1027D000181A4FEAC903019309EBC90B04EB8B0BE1
:1027E000C8F30A12DBF86012284602F019FFDBF882
:1027F0006032CAF30A0A5344CBF86032DBF868321D
:10280000019A4A4404EB82025344C2F8683272E7E8
:10281000082204F29C41284602F002FF09EBC9039A
:1028200004EB8303D3F86822C8F30A184244C3F8C0
:10283000682260E7206802F0A1FF8046B14635E0DB
:1028400005EB49130122C3F8082B49462046FFF740
:10285000F1FC3CE005EB49130822C3F8082B49467C
:102860002046FFF769FD35E009EBC90304EB83035C
:1028700093F85732012B41D005EB49130222C3F8DC
:10288000082B1AF0200F04D005EB49132022C3F8BF
:10289000082B1AF4005F05D005EB49134FF40052E2
:1028A000C3F8082B09F101094FEA5808B8F1000FE5
:1028B0003FF42DAF18F0010FF4D05FFA89FB5946B1
:1028C000206802F06BFF824610F0010FB8D11AF0B9
:1028D000080FBFD11AF0100F04D005EB49131022D6
:1028E000C3F8082B1AF0020FCBD06B6913F0800FDE
:1028F000BAD07B6843F480637B60B5E709EBC9031A
:1029000004EB8303002283F857225946204604F043
:10291000E3F9B1E7206802F039FF8046B14625E0CF
:102920005946204604F094F91AF0080F04D005EB3C
:1029300049130822C3F808291AF0100F04D005EB38
:1029400049131022C3F808291AF0400F04D005EBF0
:1029500049134022C3F808291AF0020F40D11AF097
:10296000800F59D109F101094FEA5808B8F1000F59
:102970003FF4D4AE18F0010FF4D05FFA89FB59464A
:10298000206802F014FF824610F0010FCCD009F04D
:102990000F02012101FA02F27B6B23EA02037B633F
:1029A00005EB4913C3F80819A3798B42B8D109EB99
:1029B000C90304EB83031A6AD9690A441A62B9F19C
:1029C000000FADD109EBC90304EB83035B6A002B55
:1029D000A6D104F29C420121206802F03DFF9FE74E
:1029E0004946284602F0A0FA09EBC90304EB830329
:1029F000DB7D012B05D005EB49130222C3F8082922
:102A0000ADE709EBC90304EB83030022DA755946ED
:102A1000204604F067F9EEE749462046FFF7FFFA43
:102A2000A0E77B6823F001037B6094F8CC34012B92
:102A300008D0204604F04AF92268536903F00043A5
:102A4000536171E6002184F8CC14204600F054F95B
:102A5000F2E7204604F022F971E6204604F01EF960
:102A60008EE67B6823F001037B601021206802F072
:102A70005BFA1AE005EB46134FF67F31C3F80819ED
:102A8000D3F8002922F40012C3F80029C3F8081B68
:102A9000D3F8002B22F40012C3F8002BD3F8002B3C
:102AA00042F00062C3F8002B01362379B342E1D82B
:102AB000FB6943F00113FB61E37BDBB1D7F88430A2
:102AC00043F00B03C7F884307B6C43F00B037B644B
:102AD000D5F8003823F4FE63C5F8003804F29C42B0
:102AE000A179206802F0B8FE2268536903F480538C
:102AF00053614CE67A6942F22B0313437B613B69D5
:102B000043F00B033B61E3E7206802F097FE206887
:102B100002F020FBE071266800F070FE0146E279C9
:102B2000304602F083F9204604F0A3F82268536986
:102B300003F40053536131E6204604F094F8226810
:102B4000536903F0080353612FE601362379B3423A
:102B50000CD906EBC60304EB830393F85732012B21
:102B6000F3D1F1B22046FFF770FDEEE7206802F0E6
:102B700001FE10F4801F25D1206802F0FBFD10F447
:102B8000001F58D0012326E001362379B3421BD918
:102B900005EB4613D3F8002906EBC60304EB8303C9
:102BA0001B7E012BF0D1002AEEDA06EBC60304EB04
:102BB00083030122DA7566F07F01C9B22046FFF770
:102BC00044FDE1E70126E0E72268536903F480133E
:102BD0005361D1E7013322799A4227D905EB431299
:102BE000D2F8001B03EBC30204EB820292F85822D6
:102BF000012AEFD10029EDDAD4F8D42482EA114277
:102C000012F0010FE6D103EBC30204EB82020121B3
:102C100082F85712AA6942F08002AA616A6912F02A
:102C2000800FD7D17B6843F400737B6022685369BF
:102C300003F400135361206802F09CFD10F0804FF4
:102C400010D1206802F096FD10F0040F3FF420AD83
:102C500023685D6815F0040F0DD1226853682B437B
:102C6000536015E5204604F043F82268536903F0E9
:102C700080435361E5E7204604F040F8EDE710B4E7
:102C80000468606A29B940EA0240A062002010BCD2
:102C900070478C46A36A00EB1340002308E003F161
:102CA000400104EB8101496800EB11400133DBB2C4
:102CB0000CF1FF318B42F2D340EA02400CF13F01AC
:102CC00004EB81046060E1E703685962002070470B
:102CD000034602680121C0F8D814002083F8CC0410
:102CE000936943F000639361516D024B0B4353654D
:102CF000704700BF0300001070470000134BDB68F3
:102D000013F0040F07D1114BDB6803F00703834274
:102D10001AD00120704710B50C4AD36823F007037E
:102D20000343D360FEF776FF0446084B5B6813F459
:102D3000005F07D1FEF76EFF001BB0F57A7FF4D974
:102D4000012000E0002010BD00207047004802581C
:102D5000024AD36843F08073D3607047004802583A
:102D6000002800F0D58238B50446036813F0010F3F
:102D700025D0A04A136903F03803926A102B15D0AE
:102D8000182B0FD06368B3F5803F3FD0002B53D191
:102D9000984B1A6822F480321A601A6822F4802252
:102DA0001A6038E002F00302022AEBD1914B1B6853
:102DB00013F4003F03D06368002B00F0AB8223685C
:102DC00013F0020F00F088808A4A1369926A13F0A8
:102DD00038035AD0182B55D0E368002B00F0A98097
:102DE00084490A6822F0190213430B60FEF712FFB0
:102DF0000546804B1B6813F0040F40F09180FEF7EE
:102E000009FF401B0228F4D903208AE2794A13689B
:102E100043F48033136063682BB3FEF7FBFE054673
:102E2000744B1B6813F4003FC9D1FEF7F3FE401B3F
:102E30006428F5D9032074E2B3F5A02F09D06D4BB7
:102E40001A6822F480321A601A6822F480221A600A
:102E5000E1E7684B1A6842F480221A601A6842F46B
:102E600080321A60D7E7FEF7D5FE0546614B1B6836
:102E700013F4003FA3D0FEF7CDFE401B6428F5D924
:102E800003204EE212F0030FA6D15A4B1B6813F039
:102E9000040F03D0E368002B00F03E82554A13680C
:102EA00023F01903E1680B431360FEF7B3FE0546F8
:102EB000504B1B6813F0040F06D1FEF7ABFE401B0E
:102EC0000228F5D903202CE24A4A536823F0FE4336
:102ED000216943EA01635360236813F0100F51D056
:102EE000444A136903F03803926A082B39D0182B2F
:102EF00033D0E369002B69D03E4A136843F0800366
:102F00001360FEF787FE05463A4B1B6813F4807F7B
:102F100053D1FEF77FFE401B0228F5D9032000E2C3
:102F2000344A536823F0FE43216943EA0163536046
:102F3000D2E7304A136823F001031360FEF76AFEFC
:102F400005462C4B1B6813F0040FC5D0FEF762FE3C
:102F5000401B0228F5D90320E3E102F00302012A15
:102F6000C7D1244B1B6813F4807F03D0E369802B07
:102F700040F0D4811F4AD36823F07C53216A43EA8E
:102F80000163D360236813F0080F49D06369002BF5
:102F900032D0184A536F43F001035367FEF73AFEED
:102FA0000546144B5B6F13F0020F39D1FEF732FE6A
:102FB000401B0228F5D90320B3E10E4AD36823F061
:102FC0007C53216A43EA0163D360DBE7094A136853
:102FD00023F080031360FEF71DFE0546054B1B68BA
:102FE00013F4807FCED0FEF715FE401B0228F5D9E2
:102FF000032096E1004402589D4A536F23F00103D9
:103000005367FEF707FE0546994B5B6F13F0020FFF
:1030100006D0FEF7FFFD401B0228F5D9032080E112
:10302000236813F0200F29D0A3699BB1904A13683D
:1030300043F480531360FEF7EDFD05468C4B1B688F
:1030400013F4005F1AD1FEF7E5FD401B0228F5D905
:10305000032066E1864A136823F480531360FEF769
:10306000D9FD0546824B1B6813F4005F06D0FEF7BE
:10307000D1FD401B0228F5D9032052E1236813F04B
:10308000040F21D1636A002B00F04A81784A12694B
:1030900002F03802182A00F0F180022B75D0744A31
:1030A000136823F080731360FEF7B4FD0446704B81
:1030B0001B6813F0007F00F0D880FEF7ABFD001B0B
:1030C0000228F4D903202CE16A4A136843F4807380
:1030D0001360FEF79FFD0546664B1B6813F4807F67
:1030E00006D1FEF797FD401B6428F5D9032018E1AF
:1030F000A368012B0AD00BBB5D4B1A6F22F00102B3
:103100001A671A6F22F004021A6704E0584A136F14
:1031100043F001031367A36833B3FEF77BFD054655
:10312000534B1B6F13F0020FACD1FEF773FD401B26
:1031300041F288339842F3D90320F2E0052B09D0FD
:103140004B4B1A6F22F001021A671A6F22F0040229
:103150001A67E0E7464B1A6F42F004021A671A6FCB
:1031600042F001021A67D6E7FEF754FD0546404BD0
:103170001B6F13F0020F85D0FEF74CFD401B41F290
:1031800088339842F3D90320CBE0394A136823F0FF
:1031900080731360FEF73EFD0546354B1B6813F048
:1031A000007F06D0FEF736FD401B0228F5D903202C
:1031B000B7E02F4B996A304A0A40A16AE06A41EAB7
:1031C00000110A439A62226B013AC2F30802616B52
:1031D0000139490289B20A43A16B0139090401F49A
:1031E000FE010A43E16B0139090601F0FE410A4381
:1031F0001A63DA6A22F00102DA625A6B6FF3CF02C5
:10320000A16C42EAC1025A63DA6A22F00C02216C14
:103210000A43DA62DA6A22F00202616C0A43DA6275
:10322000DA6A42F48032DA62DA6A42F40032DA624E
:10323000DA6A42F48022DA62DA6A42F00102DA6281
:103240001A6842F080721A60FEF7E4FC0446084BEC
:103250001B6813F0007F06D1FEF7DCFC001B022880
:10326000F5D903205DE000205BE0002059E000BFBD
:1032700000440258004802580CFCFFFF30498A6A9B
:10328000086B012B4ED002F00303A16A8B424BD195
:10329000C2F30512E36A9A4248D1C0F30802236BD5
:1032A000013B9A4244D1C0F34622636B013B9A42F0
:1032B00040D1C0F30642A36B013B9A423CD1C0F31C
:1032C0000660E36B013B984238D11D4B5B6BC3F347
:1032D000CC03A26C9A4201D1002022E0184AD36AA2
:1032E00023F00103D362FEF795FC0546FEF792FC3E
:1032F000A842FBD0124A536B6FF3CF03A16C43EA91
:10330000C1035363D36A43F00103D362002008E092
:1033100001207047012004E0012002E0012000E0CC
:10332000002038BD0120FCE70120FAE70120F8E782
:103330000120F6E70120F4E70120F2E70120F0E7A1
:1033400000440258F8B5814B1B6903F03803102B79
:1033500000F0F480182B0FD0002B40F0F2807B4B54
:103360001B6813F0200F00F0EE80784B1B68C3F34E
:10337000C103774CDC40E2E0744B9D6A05F0030525
:103380009C6AC4F30514D86A00F001005B6BC3F3B8
:10339000CC0303FB00F0FDF769F80646002C00F0B3
:1033A000CE80012D56D0022D00F08480002D40F0FB
:1033B000A380664B1B6813F0200F29D0634F3B6836
:1033C000C3F3C1036248D840FDF750F805462046D4
:1033D000FDF74CF801462846FDF754F90446386BD2
:1033E000C0F30800FDF742F805464FF0645130463F
:1033F000FDF794F801462846FCF788FF4FF07E5110
:10340000FCF784FF01462046FDF788F8044642E0B9
:103410002046FDF72BF801464E48FDF733F90446E8
:103420004A4B186BC0F30800FDF720F805464FF033
:1034300064513046FDF772F801462846FCF766FFF6
:103440004FF07E51FCF762FF01462046FDF766F81B
:10345000044620E02046FDF709F801463E48FDF706
:1034600011F90446394B186BC0F30800FCF7FEFF56
:1034700005464FF064513046FDF750F801462846A6
:10348000FCF744FF4FF07E51FCF740FF0146204619
:10349000FDF744F804462D4B1B6BC3F34623581C21
:1034A000FCF7E4FF01462046FDF7ECF8FDF786F94E
:1034B000044644E02046FCF7D9FF01462748FDF7C3
:1034C000E1F80446214B186BC0F30800FCF7CEFF6F
:1034D00005464FF064513046FDF720F80146284676
:1034E000FCF714FF4FF07E51FCF710FF0146204619
:1034F000FDF714F80446CEE72046FCF7B7FF014677
:103500001548FDF7BFF80446104B186BC0F30800D0
:10351000FCF7ACFF05464FF064513046FCF7FEFF68
:1035200001462846FCF7F2FE4FF07E51FCF7EEFE16
:1035300001462046FCF7F2FF0446ACE7084C204663
:10354000F8BD084CFBE7024CF9E700BF0044025805
:103550000090D0030024744C0024744A0024744B5F
:103560000024F40000093D00002800F0328170B50D
:103570000D4604469B4B1B6803F00F038B420BD296
:10358000984A136823F00F030B431360136803F08A
:103590000F038B4240F01F81236813F0040F0CD0FF
:1035A0002269914B9B6903F070039A4205D98E49B9
:1035B0008B6923F070031A438A61236813F0080FA4
:1035C0000CD06269884BDB6903F070039A4205D91D
:1035D0008549CB6923F070031A43CA61236813F04D
:1035E000100F0CD0A269804BDB6903F4E0639A42B0
:1035F00005D97D49CB6923F4E0631A43CA61236886
:1036000013F0200F0CD0E269774B1B6A03F07003B4
:103610009A4205D974490B6A23F070031A430A626F
:10362000236813F0020F0CD0E2686F4B9B6903F024
:103630000F039A4205D96C498B6923F00F031A4393
:103640008A61236813F0010F41D0674A936923F41C
:103650007063A1680B4393616368022B0AD0032B4C
:1036600027D0012B2CD0604A126812F0040F06D12B
:103670000120ADE0126812F4003F00F0AE805A491C
:103680000A6922F0070213430B61FEF7C3FA0646EC
:10369000554B1B6903F038036268B3EBC20F16D0B9
:1036A000FEF7B8FA801B41F288339842F0D9032024
:1036B0008EE04D4A126812F0007FE0D1012087E0D1
:1036C000494A126812F4807FD9D1012080E0236832
:1036D00013F0020F0CD0E268434B9B6903F00F0319
:1036E0009A4205D240498B6923F00F031A438A613D
:1036F0003C4B1B6803F00F03AB420AD9394A1368ED
:1037000023F00F032B431360136803F00F03AB4246
:1037100065D1236813F0040F0CD02269324B9B69EA
:1037200003F070039A4205D22F498B6923F070038E
:103730001A438A61236813F0080F0CD062692A4B80
:10374000DB6903F070039A4205D22749CB6923F065
:1037500070031A43CA61236813F0100F0CD0A269DA
:10376000214BDB6903F4E0639A4205D21E49CB6921
:1037700023F4E0631A43CA61236813F0200F0CD0CE
:10378000E269194B1B6A03F070039A4205D216498D
:103790000B6A23F070031A430A62FFF7D3FD124944
:1037A0008B69C3F30323114AD35C03F01F03D84092
:1037B0008B6903F00F03D35C03F01F0320FA03F3BC
:1037C0000B4A13600B4B18600B4B1868FEF7C0F9DF
:1037D00070BD012070470120FAE70120F8E70120C1
:1037E000F6E700BF002000520044025894D00008C1
:1037F00000000024040000240C00002408B5FFF79A
:10380000A1FD0B4A9369C3F303230A49CB5C03F080
:103810001F0320FA03F3926902F00F02885C00F0A4
:103820001F0023FA00F0044A1060044A136008BD28
:103830000044025894D00008000000240400002432
:10384000404B9B6A03F00303032B79D070B5054608
:103850000E463C4A136823F080631360FEF7DAF9E2
:103860000446384B1B6813F0006F06D0FEF7D2F900
:10387000031B022BF5D9032070BD324B9A6A22F448
:103880007C32296842EA01329A626A68013AC2F3DC
:103890000802A9680139490289B20A43E968013975
:1038A000090401F4FE010A4329690139090601F0FE
:1038B000FE410A439A63DA6A22F0C00269690A4348
:1038C000DA62DA6A22F02002A9690A43DA62DA6A65
:1038D00022F01002DA62DA6B6FF3CF02E96942EA92
:1038E000C102DA63DA6A42F01002DA62C6B91A4635
:1038F000DB6A43F40023D362124A136843F0806307
:103900001360FEF787F904460E4B1B6813F0006F37
:1039100014D1FEF77FF9001B0228F5D90320ABE78D
:10392000012E05D0074AD36A43F40013D362E3E7BC
:10393000044AD36A43F48013D362DDE700209BE797
:103940000120704700440258404B9B6A03F0030378
:10395000032B79D070B505460E463C4A136823F018
:1039600080531360FEF756F90446384B1B6813F07A
:10397000005F06D0FEF74EF9031B022BF5D903209A
:1039800070BD324B9A6A22F07C72296842EA015279
:103990009A626A68013AC2F30802A96801394902C9
:1039A00089B20A43E9680139090401F4FE010A43B6
:1039B00029690139090601F0FE410A431A64DA6AED
:1039C00022F4406269690A43DA62DA6A22F4007218
:1039D000A9690A43DA62DA6A22F48072DA625A6CFE
:1039E0006FF3CF02E96942EAC1025A64DA6A42F42B
:1039F0008072DA62C6B91A46DB6A43F48003D36286
:103A0000124A136843F080531360FEF703F904462B
:103A10000E4B1B6813F0005F14D1FEF7FBF8001B80
:103A20000228F5D90320ABE7012E05D0074AD36A57
:103A300043F08073D362E3E7044AD36A43F400039C
:103A4000D362DDE700209BE7012070470044025865
:103A5000F8B50446036813F0006F2FD0436EB3F53A
:103A6000001F25D015D8E3B1B3F5801F0ED1022178
:103A70000830FFF7E5FE054675BB934A136D23F446
:103A80004013616E0B431365002619E0012635468D
:103A900016E0B3F5401F01D10025EEE701263546BB
:103AA0000EE0894AD36A43F40033D3620025E4E789
:103AB00002212830FFF748FF0546DDE7002635469E
:103AC000236813F4807F29D0A36D042B22D8DFE86C
:103AD00003F005131A0A0A002E46F1E77A4AD36A60
:103AE00043F40033D362C5B9774A136D23F007035B
:103AF000A16D0B43136511E0002104F10800FFF7ED
:103B00009FFE0546EFE7002104F12800FFF71CFFA8
:103B10000546E8E70126354600E02E46236813F403
:103B2000806F2DD0D4F8A430B3F5800F3DD00DD8E0
:103B3000C3B1B3F5001F06D1002104F10800FFF75F
:103B40007FFE054613E00126354619E0B3F5000F68
:103B50000DD0B3F5200F0AD0B3F5C00F07D0012662
:103B600035460DE0584AD36A43F40033D3621DBB97
:103B7000554A936D23F46003D4F8A4100B43936566
:103B8000236813F4006F37D0D4F8A830B3F1007F66
:103B90005ED016D80BB3B3F1807F0FD1002104F1B2
:103BA0000800FFF74DFE05461CE0002104F1280047
:103BB000FFF7CAFE0546DAE72E46E1E7012635465D
:103BC0001AE0B3F1806F0DD0B3F1A06F0AD0B3F15A
:103BD000407F07D0012635460EE03B4AD36A43F4C6
:103BE0000033D362002D3AD1374A936D23F0E0635E
:103BF000D4F8A8100B439365236813F0007F13D00B
:103C0000E36C202B35D02FD833B1102B29D12E4A7D
:103C1000D36A43F40033D36295BB2B4AD36C23F0B1
:103C20003003E16C0B43D364236813F4805F4ED000
:103C3000E36DB3F5005F3FD027D87BB3B3F5805F6A
:103C400020D1002104F10800FFF7FAFD05462AE023
:103C5000002104F12800FFF777FE0546C2E72E4653
:103C6000CAE701263546DFE7302BD5D00126354699
:103C7000DAE7022104F10800FFF7E2FD0546CBE791
:103C80002E46D1E70126354621E0B3F5405F0AD044
:103C9000B3F5804F07D00126354618E00A4AD36AAB
:103CA00043F40033D3628DB9074A136D23F4E04324
:103CB000E16D0B4313650AE0002104F12800FFF7D2
:103CC00043FE0546EFE700BF004402582E46236836
:103CD00013F4005F17D0236EB3F5003F4FD042D8E6
:103CE00043B1B3F5803F3BD1012104F10800FFF758
:103CF000A7FD0546002D49D1924A136D23F4E02318
:103D0000216E0B431365236813F4804F19D0D4F848
:103D1000AC30B3F1005F4AD03DD843B1B3F1805F1E
:103D200036D1012104F10800FFF78AFD0546002D78
:103D300044D1844A936D23F0E043D4F8AC100B4394
:103D40009365236813F4004F47D0E36EB3F1805FAF
:103D500036D0B3F1005F4BD0BBB3012635463CE013
:103D600001263546CFE7B3F5802FC3D0B3F5A02F9A
:103D7000C0D0B3F5403FBDD001263546C3E7012191
:103D800004F12800FFF7E0FD0546B3E72E46BAE749
:103D900001263546D5E7B3F1804FC8D0B3F1A04F27
:103DA000C5D0B3F1405FC2D001263546C9E7012135
:103DB00004F12800FFF7C8FD0546B8E72E46C0E726
:103DC000604AD36A43F40033D362C5B95D4A136DC8
:103DD00023F04053E16E0B431365236813F0807F9B
:103DE0001CD0A36C032B44D8DFE803F0100B3C106D
:103DF000012104F10800FFF723FD0546E5E72E4603
:103E0000EBE7504AD36A43F40033D362A5BB4D4A73
:103E1000D36C23F00303A16C0B43D364236813F426
:103E2000800F2BD1236813F0010F00F0A980A36F3E
:103E3000282B00F2A380DFE803F091A1A1A1A1A1AA
:103E4000A1A18BA1A1A1A1A1A1A19AA1A1A1A1A17F
:103E5000A1A191A1A1A1A1A1A1A191A1A1A1A1A172
:103E6000A1A19100022104F10800FFF7E9FC054639
:103E7000CCE701263546D1E72E46CFE7324A136814
:103E800043F480731360FDF7C5FE07462E4B1B6895
:103E900013F4807F05D1FDF7BDFEC01B6428F5D962
:103EA0000325002D4AD1274B1B6FD4F8B020534077
:103EB00013F4407F0CD0234B1A6F22F44072196F19
:103EC00041F480311967196F21F4803119671A673D
:103ED000D4F8B030B3F5807F15D08DBBD4F8B030B6
:103EE00003F44072B2F5407F1ED0164A136923F4E2
:103EF0007C53136113490B6FD4F8B020C2F30B024B
:103F000013430B678EE7FDF785FE07460D4B1B6FCE
:103F100013F0020FE1D1FDF77DFEC01B41F28833A3
:103F20009842F3D90325D8E70648026922F47C5267
:103F3000064901EA131313430361DBE72E4671E7D9
:103F40002E466FE70044025800480258CFFFFF009A
:103F5000012104F10800FFF773FC0546E5B9B14AF9
:103F6000536D23F03803A16F0B43536508E0012123
:103F700004F12800FFF7E8FC0546EFE70126354687
:103F8000236813F0020F17D0636F052B29D8DFE8E1
:103F900003F00B05210B0B0B2E46F1E7012104F179
:103FA0000800FFF74DFC0546F5B99E4A536D23F016
:103FB0000703616F0B435365236813F0040F26D08A
:103FC000D4F89030052B00F2D680DFE803F0150F0F
:103FD000CD151515012104F12800FFF7B5FC0546A4
:103FE000E2E701263546E7E72E46E5E7012104F141
:103FF0000800FFF725FC0546002D40F0BF80894AE8
:10400000936D23F00703D4F890100B439365236856
:1040100013F0200F1DD0D4F88C30B3F1005F00F006
:10402000C18000F2B0804BB1B3F1805F40F0A88056
:10403000002104F10800FFF703FC0546002D40F0C5
:10404000B880784A536D23F0E043D4F88C100B43CA
:104050005365236813F0400F1DD0D4F89830B3F5A2
:10406000006F00F0BA8000F2A9804BB1B3F5806F09
:1040700040F0A180002104F10800FFF7E1FB0546B4
:10408000002D40F0B180674A936D23F4E053D4F8DB
:1040900098100B439365236813F0800F1DD0D4F85C
:1040A0009C30B3F5804F00F0B38000F2A2804BB19A
:1040B000B3F5005F40F09A80002104F10800FFF79B
:1040C000BFFB0546002D40F0AA80564A936D23F4AD
:1040D0006043D4F89C100B439365236813F0080FDA
:1040E0000DD0D4F88030B3F5805F00F09D804D4A4C
:1040F000536D23F44053D4F880100B435365236869
:1041000013F0100F0DD0D4F89430B3F5807F00F089
:104110009580444A936D23F44073D4F894100B4374
:104120009365236813F4002F00F09D80D4F8A0302D
:10413000B3F5803F00F08C80B3F5003F08D0002B32
:1041400040F08D80002104F10800FFF779FB05465F
:10415000002D40F08780334A936D23F44033D4F828
:10416000A0100B4393657EE0012104F12800FFF7C6
:10417000EBFB054640E70126354648E72E4646E775
:104180000126354665E7B3F1804F3FF457AFB3F1F1
:10419000A04F3FF453AFB3F1405F3FF44FAF012660
:1041A000354656E7022104F12800FFF7CDFB05460E
:1041B00044E72E464DE7012635466CE7B3F5805FB0
:1041C0003FF45EAFB3F5A05F3FF45AAFB3F5406F75
:1041D0003FF456AF012635465DE7022104F1280081
:1041E000FFF7B2FB05464BE72E4654E7012635465E
:1041F00073E7B3F5004F3FF465AFB3F5204F3FF4DD
:1042000061AFB3F5C04F3FF45DAF0126354664E7BB
:10421000022104F12800FFF797FB054652E72E46DE
:104220005BE700BF00440258022104F12800FFF7B9
:104230008BFB00283FF45BAF012658E7022104F115
:104240002800FFF781FB00283FF463AF012660E7F9
:10425000022104F12800FFF777FB054678E70126E5
:10426000354600E02E46236813F4802F24D0D4F87E
:104270008430B3F5001F14D0B3F5401F07D0B3F559
:10428000801F15D17C4AD36A43F40033D36295B9B9
:10429000794A536D23F44013D4F884100B435365CB
:1042A0000AE0012104F12800FFF74EFB0546EEE786
:1042B0000126354600E02E46236813F4803F06D0E1
:1042C000236DCBB1B3F5803F24D00126354623685A
:1042D00013F0005F27D1236813F4003F3DD0E36F54
:1042E000B3F5807F2BD027D9B3F5007F2CD0B3F561
:1042F000407F29D0012630E05F4AD36A43F400337F
:10430000D36275B95C4AD36C23F48033216D0B43BF
:10431000D364DCE7022104F10800FFF791FA0546B7
:10432000EFE72E46D3E7022104F12800FFF70CFB4C
:104330000028D0D00126CEE733B101260DE04E4A49
:10434000D36A43F40033D362002D5CD14A4A536DE3
:1043500023F44073E16F0B435365236813F4801F0C
:1043600006D0454A136D23F00043216F0B431365BC
:10437000236813F4001F06D03F4A136D23F08073A7
:10438000A16E0B431365236813F0804F09D03A4B9D
:104390001A6922F400421A611A69D4F8B4100A4367
:1043A0001A612368002B06DA334AD36C23F040539A
:1043B000616D0B43D364236813F4000F07D02E4ABA
:1043C000536D23F44003D4F888100B43536563689E
:1043D00013F0010F19D1636813F0020F1ED1636847
:1043E00013F0040F23D1636813F0080F28D163681A
:1043F00013F0100F2DD1636813F0200F32D106B1E6
:1044000001263046F8BD2E46A7E7002104F108003A
:10441000FFF716FA0028DED00646DCE7012104F19A
:104420000800FFF70DFA0028D9D00646D7E7022189
:1044300004F10800FFF704FA0028D4D00646D2E7BA
:10444000002104F12800FFF77FFA0028CFD00646AC
:10445000CDE7012104F12800FFF776FA0028CAD041
:104460000646C8E7022104F12800FFF76DFA00288C
:10447000C5D00126C5E700BF0044025810B4026849
:104480005369916941F00801916101688A6942F0BC
:1044900010028A6101680A6822F001020A6001685C
:1044A0000C69284A22400A6101688A6822F4404265
:1044B0008A6090F88120D2B2042A0DD013F0200F28
:1044C0000AD0D0F8842042F08002C0F8842001682D
:1044D0008A6942F020028A6190F88120D2B2032AD0
:1044E0000DD013F0400F0AD0D0F8842042F004021F
:1044F000C0F8842001688A6942F040028A6113F49E
:10450000007F0AD0D0F8842042F00102C0F8842055
:1045100001688A6942F400728A6113F4807F0AD0CC
:10452000D0F8843043F00803C0F8843002689369FF
:1045300043F4807393610023A0F86230A0F86A30DE
:1045400010BC704790FCFFFFC36B5B09C06808306C
:10455000C00803FB000070472DE9F84380460F4672
:1045600016461D46DDF8209000E0BDB1D8F80030B9
:104570005C6937EA04040CBF01230023B3420AD16B
:10458000FDF748FBA0EB0900A842EED3B5F1FF3FD1
:10459000EBD0032000E00020BDE8F8830320FBE718
:1045A000002800F0B78070B50446002383620568D8
:1045B0005C4B5D4E9D4218BFB54214BF01260026DC
:1045C00007D0A3F574439D4203D0C3680F2B00F2BC
:1045D000A3802046FFF7B8FF2EB1544B9D4202D076
:1045E000082800F29B804F4A4F4B9D4218BF9542CE
:1045F00003D003F580639D4202D1102800F2908021
:1046000094F88130F3B1022384F881302268136872
:1046100023F00103136023689A6802F4F812A16979
:10462000B1F1806F14D0636813F4800F23D0E36876
:10463000062B20D921680B6823F48073206D034377
:104640000B601DE084F880302046FDF7FDF8DAE7C6
:104650006168B1F5800F06D00029E4D1A16BB1F1FA
:10466000805FE0D102E0A06B0028F5D1196841F429
:1046700080511960D7E721680B6823F480730B60C1
:10468000E369A16A0B431343E26B1343E1682268B9
:104690000B439360636B626A1343A26B1343A2697B
:1046A00013432269134362691343226A1343626806
:1046B0001343E26C1343A2681343A26C1343A16D2E
:1046C00022680B43D36063686BB92268936823F454
:1046D000C05343F4006393602268936823F4C0637B
:1046E00043F4806393602268136D23F00103136524
:1046F000636813F4800F06D02268D36823F0004368
:10470000616D0B43D3600020C4F88400012384F85A
:10471000813070BD012070470120FAE70120F8E7E1
:104720000120F6E70030014000380040003C004026
:104730002DE9F04782B004468A4691461D46D0F8DE
:104740000080FDF767FA94F88160F6B2012E40F020
:1047500048810746B9F1000F18BFBAF1000F00F009
:10476000418194F88030012B00F04081012384F8CE
:104770008030032384F881300023C4F88430C4F8E7
:104780005CA0A4F86090A4F862906366A4F8683016
:10479000A4F86A3063672367A368B3F5C02F1CD001
:1047A0002268D36823F4C02343F40033D360226823
:1047B00053686FF30F0349EA0303536022681368D9
:1047C00043F0010313606368B3F5800F0BD0E36817
:1047D0000F2B1BD8072B4DD8ACE02268136843F48D
:1047E00000631360E3E72268136843F40073136007
:1047F000EDE7E26D12681A62E36D0433E365B4F825
:10480000622092B2013A92B2A4F86220B4F8623007
:104810009BB2002B00F0C98023685A6912F0020F86
:10482000E7D1FDF7F7F9C01BA84202D3B5F1FF3F6E
:1048300001D1002DEAD12046FFF720FED4F88430C4
:1048400043F48073C4F88430012384F8813000235A
:1048500084F880300326C5E0E36D1B88A8F820307B
:10486000E36D0233E365B4F862309BB2013B9BB267
:10487000A4F86230B4F862309BB2002B00F095804F
:104880002268536913F0020F15D0B4F862309BB25E
:10489000012BE1D9E36B002BDED0E36D1B681362C3
:1048A000E36D0433E365B4F862309BB2023B9BB224
:1048B000A4F86230DEE7FDF7ADF9C01BA84202D3D1
:1048C000B5F1FF3F01D1002DD4D12046FFF7D6FD31
:1048D000D4F8843043F48073C4F88430012384F81E
:1048E0008130002384F8803003267BE0B4F8623006
:1048F0009BB2012B10D9E36B73B1E36D1B88A8F851
:104900002030E36D0233E365B4F862309BB2023BC2
:104910009BB2A4F862300DE0E36D1B7882F8203082
:10492000E36D0133E365B4F862309BB2013B9BB2A7
:10493000A4F86230B4F862309BB2002B35D0226804
:10494000536913F0020F15D0B4F862309BB2032BF9
:10495000CCD9E36B402BC9D9E36D1B681362E36DBF
:104960000433E365B4F862309BB2043B9BB2A4F815
:104970006230DFE7FDF74EF9C01BA84202D3B5F164
:10498000FF3F01D1002DD5D12046FFF777FDD4F8A8
:10499000843043F48073C4F88430012384F8813078
:1049A000002384F8803003261CE000972B46002269
:1049B00008212046FFF7D0FD28B1D4F8843043F019
:1049C0002003C4F884302046FFF758FD012384F803
:1049D0008130002384F88030D4F8843013B9002665
:1049E00000E00226304602B0BDE8F0870226F9E773
:1049F0002DE9F84F04468B4692461E46C56BC5F31B
:104A00004F15D0F80090FDF705F994F88170FFB2CA
:104A1000012F40F08D810135ADB28046BAF1000F13
:104A200018BFBBF1000F00F0848194F88030012B97
:104A300000F08281012384F88030042384F88130DF
:104A40000023C4F88430C4F864B0A4F868A0A4F8C3
:104A50006AA0E365A4F86030A4F862302367636756
:104A6000A368B3F5C02F1DD02268D36823F4C023F8
:104A700043F48023D360226853686FF30F034AEA3C
:104A8000030353602268136843F0010313606368F3
:104A9000B3F5800F0CD0E3680F2B2FD8072B00F253
:104AA00096800DE12268136823F400631360E2E747
:104AB0002268136843F400731360ECE7B4F86A20CB
:104AC00092B2AA4210D211F4004F0DD0626E1B6B4D
:104AD0001360636E04336366B4F86A309BB2013BC3
:104AE0009BB2A4F86A3009E0FDF794F8A0EB080047
:104AF000B04202D3B6F1FF3F1AD1CEB1B4F86A206A
:104B000092B2002A00F00681236859695A6912F0AE
:104B1000010FD3D0626E1B6B1360636E0433636648
:104B2000B4F86A2092B2013A92B2A4F86A20E5E79A
:104B30002046FFF7A3FCD4F8843043F48073C4F814
:104B40008430012384F88130002384F880300327E7
:104B5000EFE0B4F86A309BB2AB4217D212F4004FC8
:104B600014D0636EB9F830201A80636E9A1C6266A6
:104B7000B9F830205A80636E02336366B4F86A3045
:104B80009BB2023B9BB2A4F86A3020E0B4F86A30D2
:104B90009BB2012B11D112F4005F0ED0636EB9F8F5
:104BA00030201A80636E02336366B4F86A309BB2B9
:104BB000013B9BB2A4F86A3009E0FDF72BF8A0EBAB
:104BC0000800B04202D3B6F1FF3F1BD1D6B1B4F812
:104BD0006A309BB2002B00F09D8023685A695B69A4
:104BE00013F0010FB5D0636EB9F830201A80636EF0
:104BF00002336366B4F86A309BB2013B9BB2A4F8FF
:104C00006A30E4E72046FFF739FCD4F8843043F4F7
:104C10008073C4F88430012384F88130002384F841
:104C20008030032785E0B4F86A2092B2AA4226D2E7
:104C300011F4004F23D0626E93F830301370636E1E
:104C40005A1C6266226892F830205A70636E5A1CB1
:104C50006266226892F830205A70636E5A1C62664F
:104C6000226892F830205A70636E01336366B4F89C
:104C70006A309BB2043B9BB2A4F86A3020E0B4F8DF
:104C80006A2092B2032A11D811F4C04F0ED0626E7E
:104C900093F830301370636E01336366B4F86A3092
:104CA0009BB2013B9BB2A4F86A3009E0FCF7B2FF6B
:104CB000A0EB0800B04202D3B6F1FF3F19D1C6B154
:104CC000B4F86A309BB22BB3236859695A6912F061
:104CD000010FA8D0626E93F830301370636E013309
:104CE0006366B4F86A309BB2013B9BB2A4F86A30A9
:104CF000E6E72046FFF7C2FBD4F8843043F4807324
:104D0000C4F88430012384F88130002384F8803093
:104D100003270EE02046FFF7B1FB012384F8813022
:104D2000002384F88030D4F8843013B9002700E0E1
:104D300002273846BDE8F88F0227FAE782B0002341
:104D40000193019B01330193019BB3F1706F15D85F
:104D50000369002BF5DA00230193036943F0010393
:104D60000361019B01330193019BB3F1706F08D87C
:104D7000036913F0010FF4D1002000E0032002B01A
:104D800070470320FBE7000084B010B5044603A879
:104D900080E80E009DF81130012B1FD1A36B23F486
:104DA0008033A363E2681F4B1340E360E36823F49E
:104DB0004013E3609DF81830012B0AD02046FFF71E
:104DC000BDFF9DF80E30012B1CD0BDE8104004B093
:104DD0007047E36843F48013E360EFE7E36843F070
:104DE0004003E3602046FFF7A9FF9DF8153023B983
:104DF000A36B43F48033A363E3E7A36B23F4803313
:104E0000A363DEE7E36D9BB2E365E26D064B1343FC
:104E1000E365A36843F00603A360A36843F020039F
:104E2000A360D2E7BFFFBDFF0000EE03022A0AD055
:104E30000922C36823F47053C360C36843EA822322
:104E4000C36000207047204B0B44204A934229D96D
:104E50001F4B0B441F4A934226D91F4B0B441F4A3A
:104E6000934223D91E4B0B441E4A934220D31E4B20
:104E70000B441E4A93421DD91D4B0B441D4A9342BD
:104E80001AD31D4B0B441D4A934217D31C4B0B44A2
:104E90001C4A934214D31C4B0B441C4A934211D21C
:104EA0000722C6E70F22C4E70E22C2E70D22C0E7A1
:104EB0000C22BEE70B22BCE70A22BAE70922B8E7B8
:104EC0000822B6E70622B4E7405327FFFF340C0060
:104ED000401E1BFF3F420F0000DC0BFF7F4F120004
:104EE000808CF9FE20D6130060B6E5FE5FE3160065
:104EF00000D3CEFE40771B00C05BB3FEC091210003
:104F000000CA91FE20753800E05459FEE09C410033
:104F1000836843F00103836000207047836823F0B7
:104F2000010383600020704782B000230193019B3E
:104F300001330193019BB3F1706F15D80369002B06
:104F4000F5DA00230193890141F020010161019B01
:104F500001330193019BB3F1706F08D8036913F01B
:104F6000200FF4D1002000E0032002B0704703209E
:104F7000FBE782B000230193019B01330193019B66
:104F8000B3F1706F13D80369002BF5DA0023019396
:104F900010230361019B01330193019BB3F1706FF7
:104FA00008D8036913F0100FF4D1002000E00320AB
:104FB00002B070470320FBE7D0F800381943C0F86F
:104FC000001800207047000084B0F8B5044607A818
:104FD00080E80E00002306E003F1400204EB8202A9
:104FE0000021516001330E2BF6D99DF8266006BBD7
:104FF000D4F8043843F00203C4F80438A36B23F454
:105000000013A363236843F040032360236843F045
:10501000800323600023C4F8003E9DF82130012B5B
:1050200011D19DF81F304BB900212046FFF7C4FF76
:105030000DE0A36B43F40013A363EBE701212046CB
:10504000FFF7BAFF03E003212046FFF7B5FF102169
:105050002046FFF769FF054600B101252046FFF70E
:1050600088FF00B1012504F5006C0023CCF8103056
:10507000CCF81430CCF81C300AE0CBB94FF000600B
:10508000C2F8000900220A614FF67F328A600133BC
:105090009DF81C10994210D904EB431202F51061DF
:1050A000D2F800090028E8DB0020C2F80009E9E78F
:1050B0004FF09040C2F80009E4E700230AE0BBB1DA
:1050C0004FF09047C2F8007B002202614FF67F321A
:1050D00082600133994210D904EB431202F530602B
:1050E000D2F8007B002FEADB0027C2F8007BEBE759
:1050F0004FF00067C2F8007BE6E7DCF8103023F4DD
:105100008073CCF810300023A3616FF0804363619B
:105110009DF81E301BB9A36943F01003A361A26977
:105120000A4B1343A3619DF822301BB1A36943F0DE
:105130000803A361012E04D02846BDE8F84004B05E
:105140007047A269024B1343A361F5E700383C8026
:1051500004000040D0F8083803F00603022B04D006
:10516000062B04D02BB90020704702207047022084
:1051700070470F207047000010B591F800C04B78C1
:10518000012B21D000F5006ED0F81C380CF00F0474
:105190000122A24043EA0243C0F81C3800EB4C1045
:1051A000D0F8003B13F4004F0CD1D0F8002B8B68E3
:1051B000C3F30A03097943EA81431A43134B1343A8
:1051C000C0F8003B002010BDD0F81C280CF00F0EDA
:1051D00003FA0EF39BB21343C0F81C3800EB4C10DB
:1051E000D0F8003913F4004FECD1D0F800298B68C7
:1051F000C3F30A03097943EA814343EA8C531A4310
:10520000024B1343C0F80039DCE700BF00800010F8
:1052100030B40B784A78012A26D000EB4313D3F838
:10522000002B002A52DBD0F83C480A7802F00F022B
:105230004FF0010C0CFA02F224EA0242C0F83C28BA
:10524000D0F81C28097801F00F010CFA01FC22EAC1
:105250000C42C0F81C28D3F8001B234A0A40C3F8AC
:10526000002B002030BC704700EB4313D3F800291B
:10527000002A1EDBD0F83C580A7802F00F02012405
:1052800004FA02F292B225EA0202C0F83C28D0F8F1
:105290001C28097801F00F018C40A4B222EA040214
:1052A000C0F81C28D3F80019104A0A40C3F8002996
:1052B000D7E7D3F8002942F00062C3F80029D3F8F9
:1052C000002942F08042C3F80029D3E7D3F8002B2D
:1052D00042F00062C3F8002BD3F8002B42F080426A
:1052E000C3F8002B9FE700BF0078F3EF007833ECA2
:1052F00010B483B0024600230193487801280AD0F5
:105300000B7802EB4313D3F8000B00282CDB0020B2
:1053100003B010BC70470B7802EB4313D3F800497D
:10532000002C01DB0020F3E7D3F8004944F00064CF
:10533000C3F800490B7802EB4313D3F8004944F05B
:105340008044C3F80049019B01330193019C42F260
:1053500010739C42DCD80B7802EB4313D3F800396E
:10536000002BF0DB0020D3E7D3F8000B40F0006007
:10537000C3F8000B0B7802EB4313D3F8000B40F09B
:105380008040C3F8000B019B01330193019842F266
:105390001073984208D80B7802EB4313D3F8003B04
:1053A000002BF0DB0020B3E70120B1E710B59DF83A
:1053B000084084B903334FEA930E4FF0000C08E025
:1053C00000EB023303F5805351F8044B1C600CF1E1
:1053D000010CF445F4D3002010BD0000F0B583B0FB
:1053E0000C784B78012B2DD000EB441C0CF530636E
:1053F0001D696FF312051D611D696FF3DC451D61A9
:10540000002C40F0CE800C690CB18C680C618C686B
:105410000C621D69C4F312042C431C611C6944F422
:1054200000241C61012A00F0DF800B79012B00F0C1
:10543000E180DCF8003B43F00443CCF8003B002063
:1054400003B0F0BD0B6973BB00EB4413D3F81059E4
:105450006FF3DC45C3F81059D3F8105945F4002513
:10546000C3F81059D3F810596FF31205C3F8105947
:10547000012A54D000EB4414D4F8003943F004431B
:10548000C4F800390B79012B72D00B69002BD6D0F0
:10549000D0F83438097801F00F0101228A40134313
:1054A000C0F83438CBE700EB441303F510631D69F3
:1054B0006FF312051D611D696FF3DC451D6184B931
:1054C0000E698D68AE4200D90D611D6945F4002555
:1054D0001D611D690E69C6F3120C45EA0C051D61BC
:1054E000C6E70D698E683544013DB5FBF6F51E69CA
:1054F0001FFA85FC494F07EAC54535431D610D7903
:10550000012DE6D11D6925F0C0451D611D694FEAD9
:105510004C7C0CF0C04C45EA0C051D61D9E7CB6909
:105520001BB100EB4412C2F814390B79012B08D0DF
:1055300000EB4414D4F8003943F00443C4F80039B4
:105540007DE7D0F8083813F4807F08D100EB4412CF
:10555000D2F8003943F00053C2F80039E8E700EB15
:105560004412D2F8003943F08053C2F80039DFE723
:10557000D0F8083813F4807F0CD1D4F8003943F008
:105580000053C4F8003900920B8A0A78C968FFF703
:105590000DFF54E7D4F8003943F08053C4F80039C4
:1055A000F1E70C6954B91C698D68C5F312052C43E9
:1055B0001C611C6944F400241C6133E78D682C4491
:1055C000013CB4FBF5F4A4B204FB05F50D621D69C2
:1055D000124E06EAC4442C431C611C690D6AC5F3D3
:1055E00012052C431C611DE7CA68002A3FF41DAF59
:1055F0005A611AE7D0F8083813F4807F06D1DCF836
:10560000003B43F00053CCF8003B12E7DCF8003BD2
:1056100043F08053CCF8003B0BE700BF0000F81FBD
:1056200010B5844608464FEA920E02F003020023AA
:1056300005E00CF58051096840F8041B01337345FF
:10564000F7D37AB10CF5805CDCF800400021CBB2D6
:10565000DB0024FA03F300F8013B0131013A92B276
:10566000002AF4D110BD0B784A78012A14D000EB3F
:105670004310D0F8002B002A06DB2BB1D0F8003BFA
:1056800023F08043C0F8003BD0F8003B43F4001304
:10569000C0F8003B0020704700EB4310D0F8002911
:1056A000002A06DB2BB1D0F8003923F08043C0F884
:1056B0000039D0F8003943F40013C0F80039E9E7A5
:1056C0000B784A78012A0ED000EB4310D0F8003B4B
:1056D00023F40013C0F8003B0B79023BDBB2012B33
:1056E00015D90020704700EB4310D0F8003923F49F
:1056F0000013C0F800390B79023BDBB2012BF0D864
:10570000D0F8003943F08053C0F80039E9E7D0F809
:10571000003B43F08053C0F8003BE2E7D0F800388C
:1057200023F4FE63C0F80038D0F80038090101F412
:10573000FE610B43C0F8003800207047D0F8003EEF
:1057400023F00303C0F8003ED0F8043823F002032E
:10575000C0F8043800207047D0F8003E23F003035F
:10576000C0F8003ED0F8043843F00203C0F8043813
:10577000002070474269806910407047D0F818389F
:1057800000F50060C0691840000C7047D0F8183868
:1057900000F50060C069184080B2704700EB41110D
:1057A000D1F8082B00F50060406910407047D0F830
:1057B0001028D0F8343801F00F0C23FA0CF3DB0179
:1057C000DBB2134300EB411000F510608068184015
:1057D0007047406900F00100704738B50546C3685E
:1057E00023F0C043C360012913D019BBC36843F041
:1057F0008043C36000240A20FCF712FA0A342846CA
:10580000FFF7E7FF08B1C72CF5D9C82C14D000204A
:1058100038BDC36843F00053C36000240A20FCF77E
:10582000FFF90A342846FFF7D4FF0128EDD0C72C32
:10583000F4D9EAE70120EBE70120E9E7D0F80039E5
:105840006FF30A03C0F80039D0F8043843F48073CA
:10585000C0F804380020704710B4046C144B9C420C
:1058600003D9D0F8003B002B16DB0024C0F8104B06
:10587000D0F8104B44F40024C0F8104BD0F8104B73
:1058800044F01804C0F8104BD0F8104B44F0C0445A
:10589000C0F8104B012902D0002010BC7047C0F89E
:1058A000142BD0F8003B43F08023C0F8003BF3E713
:1058B0000A30544F10B5D0F8D43203F1B00250F88A
:1058C00022408CB100EB820043687BB194F8000267
:1058D000FF280DD09B6894F8012221469847FF23AA
:1058E00084F80032002010BD0320FCE70020FAE716
:1058F0000020F8E70A230380004870478C0000244A
:10590000F8B506460F4F8221384600F044FC0546A4
:105910000121384600F03FFC04468121384600F062
:105920003AFC0DB11022AA711CB140222271002252
:10593000627118B140220271002242714323338008
:105940000048F8BD10000024F8B506460F4F82212C
:10595000384600F020FC05460121384600F01BFCCB
:1059600004468121384600F016FC0DB11022AA71C0
:105970001CB1402222710022627118B140220271D2
:1059800000224271432333800048F8BD10000024F8
:10599000F8B506460F4F8221384600F0FCFB05465D
:1059A0000121384600F0F7FB04468121384600F01B
:1059B000F2FB0DB11022AA711CB100222271022249
:1059C000627118B1002202710222427143233380B6
:1059D0000048F8BD1000002438B5D0F8D432B033F8
:1059E00050F8235095B1044601F0DCF9C5F80C02DB
:1059F000D4F8D432B03304EB83046368DB6805F574
:105A00000371D5F804029847002038BD0320FCE755
:105A100038B5D0F8C852D0F8D432B03350F823405B
:105A200084B301F00F0303EB830200EB820292695F
:105A30004AB103EBC30C05EB8C05ED69B2FBF5FC39
:105A400005FB1C2292B10023C4F81432D0F8D432E2
:105A5000B03300EB830043681B69ABB10A4604F521
:105A60000471D4F808029847002038BD03EB830383
:105A700000EB830300249C612346224601F0DAF9FF
:105A80002046F2E70320F0E70020EEE7F0B583B010
:105A9000D0F8D43203F1B00250F8227000228DF811
:105AA0000720ADF80420002F7BD004460D4609786E
:105AB00011F0600634D0202E6CD1EA882AB311F0A0
:105AC000800F07D16B7887F80032EA883F2A13D815
:105AD000D2B212E0B03300EB83035B689B683946B7
:105AE00068789847EA88072A28BF0722394620465F
:105AF00000F019FF002651E0402287F801223946C4
:105B0000204600F025FF002648E0B03300EB830379
