:020000040800F2
:1000000000000524D91D0008ED1A0008EF1A0008A9
:10001000F11A0008F31A0008F51A000800000000A1
:10002000000000000000000000000000F71A0008B7
:10003000F91A000800000000FB1A0008FD1A000869
:100040002D1E00082D1E00082D1E00082D1E000864
:100050002D1E00082D1E00082D1E00082D1E000854
:100060002D1E00082D1E00082D1E00082D1E000844
:100070002D1E00082D1E00082D1E00082D1E000834
:100080002D1E00082D1E00082D1E00082D1E000824
:100090002D1E00082D1E00082D1E00082D1E000814
:1000A0002D1E00082D1E00082D1E00082D1E000804
:1000B0002D1E00082D1E00082D1E00082D1E0008F4
:1000C0002D1E00082D1E00082D1E00082D1E0008E4
:1000D0002D1E00082D1E00082D1E00082D1E0008D4
:1000E0002D1E00082D1E0008000000002D1E000817
:1000F0002D1E00082D1E00082D1E00082D1E0008B4
:100100002D1E00082D1E00082D1E00082D1E0008A3
:100110002D1E00082D1E00082D1E00082D1E000893
:100120002D1E00082D1E00082D1E00082D1E000883
:100130002D1E00082D1E00082D1E00082D1E000873
:1001400000000000000000000000000000000000AF
:100150002D1E00082D1E00082D1E00082D1E000853
:100160002D1E00082D1E00082D1E00082D1E000843
:100170002D1E0008051B00082D1E000800000000B1
:100180002D1E00082D1E00082D1E00082D1E000823
:100190002D1E00082D1E00082D1E00082D1E000813
:1001A0002D1E00082D1E00082D1E00080000000056
:1001B0002D1E00082D1E00082D1E00082D1E0008F3
:1001C0002D1E00082D1E0008000000000000000089
:1001D00000000000000000002D1E000800000000CC
:1001E000000000000000000000000000000000000F
:1001F00000000000000000002D1E00082D1E000859
:100200002D1E00082D1E0008000000002D1E0008F5
:100210002D1E00082D1E00082D1E00082D1E000892
:100220002D1E0008000000002D1E00080000000028
:100230002D1E00082D1E0008000000002D1E0008C5
:100240002D1E00082D1E00082D1E00082D1E000862
:100250002D1E00082D1E00082D1E00082D1E000852
:100260002D1E00082D1E00082D1E00082D1E000842
:100270002D1E00082D1E00082D1E00080000000085
:100280002D1E00082D1E00082D1E00082D1E000822
:10029000000000002D1E00082D1E000800000000B8
:1002A000000000002D1E00082D1E00082D1E000855
:1002B0002D1E00082D1E00082D1E00082D1E0008F2
:0C02C0002D1E00082D1E00082D1E000839
:1003000080F0004002E000BF81F0004142001FBFCA
:100310005FEA410392EA030F7FEA226C7FEA236CD3
:100320006AD04FEA1262D2EB1363C1BFD2184140C8
:1003300048404140B8BF5B42192B88BF704710F05E
:10034000004F40F4000020F07F4018BF404211F001
:10035000004F41F4000121F07F4118BF494292EA69
:10036000030F3FD0A2F1010241FA03FC10EB0C0095
:10037000C3F1200301FA03F100F0004302D5494222
:1003800060EB4000B0F5000F13D3B0F1807F06D3CF
:1003900040084FEA310102F10102FE2A51D2B1F1C7
:1003A000004F40EBC25008BF20F0010040EA0300BC
:1003B0007047490040EB0000013A28BFB0F5000F3C
:1003C000EDD2B0FA80FCACF1080CB2EB0C0200FAF2
:1003D0000CF0AABF00EBC25052421843BCBFD04041
:1003E0001843704792F0000F81F4000106BF80F4BB
:1003F00000000132013BB5E74FEA41037FEA226C7E
:1004000018BF7FEA236C21D092EA030F04D092F048
:10041000000F08BF0846704790EA010F1CBF00207C
:10042000704712F07F4F04D1400028BF40F00040D9
:10043000704712F100723CBF00F50000704700F0F9
:10044000004343F0FE4040F4000070477FEA226220
:1004500016BF08467FEA23630146420206BF5FEAF1
:10046000412390EA010F40F4800070474FF00003F1
:1004700004E000BF10F0004348BF40425FEA000CB8
:1004800008BF704743F0964301464FF000001CE060
:1004900050EA010208BF70474FF000030AE000BFB6
:1004A00050EA010208BF704711F0004302D54042F4
:1004B00061EB41015FEA010C02BF84460146002066
:1004C00043F0B64308BFA3F18053A3F50003BCFA81
:1004D0008CF2083AA3EBC25310DB01FA02FC63442E
:1004E00000FA02FCC2F12002BCF1004F20FA02F235
:1004F00043EB020008BF20F00100704702F1200228
:1005000001FA02FCC2F1200250EA4C0021FA02F288
:1005100043EB020008BF20EADC7070474FF0FF0C8D
:100520001CEAD0521EBF1CEAD15392EA0C0F93EA88
:100530000C0F6FD01A4480EA010C400218BF5FEA2A
:1005400041211ED04FF0006343EA501043EA51119D
:10055000A0FB01310CF00040B1F5000F3EBF490097
:1005600041EAD3715B0040EA010062F17F02FD2A9B
:100570001DD8B3F1004F40EBC25008BF20F001007E
:10058000704790F0000F0CF0004C08BF49024CEA95
:10059000502040EA51207F3AC2BFD2F1FF0340EA27
:1005A000C250704740F400004FF00003013A5DDC98
:1005B00012F1190FDCBF00F000407047C2F10002D9
:1005C000410021FA02F1C2F1200200FA02FC5FEAC6
:1005D000310040F1000053EA4C0308BF20EADC7010
:1005E000704792F0000F00F0004C02BF400010F482
:1005F000000F013AF9D040EA0C0093F0000F01F02F
:10060000004C02BF490011F4000F013BF9D041EA50
:100610000C018FE70CEAD15392EA0C0F18BF93EA52
:100620000C0F0AD030F0004C18BF31F0004CD8D17C
:1006300080EA010000F00040704790F0000F17BF03
:1006400090F0004F084691F0000F91F0004F14D049
:1006500092EA0C0F01D142020FD193EA0C0F03D1A1
:100660004B0218BF084608D180EA010000F00040A4
:1006700040F0FE4040F40000704740F0FE4040F47F
:10068000400070474FF0FF0C1CEAD0521EBF1CEA1E
:10069000D15392EA0C0F93EA0C0F69D0A2EB03023C
:1006A00080EA010C49024FEA402037D04FF08053D6
:1006B00043EA111143EA10130CF000408B4238BF9B
:1006C0005B0042F17D024FF4000C8B4224BF5B1AA9
:1006D00040EA0C00B3EB510F24BFA3EB510340EAF7
:1006E0005C00B3EB910F24BFA3EB910340EA9C00A5
:1006F000B3EBD10F24BFA3EBD10340EADC001B0115
:1007000018BF5FEA1C1CE0D1FD2A3FF650AF8B42B8
:1007100040EBC25008BF20F0010070470CF0004CC5
:100720004CEA50207F32C2BFD2F1FF0340EAC250F0
:10073000704740F400004FF00003013A37E792F0B1
:10074000000F00F0004C02BF400010F4000F013A0F
:10075000F9D040EA0C0093F0000F01F0004C02BF0A
:10076000490011F4000F013BF9D041EA0C0195E773
:100770000CEAD15392EA0C0F08D142027FF47DAF0C
:1007800093EA0C0F7FF470AF084676E793EA0C0FFC
:1007900004D14B023FF44CAF08466EE730F0004CFA
:1007A00018BF31F0004CCAD130F000427FF45CAF8A
:1007B00031F000437FF43CAF5FE700BF42000ED250
:1007C000B2F1FE4F0BD34FF09E03B3EB126209D48C
:1007D0004FEA002343F0004323FA02F070474FF042
:1007E0000000704712F1610F01D1420202D14FF0B7
:1007F000FF3070474FF00000704700BF000000005E
:1008000002780B78012A28BF9A4240F0D8806DE91F
:10081000044540EA0104CDE902676FF0000C4FEA9D
:1008200044721AB380EA010414F0070F6BD100F090
:10083000070420F0070004F0030521F007014FEA48
:10084000C505F0E8042314F0040FF1E804670CFA7E
:1008500005F462EA040266EA04060BD063EA0403C4
:10086000624667EA0407664604E000BFF0E8042336
:10087000F1E8046782FA4CF582EA0604A4FA8CF4E3
:100880006CBB83FA4CF583EA0705A5FA8CF595B99C
:1008900050E9022351E9026782FA4CF582EA060424
:1008A000A4FA8CF483FA4CF583EA0705A5FA8CF5D3
:1008B0002543DBD09CB92DBAB5FA85F424F00704A2
:1008C00027FA04F1DDE9026723FA04F303F0FF00DD
:1008D00001F0FF01FDE80445A0EB0100704724BAD8
:1008E000B4FA84F424F0070426FA04F1DDE902677F
:1008F00022FA04F202F0FF0001F0FF01FDE80445D6
:10090000A0EB0100704714F0030F3CD110F003047A
:1009100028D150F8082B51F8083B82FA4CF582EAAE
:100920000305A5FA8CF55DB950F8042C51F8043C88
:1009300082FA4CF582EA0305A5FA8CF5002DE8D081
:100940002DBAB5FA85F424F0070423FA04F122FA4B
:1009500004F202F0FF0001F0FF01FDE80445A0EB06
:10096000010070474FEAC40420F0030050F8082B40
:1009700021F0030151F8083B0CFA04F462EA040286
:1009800063EA0403C9E710F003041DD0A1EB0401DE
:1009900020F00300E40750F8042B06D012D28B7825
:1009A0005FFAA2F4E41A06D12BB1CB785FFAB2F465
:1009B000E41A00D133B920465DF8104B7047A2EB22
:1009C0000300704701F1040150F8042BCC0721F01B
:1009D000030151F8043B48D824D222F07F4482FA24
:1009E0004CF594EA1325A5FA8CF50AD165B951F8AE
:1009F000043B84EA0204B4EB036F0ED150F8042BDD
:100A0000EBE74FEA132355E035F07F454DD10878E9
:100A1000FDE80445C0F1000070474FEA126203F0A0
:100A2000FF0347E002EA1C4482FA4CF594EA1345BE
:100A3000A5FA8CF50AD165B951F8043B84EA0204A1
:100A4000B4EB034F0CD150F8042BEBE74FEA134300
:100A500030E015EA1C4528D10B884FEA124229E004
:100A60004FEA124203EA1C4324E002F0FF0482FA38
:100A70004CF594EA1365A5FA8CF50AD165B951F8DD
:100A8000043B84EA0204B4EB032F09D150F8042B91
:100A9000EBE74FEA13630DE015F0FF0F05D10B688C
:100AA0004FEA122223F07F4304E04FF00000FDE8FC
:100AB0000445704712BA1BBA82FA4CF482EA030466
:100AC000A4FA8CF5B5FA85F402FA04F203FA04F3F9
:100AD0004FEA1260FDE80445A0EB1360704700BFC9
:100AE0000000000000000000000000000000000006
:100AF00000000000000000000000000000000000F6
:100B000030B490F800F020F007016FF0000C10F006
:100B1000070491F820F040F048804FF000046FF097
:100B20000700D1E9002391F840F000F1080082FAB3
:100B30004CF2A4FA8CF283FA4CF3A2FA8CF34BBB7E
:100B4000D1E9022382FA4CF200F10800A4FA8CF2F7
:100B500083FA4CF3A2FA8CF3E3B9D1E9042382FAC5
:100B60004CF200F10800A4FA8CF283FA4CF3A2FADA
:100B70008CF37BB9D1E9062301F1200182FA4CF212
:100B800000F10800A4FA8CF283FA4CF3A2FA8CF379
:100B9000002BC6D0002A04BF04301A4612BAB2FA9B
:100BA00082F200EBD20030BC7047D1E9002304F0A0
:100BB0000305C4F100004FEAC50514F0040F91F8D5
:100BC00040F00CFA05F562EA05021CBF63EA050372
:100BD00062464FF00004AAE7000000000000000099
:100BE00001F0FF01102A2BDB10F0070F08D010F8DE
:100BF000013B013A8B422DD010F0070F42B3F6D1E2
:100C0000F0B441EA012141EA014122F007047FF0FA
:100C100000070023F0E80256083C85EA010586EA51
:100C2000010685FA47F5A3FA87F586FA47F6A5FA8D
:100C300087F68EB9EED1F0BC01F0FF0102F0070299
:100C400032B110F8013B013A83EA010313B1F8D144
:100C50000020704701387047002D06BF3546033825
:100C6000073815F0010F07D1013015F4807F02BF5E
:100C7000013015F4C03F0130F0BC0138704700BFAF
:100C8000844641EA000313F003036DD1403A41D397
:100C900051F8043B40F8043B51F8043B40F8043B56
:100CA00051F8043B40F8043B51F8043B40F8043B46
:100CB00051F8043B40F8043B51F8043B40F8043B36
:100CC00051F8043B40F8043B51F8043B40F8043B26
:100CD00051F8043B40F8043B51F8043B40F8043B16
:100CE00051F8043B40F8043B51F8043B40F8043B06
:100CF00051F8043B40F8043B51F8043B40F8043BF6
:100D000051F8043B40F8043B51F8043B40F8043BE5
:100D1000403ABDD2303211D351F8043B40F8043B85
:100D200051F8043B40F8043B51F8043B40F8043BC5
:100D300051F8043B40F8043B103AEDD20C3205D395
:100D400051F8043B40F8043B043AF9D2043208D08D
:100D5000D2071CBF11F8013B00F8013B01D30B88FF
:100D600003806046704700BF082A13D38B078DD0DD
:100D700010F003038AD0C3F10403D21ADB071CBFAF
:100D800011F8013B00F8013B80D331F8023B20F819
:100D9000023B7BE7043AD9D3013A11F8013B00F852
:100DA000013BF9D20B7803704B7843708B788370DA
:100DB0006046704781F0004102E000BF83F00043CD
:100DC00030B54FEA41044FEA430594EA050F08BFE6
:100DD00090EA020F1FBF54EA000C55EA020C7FEAAA
:100DE000645C7FEA655C00F0E2804FEA5454D4EB27
:100DF0005555B8BF6D420CDD2C4480EA020281EAF1
:100E0000030382EA000083EA010180EA020281EA28
:100E10000303362D88BF30BD11F0004F4FEA01317A
:100E20004FF4801C4CEA113102D0404261EB410189
:100E300013F0004F4FEA03334CEA133302D052420F
:100E400063EB430394EA050F00F0A780A4F10104CB
:100E5000D5F1200E0DDB02FA0EFC22FA05F2801805
:100E600041F1000103FA0EF2801843FA05F35941EB
:100E70000EE0A5F120050EF1200E012A03FA0EFC6A
:100E800028BF4CF0020C43FA05F3C01851EBE37194
:100E900001F0004507D54FF0000EDCF1000C7EEBB1
:100EA00000006EEB0101B1F5801F1BD3B1F5001FEF
:100EB0000CD349085FEA30004FEA3C0C04F101040E
:100EC0004FEA445212F5800F80F09A80BCF1004F37
:100ED00008BF5FEA500C50F1000041EB045141EAB9
:100EE000050130BD5FEA4C0C404141EB0101013C82
:100EF00028BFB1F5801FE9D291F0000F04BF014671
:100F00000020B1FA81F308BF2033A3F10B03B3F142
:100F100020020CDA0C3208DD02F1140CC2F10C02D2
:100F200001FA0CF021FA02F10CE002F11402D8BF30
:100F3000C2F1200C01FA02F120FA0CFCDCBF41EAFC
:100F40000C019040E41AA2BF01EB0451294330BDCB
:100F50006FEA04041F3C1CDA0C340EDC04F11404A8
:100F6000C4F1200220FA04F001FA02F340EA03007F
:100F700021FA04F345EA030130BDC4F10C04C4F1C5
:100F8000200220FA02F001FA04F340EA03002946A5
:100F900030BD21FA04F0294630BD94F0000F83F4EF
:100FA000801306BF81F480110134013D4EE77FEAD2
:100FB000645C18BF7FEA655C29D094EA050F08BF1E
:100FC00090EA020F05D054EA000C04BF19461046FF
:100FD00030BD91EA030F1EBF0021002030BD5FEA43
:100FE000545C05D14000494128BF41F0004130BD6B
:100FF00014F580043CBF01F5801130BD01F00045BF
:1010000045F0FE4141F470014FF0000030BD7FEA31
:10101000645C1ABF194610467FEA655C1CBF0B462C
:10102000024650EA013406BF52EA033591EA030F43
:1010300041F4002130BD00BF90F0000F04BF00213B
:10104000704730B54FF4806404F132044FF000056E
:101050004FF0000150E700BF90F0000F04BF0021E7
:10106000704730B54FF4806404F1320410F000454D
:1010700048BF40424FF000013EE700BF42004FEA48
:10108000E2014FEA31014FEA02701FBF12F07F43C5
:1010900093F07F4F81F06051704732F07F4208BF7C
:1010A000704793F07F4F04BF41F40021704730B583
:1010B0004FF4607401F0004521F000411CE700BFCF
:1010C00050EA010208BF704730B54FF000050AE052
:1010D00050EA010208BF704730B511F0004502D553
:1010E000404261EB41014FF4806404F132045FEA55
:1010F000915C3FF4D8AE4FF003025FEADC0C18BFFE
:1011000003325FEADC0C18BF033202EBDC02C2F1EF
:10111000200300FA03FC20FA02F001FA03FE40EA81
:101120000E0021FA02F11444BDE600BF70B54FF085
:10113000FF0C4CF4E06C1CEA11541DBF1CEA135563
:1011400094EA0C0F95EA0C0F00F0DEF82C4481EACB
:10115000030621EA4C5123EA4C5350EA013518BFEB
:1011600052EA033541F4801143F4801338D0A0FBD8
:1011700002CE4FF00005E1FB02E506F00042E0FB85
:1011800003E54FF00006E1FB03569CF0000F18BF8B
:101190004EF0010EA4F1FF04B6F5007F64F5407433
:1011A00004D25FEA4E0E6D4146EB060642EAC621C6
:1011B00041EA55514FEAC52040EA5E504FEACE2E33
:1011C000B4F1FD0C88BFBCF5E06F1ED8BEF1004F36
:1011D00008BF5FEA500E50F1000041EB045170BDB2
:1011E00006F0004646EA010140EA020081EA0301F6
:1011F000B4EB5C04C2BFD4EB0C0541EA045170BDF2
:1012000041F480114FF0000E013C00F3AB8014F16B
:10121000360FDEBF002001F0004170BDC4F10004B4
:10122000203C35DA0C341BDC04F11404C4F1200535
:1012300000FA05F320FA04F001FA05F240EA020090
:1012400001F0004221F0004110EBD37021FA04F6C6
:1012500042EB06015EEA430E08BF20EAD37070BD80
:10126000C4F10C04C4F1200500FA04F320FA05F0DF
:1012700001FA04F240EA020001F0004110EBD370E1
:1012800041F100015EEA430E08BF20EAD37070BD51
:10129000C4F1200500FA05F24EEA020E20FA04F32A
:1012A00001FA05F243EA020321FA04F001F00041D9
:1012B00021FA04F220EA020000EBD3705EEA430E4A
:1012C00008BF20EAD37070BD94F0000F0FD101F079
:1012D0000046400041EB010111F4801F08BF013CB2
:1012E000F7D041EA060195F0000F18BF704703F0F0
:1012F0000046520043EB030313F4801F08BF013D77
:10130000F7D043EA0603704794EA0C0F0CEA135532
:1013100018BF95EA0C0F0CD050EA410618BF52EAEC
:101320004306D1D181EA030101F000414FF00000F2
:1013300070BD50EA410606BF1046194652EA430600
:1013400019D094EA0C0F02D150EA013613D195EA74
:101350000C0F05D152EA03361CBF104619460AD1BC
:1013600081EA030101F0004141F0FE4141F47001C6
:101370004FF0000070BD41F0FE4141F4780170BDB6
:1013800070B54FF0FF0C4CF4E06C1CEA11541DBF1B
:101390001CEA135594EA0C0F95EA0C0F00F0A7F81D
:1013A000A4EB050481EA030E52EA03354FEA01314A
:1013B00000F088804FEA03334FF0805545EA13135D
:1013C00043EA12634FEA022245EA111545EA106525
:1013D0004FEA00260EF000419D4208BF964244F1BC
:1013E000FD0404F5407402D25B084FEA3202B61ADB
:1013F00065EB03055B084FEA32024FF480104FF4AF
:10140000002CB6EB020E75EB030E22BFB61A754622
:1014100040EA0C005B084FEA3202B6EB020E75EBB5
:10142000030E22BFB61A754640EA5C005B084FEA1D
:101430003202B6EB020E75EB030E22BFB61A7546EA
:1014400040EA9C005B084FEA3202B6EB020E75EBF5
:10145000030E22BFB61A754640EADC0055EA060EB6
:1014600018D04FEA051545EA16754FEA06164FEAF9
:10147000C30343EA52734FEAC2025FEA1C1CC0D1A5
:1014800011F4801F0BD141EA00014FF000004FF032
:10149000004CB6E711F4801F04BF01430020B4F1F3
:1014A000FD0C88BFBCF5E06F3FF6AFAEB5EB030CAB
:1014B00004BFB6EB020C5FEA500C50F1000041EBA8
:1014C000045170BD0EF0004E4EEA113114EB5C0475
:1014D000C2BFD4EB0C0541EA045170BD41F4801148
:1014E0004FF0000E013C90E645EA060E8DE60CEA50
:1014F000135594EA0C0F08BF95EA0C0F3FF43BAF6D
:1015000094EA0C0F0AD150EA01347FF434AF95EA23
:101510000C0F7FF425AF104619462CE795EA0C0F07
:1015200006D152EA03353FF4FDAE1046194622E7D4
:1015300050EA410618BF52EA43067FF4C5AE50EAAE
:1015400041047FF40DAF52EA43057FF4EBAE12E79E
:101550004FF0FF3C06E000BF4FF0010C02E000BF7F
:101560004FF0010C4DF804CD4FEA410C7FEA6C5C62
:101570004FEA430C18BF7FEA6C5C1BD001B050EA05
:10158000410C0CBF52EA430C91EA030F02BF90EAF0
:10159000020F0020704710F1000F91EA030F58BFAF
:1015A000994208BF90422CBFD8176FEAE37040F011
:1015B000010070474FEA410C7FEA6C5C02D150EAAF
:1015C000013C07D14FEA430C7FEA6C5CD6D152EA6A
:1015D000033CD3D05DF8040B704700BF844610462F
:1015E00062468C461946634600E000BF01B5FFF72E
:1015F000B7FF002848BF10F1000F01BD4DF808EDFE
:10160000FFF7F4FF0CBF012000205DF808FB00BFCE
:101610004DF808EDFFF7EAFF34BF012000205DF828
:1016200008FB00BF4DF808EDFFF7E0FF94BF012075
:1016300000205DF808FB00BF4DF808EDFFF7CEFF76
:1016400094BF012000205DF808FB00BF4DF808EDB5
:10165000FFF7C4FF34BF012000205DF808FB00BF86
:101660004FEA410C7FEA6C5C02D150EA013C0AD19E
:101670004FEA430C7FEA6C5C02D152EA033C02D190
:101680004FF0000070474FF0010070474FEA4102F1
:1016900012F5001215D211D56FF47873B3EB6252C4
:1016A00012D94FEAC12343F0004343EA505311F0EB
:1016B000004F23FA02F018BF404270474FF000007D
:1016C000704750EA013005D111F0004008BF6FF0BB
:1016D000004070474FF00000704700BF0348044BC4
:1016E000834202D0034B03B118477047D40700244C
:1016F000D4070024000000000548064B1B1AD90F30
:1017000001EBA301491002D0034B03B11847704706
:10171000D4070024D40700240000000010B5064CB4
:10172000237843B9FFF7DAFF044B13B10448AFF352
:1017300000800123237010BDD407002400000000A6
:1017400048D3000808B5054B1BB105490548AFF360
:101750000080BDE80840FFF7CFBF00BF00000000D9
:10176000D807002448D3000830B58BB00024059476
:101770000694079408940994284BD3F8E02042F08B
:101780008002C3F8E020D3F8E02002F0800200924B
:10179000009AD3F8E02042F00102C3F8E020D3F829
:1017A000E02002F001020192019AD3F8E02042F019
:1017B0000802C3F8E020D3F8E02002F00802029209
:1017C000029AD3F8E02042F00402C3F8E020D3F8F4
:1017D000E02002F004020392039AD3F8E02042F0E2
:1017E0000202C3F8E020D3F8E03003F002030493D0
:1017F000049B0B4D22464FF40071284600F07CFDFF
:101800004FF400730593012306930794089405A9E8
:10181000284600F063FC0BB030BD00BF0044025806
:10182000000C025810B584B0002400940194029476
:10183000039400F009FC01238DF800308DF801407D
:1018400001941F228DF8082087228DF809208DF839
:101850000A408DF80B408DF80C308DF80D308DF866
:101860000E408DF80F40684600F00CFC042000F09C
:10187000F9FB04B010BD72B6FEE7000000B59DB0E4
:101880004C22002109A805F06BFE2022002101A8AE
:1018900005F066FE022001F0ADFB00230093204B13
:1018A0009A6922F440429A619B6903F44043009391
:1018B000009B1B4B9B6913F4005FFAD00123099333
:1018C0004FF480320A9202221292139214930F2143
:1018D00015911693179218930C23199300231A93BA
:1018E0004FF4A0531B9309A801F0B6FBA0B93F2306
:1018F0000193032102910023039304934023059352
:1019000006934FF480620792089301A801F0A8FFA4
:1019100020B91DB05DF804FBFFF7ADFFFFF7ABFF8B
:101920000048025800B583B0FFF77CFF00F0A8FA2A
:10193000FFF7A4FF4FF40041154804F0F1F8FFF75A
:1019400013FF00F029F805F03DFA00F0F1F90F213E
:10195000104804F027F900230093ADF8043004F098
:101960009DF90B4C0121204600F0CCFC642000F0D6
:10197000C7FA0221204600F0C5FC642000F0C0FA3E
:101980000421204600F0BEFC642000F0B9FAE6E72E
:101990000000025860D3000808B51548154B0360D5
:1019A0004FF480034360002383600722C2604FF03E
:1019B000007202614FF0807242614FF0806282617A
:1019C000C361036243628362C3624FF08042426339
:1019D0008363C363036443648364C36403654365CF
:1019E000836502F0CFFE00B908BDFFF744FFFBE7B7
:1019F000F0070024003C004030B5B9B00446002197
:101A000033913491359136913791B82204A805F07D
:101A1000A7FD2268284B9A4201D039B030BD4FF45F
:101A200080520023CDE9042304A802F08DF9002898
:101A30003ED1224BD3F8E82042F40042C3F8E8201C
:101A4000D3F8E82002F400420192019AD3F8E02092
:101A500042F00402C3F8E020D3F8E02002F00402D0
:101A60000292029AD3F8E02042F00802C3F8E02084
:101A7000D3F8E03003F008030393039B4FF4406373
:101A800033930225349500243594369406233793F6
:101A900033A90B4800F022FB40233393349535944F
:101AA00036940523379333A9064800F017FBB4E7B3
:101AB000FFF7E1FEBDE700BF003C004000440258D4
:101AC00000080258000C025882B0074BD3F8F420EB
:101AD00042F00202C3F8F420D3F8F43003F002031A
:101AE0000193019B02B0704700440258FEE7FEE7F5
:101AF000FEE7FEE7FEE770477047704708B500F065
:101B0000EDF908BD08B5024800F035FF08BD00BF7B
:101B1000F42000240120704708B505F0C7FD162306
:101B200003604FF0FF3008BD08B54FF0FF31FFF7FD
:101B3000F3FFFEE770B50C461646002506E0AFF34E
:101B40000080214601F8010B01350C46B542F6DB59
:101B5000304670BD70B50C461646002504E014F8FA
:101B6000010BAFF300800135B542F8DB304670BDA4
:101B70004FF0FF3070474FF400534B600020704728
:101B8000012070470020704710B503460C4A0D49EC
:101B90000D48006840B10C4800680344521A934253
:101BA00006D8094A136010BD0748084C0460F2E7E4
:101BB00005F07CFD0C2303604FF0FF30F3E700BF1E
:101BC000000005240004000078080024F028002408
:101BD000274B1B6803F00F03062B06D8244A136813
:101BE00023F00F0343F007031360224B1A6842F0FF
:101BF00001021A6000221A6119681F4A0A401A601D
:101C00001B4B1B6813F0080F06D0194A136823F00A
:101C10000F0343F007031360164B00229A61DA6149
:101C20001A62164999621649D962164919635A63AC
:101C30009963DA6319645A64196821F48021196080
:101C40001A66D3F8D43013F4805F10D1094BD3F85F
:101C5000D42042F48052C3F8D4200B4A43F2D2017C
:101C60001160D3F8D42022F48052C3F8D4207047F6
:101C700000200052004402587FEDF6EA0002020202
:101C80000000FF018002010100400052054AD368B4
:101C900043F00203D360034B5B6813F4005FFAD098
:101CA000704700BF004802580368B3F1804F00D06E
:101CB000704782B0074BD3F8E82042F00102C3F826
:101CC000E820D3F8E83003F001030193019B02B050
:101CD000704700BF0044025800B587B0002301934D
:101CE00002930393049305930368B3F1804F02D0EA
:101CF00007B05DF804FB0C4BD3F8E02042F0010282
:101D0000C3F8E020D3F8E03003F001030093009B18
:101D100007230193022302930123059301A903489A
:101D200000F0DCF9E4E700BF00440258000002586C
:101D300000B58BB000230793089309930093019398
:101D40000293039304930593069322484FF0804235
:101D50000260436083604FF0FF32C26003618361C1
:101D600002F0B2FF30BB00230793099307A919487B
:101D700003F0C2F808BB6023009300220192022303
:101D80000293042304936946124803F017F8B8B984
:101D9000042269460F4803F011F8A0B908226946E9
:101DA0000C4803F00BF888B90A48FFF795FF0BB011
:101DB0005DF804FBFFF75FFDD5E7FFF75CFDDAE7B1
:101DC000FFF759FDE4E7FFF756FDE7E7FFF753FD9F
:101DD000EAE700BF7C080024DFF838D0FFF756FFA1
:101DE000FFF7F6FE0C480D490D4A002302E0D458D7
:101DF000C4500433C4188C42F9D30A4A0A4C002355
:101E000001E013600432A242FBD305F055FCFFF75A
:101E100089FD70470000052400000024D407002439
:101E2000FCD70008D4070024EC280024FEE70000BB
:101E3000104B1B780BB90120704710B504464FF4C6
:101E40007A70B0FBF3F30C4A1068B0FBF3F000F0CB
:101E5000E7F868B90F2C01D901200AE000222146D9
:101E60004FF0FF3000F0C4F8044B1C60002000E08D
:101E7000012010BD08000024040000240C000024F0
:101E800010B5032000F0A2F801F0D8FB0F498B69D0
:101E9000C3F303230E4AD35C03F01F03D8408B69BE
:101EA00003F00F03D35C03F01F0320FA03F3094A86
:101EB0001360094B18600F20FFF7BAFF10B101241F
:101EC000204610BD0446FFF7FFFDF9E70044025825
:101ED00098D500080000002404000024034B1B7860
:101EE000034A11680B441360704700BF08000024C8
:101EF000C8080024014B1868704700BFC8080024B8
:101F000038B50446FFF7F6FF0546B4F1FF3F02D0AF
:101F1000044B1B781C44FFF7EDFF401BA042FAD393
:101F200038BD00BF08000024002807DB00F01F02B6
:101F3000400901239340024A42F82030704700BF15
:101F400000E100E0002804DB0901C9B2044B195488
:101F5000704700F00F000901C9B2024B19547047D5
:101F600000E400E014ED00E000B500F00700C0F16F
:101F7000070CBCF1040F28BF4FF0040C031D062B07
:101F80000FD9C31E4FF0FF3E0EFA0CF021EA0001FC
:101F900099400EFA03FE22EA0E0241EA02005DF8C1
:101FA00004FB0023EEE70000BFF34F8F0549CA682A
:101FB00002F4E062044B1343CB60BFF34F8F00BFCA
:101FC000FDE700BF00ED00E00400FA050649CB681C
:101FD00023F4E0631B041B0C000200F4E0600343E5
:101FE000024A1A43CA60704700ED00E00000FA059B
:101FF00010B50446054BD868C0F30220FFF7B4FFC4
:1020000001462046FFF79EFF10BD00BF00ED00E037
:1020100008B5FFF789FF08BD08B5FFF7C5FF000049
:102020000138B0F1807F0BD24FF0E0235861054AB0
:10203000F02182F823100020986107221A6170476E
:102040000120704700ED00E0BFF35F8F044B5A6A38
:1020500022F480325A620022C3F89420704700BFF5
:1020600000ED00E040F00100054BC3F894005A6A0F
:1020700042F480325A62BFF34F8FBFF36F8F7047C5
:1020800000ED00E04378144AC2F89830D2F8A0304E
:1020900023F00103C2F8A0304368C2F89C30017BF2
:1020A000C37A1B0643EA0173817A43EAC143417B49
:1020B00043EA8143817B43EA4143C17B43EA0143D5
:1020C000417A43EA0123017A43EA410301780B4351
:1020D000C2F8A030704700BF00ED00E070B582B0DC
:1020E00000236EE085685E000324B44025EA040501
:1020F000CC68B4402C438460456825EA0C054C68E4
:10210000C4F300149C402C4344606DE0DD080835A6
:1021100050F8254003F0070C4FEA8C0C4FF00F0EDF
:102120000EFA0CFE24EA0E0E0C6904FA0CF444EAD2
:102130000E0440F825406FE0092400E0002404FA72
:102140000EF42C430CF1020C684D45F82C404FF076
:10215000B0442568D44325EA0206D1F804C01CF433
:10216000801F01D042EA05064FF0B0452E606D6831
:1021700004EA0506D1F804C01CF4001F01D042EAAD
:1021800005064FF0B0456E60D5F8845004EA0506A8
:10219000D1F804C01CF4003F01D042EA05064FF01C
:1021A000B045C5F88460D5F880502C404E6816F4D0
:1021B000803F01D042EA05044FF0B042C2F88040AF
:1021C00001330A6832FA03F400F08D804FF0010CFD
:1021D0000CFA03FC1CEA0202F2D04C6804F003047F
:1021E000013C012C7FF67EAF4C6804F00304032C05
:1021F0000CD0C4685D004FF0030C0CFA05FC24EA17
:102200000C0C8C68AC4044EA0C04C4604C6804F0CC
:102210000304022C3FF47AAF04684FEA430E4FF0F8
:10222000030C0CFA0EFC24EA0C0C4C6804F00304BA
:1022300004FA0EF444EA0C0404604C6814F4403FC1
:10224000BED02B4CD4F8F45045F00205C4F8F4503D
:10225000D4F8F44004F002040194019C4FEA930C7A
:102260000CF10205214C54F8255003F0030E4FEAFF
:102270008E0E0F2404FA0EF425EA04051D4CA0422C
:102280003FF45CAF04F58064A0421ED004F5806486
:10229000A0421CD004F58064A0421AD004F58064EA
:1022A000A04218D004F58064A04216D004F58064E2
:1022B000A04214D004F58064A04212D004F500645A
:1022C000A0423FF439AF0A2439E7012437E702245A
:1022D00035E7032433E7042431E705242FE70624F8
:1022E0002DE707242BE702B070BD00BF00040058A3
:1022F00000440258000002580AB181617047090485
:1023000081617047436901EA030221EA030141EA5E
:102310000241816170472DE9F04383B0D0F800801D
:1023200001EBC10300EB83039A6A5B6A9A4254D8BB
:1023300007460C469B1A01EBC10200EB8202D269F0
:102340009A4200D31A4602F103094FEA990915E0AF
:1023500006F103094FEA9909BB7904EBC40507EBC1
:102360008505296A0093B3B2E2B2404603F054F9FE
:102370002B6A33442B62AB6A3344AB6208EB4413E1
:1023800003F510639B699BB24B4512D304EBC40366
:1023900007EB83039A6A5B6A9A420AD24BB19B1A93
:1023A00004EBC40207EB8202D6699E42D0D31E46DC
:1023B000CEE704EBC40307EB83077A6ABB6A9A4251
:1023C0000FD804F00F040122A240D8F8343823EAD1
:1023D0000203C8F83438002000E0012003B0BDE853
:1023E000F0830020FAE730B583B000287AD00446A5
:1023F00090F89534ABB1032384F89534206802F04B
:10240000C3FE237C8DF80030231D0ECB206802F024
:10241000F1FD58B1022384F895340125284603B014
:1024200030BD80F8943404F0D7FDE4E70021206843
:1024300003F009FB024608B9034617E0022384F8BB
:1024400095340125EAE703EBC30104EB8101012088
:1024500048750B75CB8500200876C861086203EBD0
:10246000C30104EB810148620133DBB22079984259
:10247000E9D816E002EBC20304EB8303002183F8E2
:10248000551283F8542283F85812C3F85C12C3F82B
:10249000601202EBC20304EB8303C3F8641201323F
:1024A000D2B29042E6D8237C8DF80030231D0ECBAB
:1024B000206802F0BFFE054658B90023637401236B
:1024C00084F89534237B012B08D0206803F07AFA36
:1024D000A4E7022384F8953401259FE7204600F005
:1024E00073FDF2E7012599E7036890F89424012A27
:1024F0001AD010B50446012280F89424DA6812F04C
:10250000400F02D0427B012A09D0206802F036FE3B
:10251000206803F049FA002084F8940410BD9A6BF7
:1025200042F480329A63F0E70220704770B50446A7
:102530000D460068066C00EB411303F530639A68A2
:10254000A179012911D038498E4256D03DB905EB09
:10255000C50304EB8303D3F86432002B5ED0E9B2E9
:10256000204604F07BFD002070BD12F0080F09D05A
:102570002E498E42F7D912F4004FF4D04FF40042A6
:102580009A60F0E712F0200F02D020229A60EAE76A
:1025900012F0280FE7D125498E4206D912F4004FD8
:1025A00003D04FF400429A60DDE705EBC50204EB6F
:1025B0008202D2F874121B69C3F31203CB1AC2F859
:1025C00068327DB905EBC50204EB8202D2F86422C1
:1025D0006AB105EBC50204EB8202D2F8601219441D
:1025E000C2F86012E9B2204604F038FDBBE704F2FD
:1025F0009C42012103F066FAF4E712F4004F03D085
:102600004FF400429A60AEE712F0200F01D0202272
:102610009A60E9B2204604F021FDA4E704F29C424E
:10262000002103F04FFA9AE70A31544F0A30544F11
:1026300038B5044603681D6C03EB4113D3F8081B3F
:102640000E4A954207D903F5306311F4004F02D0CA
:102650004FF400429A60204604F0F8FC074B9D427C
:1026600002D9A379012B01D0002038BD04F29C428D
:102670000121206803F026FAF6E700BF0A30544F24
:1026800090F89434012B0CD010B50446012380F847
:1026900094344174006803F077F9002084F89404BE
:1026A00010BD0220704738B505468C4611F0800FEA
:1026B0002BD101F00F0E0EEBCE04A40004F5147420
:1026C0000444211D0EEBCE0E00EB8E0E00208EF882
:1026D00055020CF00F0C81F800C0C2F30A028A60A8
:1026E0000B714A780AB1A1F81AC0022B1CD095F8D8
:1026F0009434012B1BD0012385F89434286802F010
:1027000071FE002085F8940438BD01F00F0000EB45
:10271000C001890010312944043100EBC00005EBF1
:10272000800001244475D4E700234B71DFE70220C9
:10273000EAE710B504460A4611F0800F20D101F0F7
:102740000F0000EBC0039B0003F514732344191D15
:1027500000EBC00004EB8000002380F8553202F04B
:102760000F020A7094F89434012B18D0012384F8D6
:102770009434206802F082FE002084F8940410BD96
:1027800001F00F0000EBC0039B0010332344191D20
:1027900000EBC00004EB800001234375DFE702205B
:1027A000EDE710B5144601F00F0C0CEBCC018900DD
:1027B00001F51471014404310CEBCC0E00EB8E0ECC
:1027C000CEF86022CEF864320023CEF868328EF85C
:1027D00055328EF854C28279012A04D0006802F082
:1027E00033FF002010BDCEF87042F7E701F00F0173
:1027F00001EBC10100EB8100D0F86802704710B511
:10280000144601F00F0C0CEBCC018900103101448F
:1028100004310CEBCC0E00EB8E0ECEF82020CEF85F
:1028200024300023CEF8283001238EF815308EF89E
:1028300014C082799A4204D0006802F005FF00209B
:1028400010BDCEF83040F7E738B501F00F0502793A
:10285000AA4238D304460B4611F0800F1FD101EB7A
:10286000C101890001F514710144043103EBC30374
:1028700000EB8303002283F8552201238B700D7037
:1028800094F89434012B20D0012384F894342068E8
:1028900003F01FF885B1002084F8940438BD05EBDF
:1028A000C501890010310144043105EBC50300EB7B
:1028B000830301225A75E0E704F29C42A179206863
:1028C00003F000F9E7E70120E8E70220E6E701F07E
:1028D0000F0302799A4230D310B5044611F0800FED
:1028E0001ED103EBC301890001F5147101440431C9
:1028F00003EBC30200EB8202002082F855020022A3
:102900008A700B7094F89434012B18D0012384F84A
:102910009434206803F00AF8002084F8940410BD71
:1029200003EBC301890010310144043103EBC302FE
:1029300000EB820201205075E1E701207047022080
:10294000EDE708B511F0800F0CD101F00F0101EB9C
:10295000C101890001F5147101440431006802F0DD
:10296000FDFD08BD01F00F0101EBC101890010312F
:1029700001440431F2E72DE9F04F83B004460568C5
:10298000284603F05CF810B103B0BDE8F08F0646AE
:10299000206803F025F80028F6D005F50067BB682D
:1029A000C3F30D23C4F8D434206803F019F810F0F1
:1029B000020F04D02268536903F0020353612068B8
:1029C00003F00EF810F0100F16D02268936923F070
:1029D00010039361D5F8208008F00F0908F4F01374
:1029E000B3F5802F6AD0B3F5402F00F08D802268B8
:1029F000936943F010039361206802F0F1FF10F433
:102A0000002F40F09380206802F0EAFF10F4802F3E
:102A100040F0FC80206802F0E3FF0028C0F27D81D6
:102A2000206802F0DDFF10F4006F09D0BB6813F0DE
:102A3000010F40F08A812268536903F400635361F7
:102A4000206802F0CDFF10F0006F15D022685369A6
:102A500003F00063536194F8CC34002B40F079818B
:102A6000012184F8CC1423685B6DC3F38303C4F89D
:102A7000D034204600F0BCFA206802F0B1FF10F418
:102A8000805F40F06A81206802F0AAFF10F4005FC6
:102A900040F0B681206802F0A3FF10F0080F40F06C
:102AA000C781206802F09CFF10F0800F00F0DA81EF
:102AB000AB6923F08003AB610126C3E147F6F073F5
:102AC00018EA030F93D04FEA181A4FEAC90301938B
:102AD00009EBC90B04EB8B0BC8F30A12DBF860128D
:102AE000284602F0D3FEDBF86032CAF30A0A5344E8
:102AF000CBF86032DBF86832019A4A4404EB820278
:102B00005344C2F8683272E7082204F29C41284616
:102B100002F0BCFE09EBC90304EB8303D3F868227F
:102B2000C8F30A184244C3F8682260E7206802F03C
:102B30005BFF8046B14635E005EB49130122C3F83F
:102B4000082B49462046FFF7F1FC3CE005EB491312
:102B50000822C3F8082B49462046FFF769FD35E0F7
:102B600009EBC90304EB830393F85732012B41D0DF
:102B700005EB49130222C3F8082B1AF0200F04D0EA
:102B800005EB49132022C3F8082B1AF4005F05D087
:102B900005EB49134FF40052C3F8082B09F1010962
:102BA0004FEA5808B8F1000F3FF42DAF18F0010FAD
:102BB000F4D05FFA89FB5946206802F025FF82466F
:102BC00010F0010FB8D11AF0080FBFD11AF0100F92
:102BD00004D005EB49131022C3F8082B1AF0020F9A
:102BE000CBD06B6913F0800FBAD07B6843F480635D
:102BF0007B60B5E709EBC90304EB8303002283F88C
:102C000057225946204604F079FAB1E7206802F0CD
:102C1000F3FE8046B14625E05946204604F02AFAE4
:102C20001AF0080F04D005EB49130822C3F808294D
:102C30001AF0100F04D005EB49131022C3F808292D
:102C40001AF0400F04D005EB49134022C3F80829BD
:102C50001AF0020F40D11AF0800F59D109F1010981
:102C60004FEA5808B8F1000F3FF4D4AE18F0010F46
:102C7000F4D05FFA89FB5946206802F0CEFE824606
:102C800010F0010FCCD009F00F02012101FA02F27D
:102C90007B6B23EA02037B6305EB4913C3F8081936
:102CA000A3798B42B8D109EBC90304EB83031A6AF9
:102CB000D9690A441A62B9F1000FADD109EBC90311
:102CC00004EB83035B6A002BA6D104F29C42012132
:102CD000206802F0F7FE9FE74946284602F05AFABC
:102CE00009EBC90304EB8303DB7D012B05D005EB66
:102CF00049130222C3F80829ADE709EBC90304EB25
:102D000083030022DA755946204604F0FDF9EEE708
:102D100049462046FFF7FFFAA0E77B6823F001034E
:102D20007B6094F8CC34012B08D0204604F0E0F905
:102D30002268536903F00043536171E6002184F86F
:102D4000CC14204600F054F9F2E7204604F0B8F91C
:102D500071E6204604F0B4F98EE67B6823F00103A7
:102D60007B601021206802F015FA1AE005EB46138B
:102D70004FF67F31C3F80819D3F8002922F4001266
:102D8000C3F80029C3F8081BD3F8002B22F4001263
:102D9000C3F8002BD3F8002B42F00062C3F8002BDD
:102DA00001362379B342E1D8FB6943F00113FB619B
:102DB000E37BDBB1D7F8843043F00B03C7F88430F2
:102DC0007B6C43F00B037B64D5F8003823F4FE637F
:102DD000C5F8003804F29C42A179206802F072FE26
:102DE0002268536903F4805353614CE67A6942F2D6
:102DF0002B0313437B613B6943F00B033B61E3E728
:102E0000206802F051FE206802F0DAFAE0712668CC
:102E100000F070FE0146E279304602F03DF92046AE
:102E200004F039F92268536903F40053536131E621
:102E3000204604F02AF92268536903F0080353611D
:102E40002FE601362379B3420CD906EBC60304EB17
:102E5000830393F85732012BF3D1F1B22046FFF7E9
:102E600070FDEEE7206802F0BBFD10F4801F25D155
:102E7000206802F0B5FD10F4001F58D0012326E0B1
:102E800001362379B3421BD905EB4613D3F8002949
:102E900006EBC60304EB83031B7E012BF0D1002A53
:102EA000EEDA06EBC60304EB83030122DA7566F063
:102EB0007F01C9B22046FFF744FDE1E70126E0E7C4
:102EC0002268536903F480135361D1E701332279F7
:102ED0009A4227D905EB4312D2F8001B03EBC30239
:102EE00004EB820292F85822012AEFD10029EDDA90
:102EF000D4F8D42482EA114212F0010FE6D103EB98
:102F0000C30204EB8202012182F85712AA6942F03F
:102F10008002AA616A6912F0800FD7D17B6843F4FE
:102F200000737B602268536903F4001353612068C7
:102F300002F056FD10F0804F10D1206802F050FDD5
:102F400010F0040F3FF420AD23685D6815F0040F06
:102F50000DD1226853682B43536015E5204604F0D9
:102F6000D9F82268536903F080435361E5E72046AE
:102F700004F0D6F8EDE710B40468606A29B940EAB5
:102F80000240A062002010BC70478C46A36A00EB90
:102F90001340002308E003F1400104EB810149687C
:102FA00000EB11400133DBB20CF1FF318B42F2D365
:102FB00040EA02400CF13F0104EB81046060E1E76C
:102FC0000368596200207047034602680121C0F877
:102FD000D814002083F8CC04936943F00063936114
:102FE000516D024B0B435365704700BF0300001047
:102FF00070470000134BDB6813F0040F07D1114B2F
:10300000DB6803F0070383421AD00120704710B534
:103010000C4AD36823F007030343D360FEF76AFF2B
:103020000446084B5B6813F4005F07D1FEF762FFAC
:10303000001BB0F57A7FF4D9012000E0002010BD1C
:103040000020704700480258024AD36843F080735A
:10305000D360704700480258002800F0D58238B588
:103060000446036813F0010F25D0A04A136903F04A
:103070003803926A102B15D0182B0FD06368B3F564
:10308000803F3FD0002B53D1984B1A6822F48032F6
:103090001A601A6822F480221A6038E002F00302F3
:1030A000022AEBD1914B1B6813F4003F03D06368F5
:1030B000002B00F0AB82236813F0020F00F0888031
:1030C0008A4A1369926A13F038035AD0182B55D0E4
:1030D000E368002B00F0A98084490A6822F01902F5
:1030E00013430B60FEF706FF0546804B1B6813F089
:1030F000040F40F09180FEF7FDFE401B0228F4D93A
:1031000003208AE2794A136843F4803313606368CA
:103110002BB3FEF7EFFE0546744B1B6813F4003F1C
:10312000C9D1FEF7E7FE401B6428F5D9032074E2FD
:10313000B3F5A02F09D06D4B1A6822F480321A60C3
:103140001A6822F480221A60E1E7684B1A6842F498
:1031500080221A601A6842F480321A60D7E7FEF7BC
:10316000C9FE0546614B1B6813F4003FA3D0FEF770
:10317000C1FE401B6428F5D903204EE212F0030F74
:10318000A6D15A4B1B6813F0040F03D0E368002B41
:1031900000F03E82554A136823F01903E1680B439F
:1031A0001360FEF7A7FE0546504B1B6813F0040F93
:1031B00006D1FEF79FFE401B0228F5D903202CE222
:1031C0004A4A536823F0FE43216943EA016353608E
:1031D000236813F0100F51D0444A136903F03803E9
:1031E000926A082B39D0182B33D0E369002B69D0B1
:1031F0003E4A136843F080031360FEF77BFE0546EA
:103200003A4B1B6813F4807F53D1FEF773FE401BCB
:103210000228F5D9032000E2344A536823F0FE4324
:10322000216943EA01635360D2E7304A136823F00F
:1032300001031360FEF75EFE05462C4B1B6813F07E
:10324000040FC5D0FEF756FE401B0228F5D9032017
:10325000E3E102F00302012AC7D1244B1B6813F4F7
:10326000807F03D0E369802B40F0D4811F4AD3686C
:1032700023F07C53216A43EA0163D360236813F08F
:10328000080F49D06369002B32D0184A536F43F0BE
:1032900001035367FEF72EFE0546144B5B6F13F0D8
:1032A000020F39D1FEF726FE401B0228F5D9032074
:1032B000B3E10E4AD36823F07C53216A43EA0163E9
:1032C000D360DBE7094A136823F080031360FEF73D
:1032D00011FE0546054B1B6813F4807FCED0FEF728
:1032E00009FE401B0228F5D9032096E1004402584C
:1032F0009D4A536F23F001035367FEF7FBFD05461C
:10330000994B5B6F13F0020F06D0FEF7F3FD401BE5
:103310000228F5D9032080E1236813F0200F29D07B
:10332000A3699BB1904A136843F480531360FEF77E
:10333000E1FD05468C4B1B6813F4005F1AD1FEF7C4
:10334000D9FD401B0228F5D9032066E1864A13689F
:1033500023F480531360FEF7CDFD0546824B1B68B6
:1033600013F4005F06D0FEF7C5FD401B0228F5D917
:10337000032052E1236813F0040F21D1636A002B6C
:1033800000F04A81784A126902F03802182A00F0E7
:10339000F180022B75D0744A136823F08073136098
:1033A000FEF7A8FD0446704B1B6813F0007F00F089
:1033B000D880FEF79FFD001B0228F4D903202CE1E2
:1033C0006A4A136843F480731360FEF793FD054661
:1033D000664B1B6813F4807F06D1FEF78BFD401B04
:1033E0006428F5D9032018E1A368012B0AD00BBB90
:1033F0005D4B1A6F22F001021A671A6F22F0040265
:103400001A6704E0584A136F43F001031367A36877
:1034100033B3FEF76FFD0546534B1B6F13F0020FDE
:10342000ACD1FEF767FD401B41F288339842F3D9D7
:103430000320F2E0052B09D04B4B1A6F22F001025A
:103440001A671A6F22F004021A67E0E7464B1A6FF8
:1034500042F004021A671A6F42F001021A67D6E7B7
:10346000FEF748FD0546404B1B6F13F0020F85D059
:10347000FEF740FD401B41F288339842F3D9032008
:10348000CBE0394A136823F080731360FEF732FDF6
:103490000546354B1B6813F0007F06D0FEF72AFD6A
:1034A000401B0228F5D90320B7E02F4B996A304A18
:1034B0000A40A16AE06A41EA00110A439A62226B5B
:1034C000013AC2F30802616B0139490289B20A4329
:1034D000A16B0139090401F4FE010A43E16B0139D2
:1034E000090601F0FE410A431A63DA6A22F001027A
:1034F000DA625A6B6FF3CF02A16C42EAC1025A63DF
:10350000DA6A22F00C02216C0A43DA62DA6A22F0EB
:103510000202616C0A43DA62DA6A42F48032DA62E9
:10352000DA6A42F40032DA62DA6A42F48022DA625B
:10353000DA6A42F00102DA621A6842F080721A60B6
:10354000FEF7D8FC0446084B1B6813F0007F06D139
:10355000FEF7D0FC001B0228F5D903205DE0002017
:103560005BE0002059E000BF0044025800480258C8
:103570000CFCFFFF30498A6A086B012B4ED002F029
:103580000303A16A8B424BD1C2F30512E36A9A424C
:1035900048D1C0F30802236B013B9A4244D1C0F3E7
:1035A0004622636B013B9A4240D1C0F30642A36BB3
:1035B000013B9A423CD1C0F30660E36B013B984269
:1035C00038D11D4B5B6BC3F3CC03A26C9A4201D183
:1035D000002022E0184AD36A23F00103D362FEF7E9
:1035E00089FC0546FEF786FCA842FBD0124A536BC5
:1035F0006FF3CF03A16C43EAC1035363D36A43F073
:103600000103D362002008E001207047012004E09C
:10361000012002E0012000E0002038BD0120FCE78D
:103620000120FAE70120F8E70120F6E70120F4E79E
:103630000120F2E70120F0E700440258F8B5814B81
:103640001B6903F03803102B00F0F480182B0FD007
:10365000002B40F0F2807B4B1B6813F0200F00F032
:10366000EE80784B1B68C3F3C103774CDC40E2E08B
:10367000744B9D6A05F003059C6AC4F30514D86A6F
:1036800000F001005B6BC3F3CC0303FB00F0FCF71D
:10369000EDFE0646002C00F0CE80012D56D0022D06
:1036A00000F08480002D40F0A380664B1B6813F06F
:1036B000200F29D0634F3B68C3F3C1036248D84051
:1036C000FCF7D4FE05462046FCF7D0FE014628460E
:1036D000FCF7D8FF0446386BC0F30800FCF7C6FEC1
:1036E00005464FF064513046FCF718FF0146284666
:1036F000FCF70CFE4FF07E51FCF708FE0146204619
:10370000FCF70CFF044642E02046FCF7AFFE014602
:103710004E48FCF7B7FF04464A4B186BC0F308004D
:10372000FCF7A4FE05464FF064513046FCF7F6FE68
:1037300001462846FCF7EAFD4FF07E51FCF7E6FD16
:1037400001462046FCF7EAFE044620E02046FCF74E
:103750008DFE01463E48FCF795FF0446394B186B39
:10376000C0F30800FCF782FE05464FF06451304676
:10377000FCF7D4FE01462846FCF7C8FD4FF07E5109
:10378000FCF7C4FD01462046FCF7C8FE04462D4B5D
:103790001B6BC3F34623581CFCF768FE014620460A
:1037A000FCF770FFFDF70AF8044644E02046FCF7FA
:1037B0005DFE01462748FCF765FF0446214B186B68
:1037C000C0F30800FCF752FE05464FF06451304646
:1037D000FCF7A4FE01462846FCF798FD4FF07E5109
:1037E000FCF794FD01462046FCF798FE0446CEE720
:1037F0002046FCF73BFE01461548FCF743FF044614
:10380000104B186BC0F30800FCF730FE05464FF074
:1038100064513046FCF782FE01462846FCF776FDEF
:103820004FF07E51FCF772FD01462046FCF776FE14
:103830000446ACE7084C2046F8BD084CFBE7024CB8
:10384000F9E700BF004402580090D0030024744CF4
:103850000024744A0024744B0024F40000093D0045
:10386000002800F0328170B50D4604469B4B1B6862
:1038700003F00F038B420BD2984A136823F00F0317
:103880000B431360136803F00F038B4240F01F815A
:10389000236813F0040F0CD02269914B9B6903F04D
:1038A00070039A4205D98E498B6923F070031A433D
:1038B0008A61236813F0080F0CD06269884BDB69BA
:1038C00003F070039A4205D98549CB6923F0700350
:1038D0001A43CA61236813F0100F0CD0A269804B01
:1038E000DB6903F4E0639A4205D97D49CB6923F48F
:1038F000E0631A43CA61236813F0200F0CD0E26919
:10390000774B1B6A03F070039A4205D974490B6A1E
:1039100023F070031A430A62236813F0020F0CD0DD
:10392000E2686F4B9B6903F00F039A4205D96C491B
:103930008B6923F00F031A438A61236813F0010F88
:1039400041D0674A936923F47063A1680B43936184
:103950006368022B0AD0032B27D0012B2CD0604A9E
:10396000126812F0040F06D10120ADE0126812F4C3
:10397000003F00F0AE805A490A6922F00702134363
:103980000B61FEF7B7FA0646554B1B6903F0380387
:103990006268B3EBC20F16D0FEF7ACFA801B41F29F
:1039A00088339842F0D903208EE04D4A126812F015
:1039B000007FE0D1012087E0494A126812F4807F3D
:1039C000D9D1012080E0236813F0020F0CD0E26807
:1039D000434B9B6903F00F039A4205D240498B6920
:1039E00023F00F031A438A613C4B1B6803F00F035B
:1039F000AB420AD9394A136823F00F032B431360F3
:103A0000136803F00F03AB4265D1236813F0040F72
:103A10000CD02269324B9B6903F070039A4205D2A5
:103A20002F498B6923F070031A438A61236813F0CE
:103A3000080F0CD062692A4BDB6903F070039A42CD
:103A400005D22749CB6923F070031A43CA61236862
:103A500013F0100F0CD0A269214BDB6903F4E06373
:103A60009A4205D21E49CB6923F4E0631A43CA6126
:103A7000236813F0200F0CD0E269194B1B6A03F086
:103A800070039A4205D216490B6A23F070031A4359
:103A90000A62FFF7D3FD12498B69C3F30323114A6E
:103AA000D35C03F01F03D8408B6903F00F03D35C92
:103AB00003F01F0320FA03F30B4A13600B4B18604B
:103AC0000B4B1868FEF7B4F970BD01207047012058
:103AD000FAE70120F8E70120F6E700BF00200052D6
:103AE0000044025898D50008000000240400002477
:103AF0000C00002408B5FFF7A1FD0B4A9369C3F33E
:103B000003230A49CB5C03F01F0320FA03F39269F5
:103B100002F00F02885C00F01F0023FA00F0044A54
:103B20001060044A136008BD0044025898D500088C
:103B30000000002404000024404B9B6A03F00303B0
:103B4000032B79D070B505460E463C4A136823F026
:103B500080631360FEF7CEF90446384B1B6813F000
:103B6000006F06D0FEF7C6F9031B022BF5D9032020
:103B700070BD324B9A6A22F47C32296842EA0132E3
:103B80009A626A68013AC2F30802A96801394902D7
:103B900089B20A43E9680139090401F4FE010A43C4
:103BA00029690139090601F0FE410A439A63DA6A7C
:103BB00022F0C00269690A43DA62DA6A22F020025E
:103BC000A9690A43DA62DA6A22F01002DA62DA6B71
:103BD0006FF3CF02E96942EAC102DA63DA6A42F0BE
:103BE0001002DA62C6B91A46DB6A43F40023D362D4
:103BF000124A136843F080631360FEF77BF90446B2
:103C00000E4B1B6813F0006F14D1FEF773F9001B05
:103C10000228F5D90320ABE7012E05D0074AD36A65
:103C200043F40013D362E3E7044AD36A43F48013F6
:103C3000D362DDE700209BE7012070470044025873
:103C4000404B9B6A03F00303032B79D070B5054604
:103C50000E463C4A136823F080531360FEF74AF97E
:103C60000446384B1B6813F0005F06D0FEF742F99C
:103C7000031B022BF5D9032070BD324B9A6A22F048
:103C80007C72296842EA01529A626A68013AC2F378
:103C90000802A9680139490289B20A43E968013971
:103CA000090401F4FE010A4329690139090601F0FA
:103CB000FE410A431A64DA6A22F4406269690A43DF
:103CC000DA62DA6A22F40072A9690A43DA62DA6A0D
:103CD00022F48072DA625A6C6FF3CF02E96942EA29
:103CE000C1025A64DA6A42F48072DA62C6B91A46CC
:103CF000DB6A43F48003D362124A136843F08053B3
:103D00001360FEF7F7F804460E4B1B6813F0005FD4
:103D100014D1FEF7EFF8001B0228F5D90320ABE71A
:103D2000012E05D0074AD36A43F08073D362E3E7DC
:103D3000044AD36A43F40003D362DDE700209BE723
:103D40000120704700440258F8B50446036813F098
:103D5000006F2FD0436EB3F5001F25D015D8E3B107
:103D6000B3F5801F0ED102210830FFF7E5FE0546AE
:103D700075BB934A136D23F44013616E0B431365B7
:103D8000002619E00126354616E0B3F5401F01D1A3
:103D90000025EEE7012635460EE0894AD36A43F452
:103DA0000033D3620025E4E702212830FFF748FF03
:103DB0000546DDE700263546236813F4807F29D0C9
:103DC000A36D042B22D8DFE803F005131A0A0A00BA
:103DD0002E46F1E77A4AD36A43F40033D362C5B979
:103DE000774A136D23F00703A16D0B43136511E0B0
:103DF000002104F10800FFF79FFE0546EFE70021D0
:103E000004F12800FFF71CFF0546E8E701263546C8
:103E100000E02E46236813F4806F2DD0D4F8A43030
:103E2000B3F5800F3DD00DD8C3B1B3F5001F06D157
:103E3000002104F10800FFF77FFE054613E001268C
:103E4000354619E0B3F5000F0DD0B3F5200F0AD0B9
:103E5000B3F5C00F07D0012635460DE0584AD36AA6
:103E600043F40033D3621DBB554A936D23F46003C2
:103E7000D4F8A4100B439365236813F4006F37D074
:103E8000D4F8A830B3F1007F5ED016D80BB3B3F1ED
:103E9000807F0FD1002104F10800FFF74DFE054699
:103EA0001CE0002104F12800FFF7CAFE0546DAE70E
:103EB0002E46E1E7012635461AE0B3F1806F0DD0BA
:103EC000B3F1A06F0AD0B3F1407F07D00126354689
:103ED0000EE03B4AD36A43F40033D362002D3AD15B
:103EE000374A936D23F0E063D4F8A8100B43936531
:103EF000236813F0007F13D0E36C202B35D02FD82C
:103F000033B1102B29D12E4AD36A43F40033D36244
:103F100095BB2B4AD36C23F03003E16C0B43D36485
:103F2000236813F4805F4ED0E36DB3F5005F3FD09C
:103F300027D87BB3B3F5805F20D1002104F10800BE
:103F4000FFF7FAFD05462AE0002104F12800FFF7FB
:103F500077FE0546C2E72E46CAE701263546DFE76B
:103F6000302BD5D001263546DAE7022104F10800CE
:103F7000FFF7E2FD0546CBE72E46D1E701263546A1
:103F800021E0B3F5405F0AD0B3F5804F07D001269A
:103F9000354618E00A4AD36A43F40033D3628DB938
:103FA000074A136D23F4E043E16D0B4313650AE008
:103FB000002104F12800FFF743FE0546EFE700BFAC
:103FC000004402582E46236813F4005F17D0236E76
:103FD000B3F5003F4FD042D843B1B3F5803F3BD15A
:103FE000012104F10800FFF7A7FD0546002D49D186
:103FF000924A136D23F4E023216E0B43136523686B
:1040000013F4804F19D0D4F8AC30B3F1005F4AD02C
:104010003DD843B1B3F1805F36D1012104F10800EE
:10402000FFF78AFD0546002D44D1844A936D23F0A5
:10403000E043D4F8AC100B439365236813F4004FAE
:1040400047D0E36EB3F1805F36D0B3F1005F4BD061
:10405000BBB3012635463CE001263546CFE7B3F534
:10406000802FC3D0B3F5A02FC0D0B3F5403FBDD053
:1040700001263546C3E7012104F12800FFF7E0FDE2
:104080000546B3E72E46BAE701263546D5E7B3F134
:10409000804FC8D0B3F1A04FC5D0B3F1405FC2D0BC
:1040A00001263546C9E7012104F12800FFF7C8FDC4
:1040B0000546B8E72E46C0E7604AD36A43F40033AA
:1040C000D362C5B95D4A136D23F04053E16E0B43D3
:1040D0001365236813F0807F1CD0A36C032B44D896
:1040E000DFE803F0100B3C10012104F10800FFF79A
:1040F00023FD0546E5E72E46EBE7504AD36A43F435
:104100000033D362A5BB4D4AD36C23F00303A16CEB
:104110000B43D364236813F4800F2BD1236813F06F
:10412000010F00F0A980A36F282B00F2A380DFE825
:1041300003F091A1A1A1A1A1A1A18BA1A1A1A1A1E4
:10414000A1A19AA1A1A1A1A1A1A191A1A1A1A1A176
:10415000A1A191A1A1A1A1A1A1A19100022104F17C
:104160000800FFF7E9FC0546CCE701263546D1E714
:104170002E46CFE7324A136843F480731360FDF78D
:10418000B9FE07462E4B1B6813F4807F05D1FDF75F
:10419000B1FEC01B6428F5D90325002D4AD1274B59
:1041A0001B6FD4F8B020534013F4407F0CD0234B46
:1041B0001A6F22F44072196F41F480311967196F38
:1041C00021F4803119671A67D4F8B030B3F5807FD5
:1041D00015D08DBBD4F8B03003F44072B2F5407FF7
:1041E0001ED0164A136923F47C53136113490B6FD5
:1041F000D4F8B020C2F30B0213430B678EE7FDF730
:1042000079FE07460D4B1B6F13F0020FE1D1FDF74E
:1042100071FEC01B41F288339842F3D90325D8E7D9
:104220000648026922F47C52064901EA131313433B
:104230000361DBE72E4671E72E466FE70044025824
:1042400000480258CFFFFF00012104F10800FFF7EA
:1042500073FC0546E5B9B14A536D23F03803A16FED
:104260000B43536508E0012104F12800FFF7E8FC47
:104270000546EFE701263546236813F0020F17D0F5
:10428000636F052B29D8DFE803F00B05210B0B0B1F
:104290002E46F1E7012104F10800FFF74DFC054629
:1042A000F5B99E4A536D23F00703616F0B435365C5
:1042B000236813F0040F26D0D4F89030052B00F2B9
:1042C000D680DFE803F0150FCD151515012104F197
:1042D0002800FFF7B5FC0546E2E701263546E7E78B
:1042E0002E46E5E7012104F10800FFF725FC05460D
:1042F000002D40F0BF80894A936D23F00703D4F866
:1043000090100B439365236813F0200F1DD0D4F851
:104310008C30B3F1005F00F0C18000F2B0804BB18F
:10432000B3F1805F40F0A880002104F10800FFF79E
:1043300003FC0546002D40F0B880784A536D23F009
:10434000E043D4F88C100B435365236813F0400FFF
:104350001DD0D4F89830B3F5006F00F0BA8000F2A9
:10436000A9804BB1B3F5806F40F0A180002104F12A
:104370000800FFF7E1FB0546002D40F0B180674AD9
:10438000936D23F4E053D4F898100B43936523689E
:1043900013F0800F1DD0D4F89C30B3F5804F00F09F
:1043A000B38000F2A2804BB1B3F5005F40F09A8079
:1043B000002104F10800FFF7BFFB0546002D40F087
:1043C000AA80564A936D23F46043D4F89C100B43A3
:1043D0009365236813F0080F0DD0D4F88030B3F53F
:1043E000805F00F09D804D4A536D23F44053D4F814
:1043F00080100B435365236813F0100F0DD0D4F8D1
:104400009430B3F5807F00F09580444A936D23F497
:104410004073D4F894100B439365236813F4002F72
:1044200000F09D80D4F8A030B3F5803F00F08C8080
:10443000B3F5003F08D0002B40F08D80002104F13F
:104440000800FFF779FB0546002D40F08780334ACE
:10445000936D23F44033D4F8A0100B4393657EE0B2
:10446000012104F12800FFF7EBFB054640E7012698
:10447000354648E72E4646E70126354665E7B3F15F
:10448000804F3FF457AFB3F1A04F3FF453AFB3F1B8
:10449000405F3FF44FAF0126354656E7022104F155
:1044A0002800FFF7CDFB054644E72E464DE70126E1
:1044B00035466CE7B3F5805F3FF45EAFB3F5A05FC0
:1044C0003FF45AAFB3F5406F3FF456AF012635467F
:1044D0005DE7022104F12800FFF7B2FB05464BE738
:1044E0002E4654E70126354673E7B3F5004F3FF4F7
:1044F00065AFB3F5204F3FF461AFB3F5C04F3FF464
:104500005DAF0126354664E7022104F12800FFF77C
:1045100097FB054652E72E465BE700BF0044025872
:10452000022104F12800FFF78BFB00283FF45BAF6A
:10453000012658E7022104F12800FFF781FB00283B
:104540003FF463AF012660E7022104F12800FFF782
:1045500077FB054678E70126354600E02E462368BE
:1045600013F4802F24D0D4F88430B3F5001F14D076
:10457000B3F5401F07D0B3F5801F15D17C4AD36A2D
:1045800043F40033D36295B9794A536D23F4401351
:10459000D4F884100B4353650AE0012104F128008C
:1045A000FFF74EFB0546EEE70126354600E02E46B6
:1045B000236813F4803F06D0236DCBB1B3F5803F61
:1045C00024D001263546236813F0005F27D12368E5
:1045D00013F4003F3DD0E36FB3F5807F2BD027D994
:1045E000B3F5007F2CD0B3F5407F29D0012630E011
:1045F0005F4AD36A43F40033D36275B95C4AD36C23
:1046000023F48033216D0B43D364DCE7022104F1F2
:104610000800FFF791FA0546EFE72E46D3E702219F
:1046200004F12800FFF70CFB0028D0D00126CEE7CC
:1046300033B101260DE04E4AD36A43F40033D3620E
:10464000002D5CD14A4A536D23F44073E16F0B4354
:104650005365236813F4801F06D0454A136D23F079
:104660000043216F0B431365236813F4001F06D02A
:104670003F4A136D23F08073A16E0B4313652368CB
:1046800013F0804F09D03A4B1A6922F400421A61A4
:104690001A69D4F8B4100A431A612368002B06DAA9
:1046A000334AD36C23F04053616D0B43D3642368CA
:1046B00013F4000F07D02E4A536D23F44003D4F8AF
:1046C00088100B435365636813F0010F19D16368B9
:1046D00013F0020F1ED1636813F0040F23D1636837
:1046E00013F0080F28D1636813F0100F2DD1636801
:1046F00013F0200F32D106B101263046F8BD2E4608
:10470000A7E7002104F10800FFF716FA0028DED021
:104710000646DCE7012104F10800FFF70DFA002846
:10472000D9D00646D7E7022104F10800FFF704FAC2
:104730000028D4D00646D2E7002104F12800FFF774
:104740007FFA0028CFD00646CDE7012104F12800EA
:10475000FFF776FA0028CAD00646C8E7022104F11E
:104760002800FFF76DFA0028C5D00126C5E700BF75
:1047700000440258C36B5B09C0680830C00803FBE3
:1047800000007047002800F0B78070B50446002391
:10479000836205685C4B5D4E9D4218BFB54214BFF5
:1047A0000126002607D0A3F574439D4203D0C368B9
:1047B0000F2B00F2A3802046FFF7DCFF2EB1544BF5
:1047C0009D4202D0082800F29B804F4A4F4B9D42E9
:1047D00018BF954203D003F580639D4202D1102893
:1047E00000F2908094F88130F3B1022384F8813094
:1047F0002268136823F00103136023689A6802F4A7
:10480000F812A169B1F1806F14D0636813F4800FBE
:1048100023D0E368062B20D921680B6823F480732A
:10482000206D03430B601DE084F880302046FDF7C7
:10483000E3F8DAE76168B1F5800F06D00029E4D12A
:10484000A16BB1F1805FE0D102E0A06B0028F5D14F
:10485000196841F480511960D7E721680B6823F487
:1048600080730B60E369A16A0B431343E26B13434C
:10487000E16822680B439360636B626A1343A26B27
:104880001343A26913432269134362691343226AE3
:10489000134362681343E26C1343A2681343A26C90
:1048A0001343A16D22680B43D36063686BB9226820
:1048B000936823F4C05343F40063936022689368C1
:1048C00023F4C06343F4806393602268136D23F084
:1048D00001031365636813F4800F06D02268D36860
:1048E00023F00043616D0B43D3600020C4F88400C3
:1048F000012384F8813070BD012070470120FAE760
:104900000120F8E70120F6E70030014000380040C0
:10491000003C0040F0B4026A036A23F00103036222
:10492000466884691E4B23400D681D4322F0020235
:104930008B6813431B4A1C4CA04218BF90420CBF0B
:10494000012200220CD004F58044A04214BF0024B0
:104950000124164FB84203D014B9154CA04205D11A
:1049600023F00803CC68234323F004035AB9114A07
:10497000904214BF002201220C4CA04203D012B975
:104980000B4A904205D126F440764A6932438E693B
:104990001643466085614A6842630362F0BC704713
:1049A0008CFFFEFF00000140000401400040014078
:1049B000004801400044014070B4036A026A22F4D6
:1049C000807202624568C4691A4A22400E68164322
:1049D00023F400738A6843EA0223174A174CA04263
:1049E00018BF90420CBF0122002206D123F40063BD
:1049F000CC6843EA042323F480635AB9104A9042F6
:104A000014BF002201220F4CA04203D012B90E4A5B
:104A1000904207D125F440524C6942EA04128C6955
:104A200042EA04154560C6614A68C263036270BC0D
:104A3000704700BF8CFFFEFF0000014000040140F2
:104A400000440140004001400048014070B4036A46
:104A5000026A22F4805202624468C569144A2A40FC
:104A60000D6842EA052223F400538D6843EA0533BA
:104A7000104E114DA84218BFB0420DD005F580452B
:104A8000A84214BF0025012506F58046B04203D098
:104A900015B90A4DA84204D124F480444D6944EA72
:104AA00085144460C2614A680264036270BC704746
:104AB000FF8CFFFE0000014000040140004801405F
:104AC00070B4036A026A22F4803202624268456D61
:104AD000144E2E400D682E4323F400338C6843EAB5
:104AE0000443114D114CA04218BFA8420DD004F54B
:104AF0008044A04214BF0024012405F58045A8424B
:104B000003D014B90A4CA04204D122F480324C697B
:104B100042EA0422426046654A688265036270BCCC
:104B2000704700BF8FFFFEFF0000014000040140FE
:104B30000048014070B4036A026A22F480120262E3
:104B40004468456D144A2A400D6842EA052223F460
:104B500000138D6843EA0553104E114DA84218BF4B
:104B6000B0420DD005F58045A84214BF00250125AF
:104B700006F58046B04203D015B90A4DA84204D1CB
:104B800024F480244D6944EA8524446042654A68DF
:104B9000C265036270BC7047FF8FFFFE00000140DA
:104BA000000401400048014070B403683E4A90424E
:104BB00014BF00220122B0F1804F14BF144642F00E
:104BC0000104ACB9394DA84214BF00250125384E67
:104BD000B0420DD065B905F1804505F58235A84292
:104BE00014BF0025012506F50066B04200D01DB1B6
:104BF00023F070034D682B4364BB2C4CA04214BFC0
:104C0000002401242A4DA84224D01CBB04F1804476
:104C100004F58234A04214BF0024012405F5006588
:104C2000A84217D0B4B9234CA04214BF00240124D9
:104C300005F59A35A8420DD064B91F4CA04214BFA7
:104C40000024012405F50065A84203D014B91B4CCB
:104C5000A04203D123F44073CC68234323F08003A4
:104C60004C6923438C68C4620C688462144CA04273
:104C700008BF42F0010262B90E4A904214BF0022FE
:104C8000012204F57054A04203D012B90D4A90429B
:104C900001D10A690263026842F004020260012243
:104CA0004261036070BC7047000001400008004092
:104CB000000400400044014000E0004000E40040E7
:104CC000000401400048014060B310B5044690F86C
:104CD0003D3013B3022384F83D30214651F8040BD4
:104CE000FFF762FF012384F8483084F83E3084F8EF
:104CF0003F3084F8403084F8413084F8423084F802
:104D0000433084F8443084F8453084F8463084F8E1
:104D1000473084F83D30002010BD80F83C30FCF76F
:104D2000C3FFD7E70120704770B4036A026A22F01C
:104D300010020262456884691A4E26400C6846EAF1
:104D4000042623F020038A6843EA0213164A174C0C
:104D5000A04218BF90420CBF0122002206D123F0CE
:104D60008003CC6843EA041323F040035AB9104A85
:104D7000904214BF002201220E4CA04203D012B96F
:104D80000D4A904207D125F4406C4A694CEA820CE6
:104D90008A694CEA8205456086614A6882630362DB
:104DA00070BC7047FF8CFFFE000001400004014012
:104DB00000440140004001400048014038B590F8EF
:104DC0003C30012B00F0958004460D46012380F80D
:104DD0003C30142A00F28880DFE802F00B868686D9
:104DE0001F86868634868686488686865D86868683
:104DF00071000068FFF78EFD2268936943F0080395
:104E000093612268936923F0040393612268936994
:104E100029690B439361002067E00068FFF784FF76
:104E20002268936943F4006393612268936923F4D1
:104E30008063936122689369296943EA012393613E
:104E4000002052E00068FFF7B7FD2268D36943F005
:104E50000803D3612268D36923F00403D361226875
:104E6000D36929690B43D36100203EE00068FFF756
:104E7000EDFD2268D36943F40063D3612268D369EE
:104E800023F48063D3612268D369296943EA01234B
:104E9000D361002029E00068FFF712FE2268536DFD
:104EA00043F0080353652268536D23F004035365F0
:104EB0002268536D29690B435365002015E0006893
:104EC000FFF738FE2268536D43F400635365226890
:104ED000536D23F4806353652268536D296943EA57
:104EE00001235365002000E00120002384F83C30BA
:104EF00038BD0220FCE7000090F83C20012A4DD08C
:104F000070B40346012280F83C20022280F83D2044
:104F1000026850689468224E224DAA4218BFB242DD
:104F200003D120F470004D68284320F070000D6814
:104F3000284350601A681A48B2F1804F18BF824265
:104F40001FD0A0F57C4082421BD000F580608242D9
:104F500017D000F58060824213D000F5784082427D
:104F60000FD0A0F56C4082420BD000F59430824205
:104F700007D0A0F5C040824203D000F58060824295
:104F800004D124F08004896821439160012283F8D0
:104F90003D20002083F83C0070BC70470220704721
:104FA000000001400004014082B000230193019BF6
:104FB00001330193019BB3F1706F15D80369002B86
:104FC000F5DA00230193036943F001030361019BB8
:104FD00001330193019BB3F1706F08D8036913F09B
:104FE000010FF4D1002000E0032002B0704703203D
:104FF000FBE7000084B010B5044603A880E80E006B
:105000009DF81130012B1FD1A36B23F48033A363D0
:10501000E2681F4B1340E360E36823F44013E3604E
:105020009DF81830012B0AD02046FFF7BDFF9DF8F0
:105030000E30012B1CD0BDE8104004B07047E3686F
:1050400043F48013E360EFE7E36843F04003E36079
:105050002046FFF7A9FF9DF8153023B9A36B43F451
:105060008033A363E3E7A36B23F48033A363DEE71A
:10507000E36D9BB2E365E26D064B1343E365A36802
:1050800043F00603A360A36843F02003A360D2E7C4
:10509000BFFFBDFF0000EE03022A0AD00922C36849
:1050A00023F47053C360C36843EA8223C3600020C3
:1050B0007047204B0B44204A934229D91F4B0B4485
:1050C0001F4A934226D91F4B0B441F4A934223D9B0
:1050D0001E4B0B441E4A934220D31E4B0B441E4AC8
:1050E00093421DD91D4B0B441D4A93421AD31D4BAD
:1050F0000B441D4A934217D31C4B0B441C4A93424A
:1051000014D31C4B0B441C4A934211D20722C6E70E
:105110000F22C4E70E22C2E70D22C0E70C22BEE731
:105120000B22BCE70A22BAE70922B8E70822B6E751
:105130000622B4E7405327FFFF340C00401E1BFF3C
:105140003F420F0000DC0BFF7F4F1200808CF9FE06
:1051500020D6130060B6E5FE5FE3160000D3CEFE56
:1051600040771B00C05BB3FEC091210000CA91FED6
:1051700020753800E05459FEE09C4100836843F0FC
:105180000103836000207047836823F0010383607C
:105190000020704782B000230193019B01330193EB
:1051A000019BB3F1706F15D80369002BF5DA00236A
:1051B0000193890141F020010161019B01330193B9
:1051C000019BB3F1706F08D8036913F0200FF4D17D
:1051D000002000E0032002B070470320FBE782B00C
:1051E00000230193019B01330193019BB3F1706F85
:1051F00013D80369002BF5DA002301931023036110
:10520000019B01330193019BB3F1706F08D80369CF
:1052100013F0100FF4D1002000E0032002B070471B
:105220000320FBE7D0F800381943C0F8001800202D
:105230007047000084B0F8B5044607A880E80E0067
:10524000002306E003F1400204EB820200215160DA
:1052500001330E2BF6D99DF8266006BBD4F804382E
:1052600043F00203C4F80438A36B23F40013A363D0
:10527000236843F040032360236843F080032360E6
:105280000023C4F8003E9DF82130012B11D19DF878
:105290001F304BB900212046FFF7C4FF0DE0A36B80
:1052A00043F40013A363EBE701212046FFF7BAFFA5
:1052B00003E003212046FFF7B5FF10212046FFF74A
:1052C00069FF054600B101252046FFF788FF00B1C0
:1052D000012504F5006C0023CCF81030CCF8143014
:1052E000CCF81C300AE0CBB94FF00060C2F80009DE
:1052F00000220A614FF67F328A6001339DF81C104C
:10530000994210D904EB431202F51061D2F800095A
:105310000028E8DB0020C2F80009E9E74FF09040E0
:10532000C2F80009E4E700230AE0BBB14FF0904760
:10533000C2F8007B002202614FF67F3282600133A7
:10534000994210D904EB431202F53060D2F8007B89
:10535000002FEADB0027C2F8007BEBE74FF0006785
:10536000C2F8007BE6E7DCF8103023F48073CCF859
:1053700010300023A3616FF0804363619DF81E30FD
:105380001BB9A36943F01003A361A2690A4B13433D
:10539000A3619DF822301BB1A36943F00803A36108
:1053A000012E04D02846BDE8F84004B07047A26939
:1053B000024B1343A361F5E700383C800400004032
:1053C000D0F8083803F00603022B04D0062B04D0D3
:1053D0002BB90020704702207047022070470F2031
:1053E0007047000010B591F800C04B78012B21D018
:1053F00000F5006ED0F81C380CF00F040122A2401A
:1054000043EA0243C0F81C3800EB4C10D0F8003BD4
:1054100013F4004F0CD1D0F8002B8B68C3F30A03B0
:10542000097943EA81431A43134B1343C0F8003B05
:10543000002010BDD0F81C280CF00F0E03FA0EF35C
:105440009BB21343C0F81C3800EB4C10D0F8003965
:1054500013F4004FECD1D0F800298B68C3F30A0392
:10546000097943EA814343EA8C531A43024B1343BD
:10547000C0F80039DCE700BF0080001030B40B78C2
:105480004A78012A26D000EB4313D3F8002B002AD8
:1054900052DBD0F83C480A7802F00F024FF0010CC2
:1054A0000CFA02F224EA0242C0F83C28D0F81C2888
:1054B000097801F00F010CFA01FC22EA0C42C0F855
:1054C0001C28D3F8001B234A0A40C3F8002B0020F5
:1054D00030BC704700EB4313D3F80029002A1EDBD1
:1054E000D0F83C580A7802F00F02012404FA02F2C4
:1054F00092B225EA0202C0F83C28D0F81C280978AC
:1055000001F00F018C40A4B222EA0402C0F81C286A
:10551000D3F80019104A0A40C3F80029D7E7D3F896
:10552000002942F00062C3F80029D3F8002942F0B4
:105530008042C3F80029D3E7D3F8002B42F0006281
:10554000C3F8002BD3F8002B42F08042C3F8002BA5
:105550009FE700BF0078F3EF007833EC10B483B01E
:10556000024600230193487801280AD00B7802EB09
:105570004313D3F8000B00282CDB002003B010BC31
:1055800070470B7802EB4313D3F80049002C01DB82
:105590000020F3E7D3F8004944F00064C3F8004961
:1055A0000B7802EB4313D3F8004944F08044C3F86E
:1055B0000049019B01330193019C42F210739C420C
:1055C000DCD80B7802EB4313D3F80039002BF0DB67
:1055D0000020D3E7D3F8000B40F00060C3F8000BC5
:1055E0000B7802EB4313D3F8000B40F08040C3F874
:1055F000000B019B01330193019842F21073984212
:1056000008D80B7802EB4313D3F8003B002BF0DBF8
:105610000020B3E70120B1E710B59DF8084084B938
:1056200003334FEA930E4FF0000C08E000EB023317
:1056300003F5805351F8044B1C600CF1010CF44548
:10564000F4D3002010BD0000F0B583B00C784B7887
:10565000012B2DD000EB441C0CF530631D696FF35A
:1056600012051D611D696FF3DC451D61002C40F0C2
:10567000CE800C690CB18C680C618C680C621D6961
:10568000C4F312042C431C611C6944F400241C6103
:10569000012A00F0DF800B79012B00F0E180DCF8BB
:1056A000003B43F00443CCF8003B002003B0F0BDC6
:1056B0000B6973BB00EB4413D3F810596FF3DC454F
:1056C000C3F81059D3F8105945F40025C3F8105900
:1056D000D3F810596FF31205C3F81059012A54D0AA
:1056E00000EB4414D4F8003943F00443C4F8003903
:1056F0000B79012B72D00B69002BD6D0D0F834383F
:10570000097801F00F0101228A401343C0F83438B0
:10571000CBE700EB441303F510631D696FF312052B
:105720001D611D696FF3DC451D6184B90E698D68CB
:10573000AE4200D90D611D6945F400251D611D694A
:105740000E69C6F3120C45EA0C051D61C6E70D692A
:105750008E683544013DB5FBF6F51E691FFA85FCE0
:10576000494F07EAC54535431D610D79012DE6D145
:105770001D6925F0C0451D611D694FEA4C7C0CF088
:10578000C04C45EA0C051D61D9E7CB691BB100EBA4
:105790004412C2F814390B79012B08D000EB4414E1
:1057A000D4F8003943F00443C4F800397DE7D0F859
:1057B000083813F4807F08D100EB4412D2F8003986
:1057C00043F00053C2F80039E8E700EB4412D2F886
:1057D000003943F08053C2F80039DFE7D0F80838C9
:1057E00013F4807F0CD1D4F8003943F00053C4F88F
:1057F000003900920B8A0A78C968FFF70DFF54E759
:10580000D4F8003943F08053C4F80039F1E70C694B
:1058100054B91C698D68C5F312052C431C611C69C1
:1058200044F400241C6133E78D682C44013CB4FB34
:10583000F5F4A4B204FB05F50D621D69124E06EAEB
:10584000C4442C431C611C690D6AC5F312052C432A
:105850001C611DE7CA68002A3FF41DAF5A611AE7B0
:10586000D0F8083813F4807F06D1DCF8003B43F011
:105870000053CCF8003B12E7DCF8003B43F08053C8
:10588000CCF8003B0BE700BF0000F81F10B58446C2
:1058900008464FEA920E02F00302002305E00CF5E1
:1058A0008051096840F8041B01337345F7D37AB17E
:1058B0000CF5805CDCF800400021CBB2DB0024FA60
:1058C00003F300F8013B0131013A92B2002AF4D10E
:1058D00010BD0B784A78012A14D000EB4310D0F8A1
:1058E000002B002A06DB2BB1D0F8003B23F08043CD
:1058F000C0F8003BD0F8003B43F40013C0F8003B75
:105900000020704700EB4310D0F80029002A06DB86
:105910002BB1D0F8003923F08043C0F80039D0F81B
:10592000003943F40013C0F80039E9E70B784A78EE
:10593000012A0ED000EB4310D0F8003B23F40013F3
:10594000C0F8003B0B79023BDBB2012B15D90020DC
:10595000704700EB4310D0F8003923F40013C0F86F
:1059600000390B79023BDBB2012BF0D8D0F80039BB
:1059700043F08053C0F80039E9E7D0F8003B43F02A
:105980008053C0F8003BE2E7D0F8003823F4FE6310
:10599000C0F80038D0F80038090101F4FE610B436B
:1059A000C0F8003800207047D0F8003E23F0030311
:1059B000C0F8003ED0F8043823F00203C0F80438E1
:1059C00000207047D0F8003E23F00303C0F8003EEB
:1059D000D0F8043843F00203C0F8043800207047C0
:1059E0004269806910407047D0F8183800F50060AF
:1059F000C0691840000C7047D0F8183800F50060F6
:105A0000C069184080B2704700EB4111D1F8082BF3
:105A100000F50060406910407047D0F81028D0F8B9
:105A2000343801F00F0C23FA0CF3DB01DBB2134323
:105A300000EB411000F51060806818407047406925
:105A400000F00100704738B50546C36823F0C04335
:105A5000C360012913D019BBC36843F08043C360FE
:105A600000240A20FCF74CFA0A342846FFF7E7FF27
:105A700008B1C72CF5D9C82C14D0002038BDC36894
:105A800043F00053C36000240A20FCF739FA0A34BB
:105A90002846FFF7D4FF0128EDD0C72CF4D9EAE758
:105AA0000120EBE70120E9E7D0F800396FF30A03A2
:105AB000C0F80039D0F8043843F48073C0F80438D3
:105AC0000020704710B4046C144B9C4203D9D0F8EA
:105AD000003B002B16DB0024C0F8104BD0F8104B15
:105AE00044F40024C0F8104BD0F8104B44F01804D4
:105AF000C0F8104BD0F8104B44F0C044C0F8104B25
:105B0000012902D0002010BC7047C0F8142BD0F837
