:020000040800F2
:1000000000000524A10C0008B10B0008B30B000888
:10001000B50B0008B70B0008B90B00080000000082
:10002000000000000000000000000000BB0B000802
:10003000BD0B000800000000BF0B0008C10B00084A
:10004000F50C0008F50C0008F50C0008F50C00088C
:10005000F50C0008F50C0008F50C0008F50C00087C
:10006000F50C0008F50C0008F50C0008F50C00086C
:10007000F50C0008F50C0008F50C0008F50C00085C
:10008000F50C0008F50C0008F50C0008F50C00084C
:10009000F50C0008F50C0008F50C0008F50C00083C
:1000A000F50C0008F50C0008F50C0008F50C00082C
:1000B000F50C0008F50C0008F50C0008F50C00081C
:1000C000F50C0008F50C0008F50C0008F50C00080C
:1000D000F50C0008F50C0008F50C0008F50C0008FC
:1000E000F50C0008F50C000800000000F50C0008F5
:1000F000F50C0008F50C0008F50C0008F50C0008DC
:10010000F50C0008F50C0008F50C0008F50C0008CB
:10011000F50C0008F50C0008F50C0008F50C0008BB
:10012000F50C0008F50C0008F50C0008F50C0008AB
:10013000F50C0008F50C0008F50C0008F50C00089B
:1001400000000000000000000000000000000000AF
:10015000F50C0008F50C0008F50C0008F50C00087B
:10016000F50C0008F50C0008F50C0008F50C00086B
:10017000F50C0008F50C0008F50C00080000000064
:10018000F50C0008F50C0008F50C0008F50C00084B
:10019000F50C0008F50C0008F50C0008F50C00083B
:1001A000F50C0008F50C0008F50C00080000000034
:1001B000F50C0008F50C0008F50C0008F50C00081B
:1001C000F50C0008F50C000800000000000000001D
:1001D0000000000000000000F50C00080000000016
:1001E000000000000000000000000000000000000F
:1001F0000000000000000000F50C0008F50C0008ED
:10020000F50C0008F50C000800000000F50C0008D3
:10021000F50C0008F50C0008F50C0008F50C0008BA
:10022000F50C000800000000F50C000800000000BC
:10023000F50C0008F50C000800000000F50C0008A3
:10024000F50C0008F50C0008F50C0008F50C00088A
:10025000F50C0008F50C0008F50C0008F50C00087A
:10026000F50C0008F50C0008F50C0008F50C00086A
:10027000F50C0008F50C0008F50C00080000000063
:10028000F50C0008F50C0008F50C0008F50C00084A
:1002900000000000F50C0008F50C0008000000004C
:1002A00000000000F50C0008F50C0008F50C000833
:1002B000F50C0008F50C0008F50C0008F50C00081A
:0C02C000F50C0008F50C0008F50C000817
:1002CC0080F0004002E000BF81F0004142001FBFFF
:1002DC005FEA410392EA030F7FEA226C7FEA236C08
:1002EC006AD04FEA1262D2EB1363C1BFD2184140FD
:1002FC0048404140B8BF5B42192B88BF704710F093
:10030C00004F40F4000020F07F4018BF404211F035
:10031C00004F41F4000121F07F4118BF494292EA9D
:10032C00030F3FD0A2F1010241FA03FC10EB0C00C9
:10033C00C3F1200301FA03F100F0004302D5494256
:10034C0060EB4000B0F5000F13D3B0F1807F06D303
:10035C0040084FEA310102F10102FE2A51D2B1F1FB
:10036C00004F40EBC25008BF20F0010040EA0300F0
:10037C007047490040EB0000013A28BFB0F5000F70
:10038C00EDD2B0FA80FCACF1080CB2EB0C0200FA26
:10039C000CF0AABF00EBC25052421843BCBFD04075
:1003AC001843704792F0000F81F4000106BF80F4EF
:1003BC0000000132013BB5E74FEA41037FEA226CB2
:1003CC0018BF7FEA236C21D092EA030F04D092F07D
:1003DC00000F08BF0846704790EA010F1CBF0020B1
:1003EC00704712F07F4F04D1400028BF40F000400E
:1003FC00704712F100723CBF00F50000704700F02E
:10040C00004343F0FE4040F4000070477FEA226254
:10041C0016BF08467FEA23630146420206BF5FEA25
:10042C00412390EA010F40F4800070474FF0000325
:10043C0004E000BF10F0004348BF40425FEA000CEC
:10044C0008BF704743F0964301464FF000001CE094
:10045C0050EA010208BF70474FF000030AE000BFEA
:10046C0050EA010208BF704711F0004302D5404228
:10047C0061EB41015FEA010C02BF8446014600209A
:10048C0043F0B64308BFA3F18053A3F50003BCFAB5
:10049C008CF2083AA3EBC25310DB01FA02FC634462
:1004AC0000FA02FCC2F12002BCF1004F20FA02F269
:1004BC0043EB020008BF20F00100704702F120025C
:1004CC0001FA02FCC2F1200250EA4C0021FA02F2BD
:1004DC0043EB020008BF20EADC7070474FF0FF0CC2
:1004EC001CEAD0521EBF1CEAD15392EA0C0F93EABD
:1004FC000C0F6FD01A4480EA010C400218BF5FEA5F
:10050C0041211ED04FF0006343EA501043EA5111D1
:10051C00A0FB01310CF00040B1F5000F3EBF4900CB
:10052C0041EAD3715B0040EA010062F17F02FD2ACF
:10053C001DD8B3F1004F40EBC25008BF20F00100B2
:10054C00704790F0000F0CF0004C08BF49024CEAC9
:10055C00502040EA51207F3AC2BFD2F1FF0340EA5B
:10056C00C250704740F400004FF00003013A5DDCCC
:10057C0012F1190FDCBF00F000407047C2F100020D
:10058C00410021FA02F1C2F1200200FA02FC5FEAFA
:10059C00310040F1000053EA4C0308BF20EADC7044
:1005AC00704792F0000F00F0004C02BF400010F4B6
:1005BC00000F013AF9D040EA0C0093F0000F01F063
:1005CC00004C02BF490011F4000F013BF9D041EA85
:1005DC000C018FE70CEAD15392EA0C0F18BF93EA87
:1005EC000C0F0AD030F0004C18BF31F0004CD8D1B1
:1005FC0080EA010000F00040704790F0000F17BF38
:10060C0090F0004F084691F0000F91F0004F14D07D
:10061C0092EA0C0F01D142020FD193EA0C0F03D1D5
:10062C004B0218BF084608D180EA010000F00040D8
:10063C0040F0FE4040F40000704740F0FE4040F4B3
:10064C00400070474FF0FF0C1CEAD0521EBF1CEA52
:10065C00D15392EA0C0F93EA0C0F69D0A2EB030270
:10066C0080EA010C49024FEA402037D04FF080530A
:10067C0043EA111143EA10130CF000408B4238BFCF
:10068C005B0042F17D024FF4000C8B4224BF5B1ADD
:10069C0040EA0C00B3EB510F24BFA3EB510340EA2B
:1006AC005C00B3EB910F24BFA3EB910340EA9C00D9
:1006BC00B3EBD10F24BFA3EBD10340EADC001B0149
:1006CC0018BF5FEA1C1CE0D1FD2A3FF650AF8B42ED
:1006DC0040EBC25008BF20F0010070470CF0004CFA
:1006EC004CEA50207F32C2BFD2F1FF0340EAC25025
:1006FC00704740F400004FF00003013A37E792F0E6
:10070C00000F00F0004C02BF400010F4000F013A43
:10071C00F9D040EA0C0093F0000F01F0004C02BF3E
:10072C00490011F4000F013BF9D041EA0C0195E7A7
:10073C000CEAD15392EA0C0F08D142027FF47DAF40
:10074C0093EA0C0F7FF470AF084676E793EA0C0F30
:10075C0004D14B023FF44CAF08466EE730F0004C2E
:10076C0018BF31F0004CCAD130F000427FF45CAFBE
:10077C0031F000437FF43CAF5FE700BF42000ED284
:10078C00B2F1FE4F0BD34FF09E03B3EB126209D4C0
:10079C004FEA002343F0004323FA02F070474FF076
:1007AC000000704712F1610F01D1420202D14FF0EB
:1007BC00FF3070474FF00000704700BF0348044BF8
:1007CC00834202D0034B03B1184770471400002436
:1007DC0014000024000000000548064B1B1AD90F1A
:1007EC0001EBA301491002D0034B03B1184770472A
:1007FC0014000024140000240000000010B5064C66
:10080C00237843B9FFF7DAFF044B13B10448AFF375
:10081C0000800123237010BD140000240000000090
:10082C00F82B000808B5054B1BB105490548AFF37B
:10083C000080BDE80840FFF7CFBF00BF00000000FC
:10084C0018000024F82B0008F0B58BB00024059498
:10085C000694079408940994344BD3F8E02042F0A2
:10086C008002C3F8E020D3F8E02002F0800200926E
:10087C00009AD3F8E02042F00102C3F8E020D3F84C
:10088C00E02002F001020192019AD3F8E02042F03C
:10089C000802C3F8E020D3F8E02002F0080202922C
:1008AC00029AD3F8E02042F00402C3F8E020D3F817
:1008BC00E02002F004020392039AD3F8E02042F005
:1008CC000202C3F8E020D3F8E03003F002030493F3
:1008DC00049B174F22460721384600F039FC154D72
:1008EC0022464FF40071284600F032FC0723059392
:1008FC00012606960794089405A9384600F01AFBC1
:10090C004FF40073059306960794089405A928469E
:10091C0000F010FB21464FF0807000F04FFA21469A
:10092C004FF0007000F04AFA0BB0F0BD00440258D2
:10093C0000000258000C025810B584B0002400943A
:10094C0001940294039400F0ABFA01238DF800306B
:10095C008DF8014001941F228DF8082087228DF814
:10096C0009208DF80A408DF80B408DF80C308DF86D
:10097C000D308DF80E408DF80F40684600F0AEFA41
:10098C00042000F09BFA04B010BD72B6FEE7000024
:10099C0000B59DB04C22002109A802F045F8202298
:1009AC00002101A802F040F8022000F0D7FB002340
:1009BC000093204B9A6922F440429A619B6903F49C
:1009CC0040430093009B1B4B9B6913F4005FFAD0D0
:1009DC00012309934FF480320A920222129213924D
:1009EC0014930F2115911693179218930C231993A6
:1009FC0000231A934FF4A0531B9309A800F0D8FBC3
:100A0C00A0B93F2301930321029100230393049384
:100A1C004023059306934FF480620792089301A834
:100A2C0000F0CAFF20B91DB05DF804FBFFF7ADFF65
:100A3C00FFF7ABFF0048025808B5FFF77DFF00F049
:100A4C007DF9FFF7A5FFFFF7FFFE00F001F8FEE7C9
:100A5C0008B51548154B03604FF480034360002321
:100A6C0083600722C2604FF0007202614FF0807207
:100A7C0042614FF080628261C361036243628362B0
:100A8C00C3624FF0804242638363C3630364436475
:100A9C008364C36403654365836501F0FDFE00B99F
:100AAC0008BDFFF772FFFBE730000024003C00405C
:100ABC0030B5B9B00446002133913491359136915B
:100ACC003791B82204A801F0AFFF2268284B9A4254
:100ADC0001D039B030BD4FF480520023CDE904234E
:100AEC0004A801F0BBF900283ED1224BD3F8E82032
:100AFC0042F40042C3F8E820D3F8E82002F40042A4
:100B0C000192019AD3F8E02042F00402C3F8E020ED
:100B1C00D3F8E02002F004020292029AD3F8E0200B
:100B2C0042F00802C3F8E020D3F8E03003F00803E9
:100B3C000393039B4FF440633393022534950024B5
:100B4C00359436940623379333A90B4800F0F2F909
:100B5C00402333933495359436940523379333A936
:100B6C00064800F0E7F9B4E7FFF70FFFBDE700BF59
:100B7C00003C00400044025800080258000C025887
:100B8C0082B0074BD3F8F42042F00202C3F8F420F1
:100B9C00D3F8F43003F002030193019B02B07047C9
:100BAC0000440258FEE7FEE7FEE7FEE7FEE770476B
:100BBC007047704708B500F0EFF808BD274B1B686D
:100BCC0003F00F03062B06D8244A136823F00F03F7
:100BDC0043F007031360224B1A6842F001021A60BB
:100BEC0000221A6119681F4A0A401A601B4B1B68C5
:100BFC0013F0080F06D0194A136823F00F0343F0C3
:100C0C0007031360164B00229A61DA611A621649C7
:100C1C0099621649D962164919635A639963DA6362
:100C2C0019645A64196821F4802119601A66D3F882
:100C3C00D43013F4805F10D1094BD3F8D42042F494
:100C4C008052C3F8D4200B4A43F2D2011160D3F87E
:100C5C00D42022F48052C3F8D420704700200052D4
:100C6C00004402587FEDF6EA000202020000FF0188
:100C7C008002010100400052054AD36843F0020390
:100C8C00D360034B5B6813F4005FFAD0704700BF6E
:100C9C0000480258DFF838D0FFF7EEFFFFF78EFF61
:100CAC000C480D490D4A002302E0D458C4500433BB
:100CBC00C4188C42F9D30A4A0A4C002301E0136091
:100CCC000432A242FBD301F001FFFFF7B5FE7047DF
:100CDC000000052400000024140000242C2C000823
:100CEC001400002454020024FEE70000104B1B7873
:100CFC000BB90120704710B504464FF47A70B0FB65
:100D0C00F3F30C4A1068B0FBF3F000F0B5F868B9D7
:100D1C000F2C01D901200AE0002221464FF0FF30B0
:100D2C0000F09AF8044B1C60002000E0012010BD7C
:100D3C0008000024040000240C00002410B503203B
:100D4C0000F078F800F026FD0F498B69C3F30323FC
:100D5C000E4AD35C03F01F03D8408B6903F00F03DA
:100D6C00D35C03F01F0320FA03F3094A1360094B09
:100D7C0018600F20FFF7BAFF10B10124204610BDF8
:100D8C000446FFF7FDFEF9E700440258102C00085A
:100D9C000000002404000024034B1B78034A116854
:100DAC000B441360704700BF08000024B8000024F7
:100DBC00014B1868704700BFB8000024034A536801
:100DCC0023EA00030B435360704700BF0004005834
:100DDC00002804DB0901C9B2044B1954704700F018
:100DEC000F000901C9B2024B1954704700E400E02E
:100DFC0014ED00E000B500F00700C0F1070CBCF1E9
:100E0C00040F28BF4FF0040C031D062B0FD9C31E73
:100E1C004FF0FF3E0EFA0CF021EA000199400EFA59
:100E2C0003FE22EA0E0241EA02005DF804FB0023F5
:100E3C00EEE700000649CB6823F4E0631B041B0CAF
:100E4C00000200F4E0600343024A1A43CA60704790
:100E5C0000ED00E00000FA0510B50446054BD8681B
:100E6C00C0F30220FFF7C6FF01462046FFF7B0FF94
:100E7C0010BD00BF00ED00E00138B0F1807F0BD257
:100E8C004FF0E0235861054AF02182F8231000202E
:100E9C00986107221A6170470120704700ED00E04D
:100EAC00BFF35F8F044B5A6A22F480325A620022DD
:100EBC00C3F89420704700BF00ED00E040F0010043
:100ECC00054BC3F894005A6A42F480325A62BFF35D
:100EDC004F8FBFF36F8F704700ED00E04378144ADB
:100EEC00C2F89830D2F8A03023F00103C2F8A03039
:100EFC004368C2F89C30017BC37A1B0643EA01733A
:100F0C00817A43EAC143417B43EA8143817B43EAD3
:100F1C004143C17B43EA0143417A43EA0123017A0D
:100F2C0043EA410301780B43C2F8A030704700BF7D
:100F3C0000ED00E070B582B000236EE085685E00C5
:100F4C000324B44025EA0405CC68B4402C438460E7
:100F5C00456825EA0C054C68C4F300149C402C43EE
:100F6C0044606DE0DD08083550F8254003F0070CAF
:100F7C004FEA8C0C4FF00F0E0EFA0CFE24EA0E0EFC
:100F8C000C6904FA0CF444EA0E0440F825406FE0B6
:100F9C00092400E0002404FA0EF42C430CF1020C9A
:100FAC00684D45F82C404FF0B0442568D44325EAF1
:100FBC000206D1F804C01CF4801F01D042EA0506D9
:100FCC004FF0B0452E606D6804EA0506D1F804C0F8
:100FDC001CF4001F01D042EA05064FF0B0456E60CC
:100FEC00D5F8845004EA0506D1F804C01CF4003F7F
:100FFC0001D042EA05064FF0B045C5F88460D5F83B
:10100C0080502C404E6816F4803F01D042EA050413
:10101C004FF0B042C2F8804001330A6832FA03F450
:10102C0000F08D804FF0010C0CFA03FC1CEA02025C
:10103C00F2D04C6804F00304013C012C7FF67EAF27
:10104C004C6804F00304032C0CD0C4685D004FF012
:10105C00030C0CFA05FC24EA0C0C8C68AC4044EA3A
:10106C000C04C4604C6804F00304022C3FF47AAF07
:10107C0004684FEA430E4FF0030C0CFA0EFC24EA02
:10108C000C0C4C6804F0030404FA0EF444EA0C044F
:10109C0004604C6814F4403FBED02B4CD4F8F45090
:1010AC0045F00205C4F8F450D4F8F44004F00204FE
:1010BC000194019C4FEA930C0CF10205214C54F85D
:1010CC00255003F0030E4FEA8E0E0F2404FA0EF493
:1010DC0025EA04051D4CA0423FF45CAF04F5806486
:1010EC00A0421ED004F58064A0421CD004F580649C
:1010FC00A0421AD004F58064A04218D004F5806494
:10110C00A04216D004F58064A04214D004F580648B
:10111C00A04212D004F50064A0423FF439AF0A2477
:10112C0039E7012437E7022435E7032433E70424A5
:10113C0031E705242FE706242DE707242BE702B01F
:10114C0070BD00BF00040058004402580000025853
:10115C000AB181617047090481617047134BDB68E8
:10116C0013F0040F07D1114BDB6803F00703834224
:10117C001AD00120704710B50C4AD36823F007032E
:10118C000343D360FFF714FE0446084B5B6813F46B
:10119C00005F07D1FFF70CFE001BB0F57A7FF4D986
:1011AC00012000E0002010BD0020704700480258CC
:1011BC00002800F0D58238B50446036813F0010FFF
:1011CC0025D0A04A136903F03803926A102B15D06E
:1011DC00182B0FD06368B3F5803F3FD0002B53D151
:1011EC00984B1A6822F480321A601A6822F4802212
:1011FC001A6038E002F00302022AEBD1914B1B6813
:10120C0013F4003F03D06368002B00F0AB8223681B
:10121C0013F0020F00F088808A4A1369926A13F067
:10122C0038035AD0182B55D0E368002B00F0A98056
:10123C0084490A6822F0190213430B60FFF7B8FDCA
:10124C000546804B1B6813F0040F40F09180FFF7AC
:10125C00AFFD401B0228F4D903208AE2794A1368B7
:10126C0043F48033136063682BB3FFF7A1FD05468D
:10127C00744B1B6813F4003FC9D1FFF799FD401B59
:10128C006428F5D9032074E2B3F5A02F09D06D4B77
:10129C001A6822F480321A601A6822F480221A60CA
:1012AC00E1E7684B1A6842F480221A601A6842F42B
:1012BC0080321A60D7E7FFF77BFD0546614B1B6850
:1012CC0013F4003FA3D0FFF773FD401B6428F5D93E
:1012DC0003204EE212F0030FA6D15A4B1B6813F0F9
:1012EC00040F03D0E368002B00F03E82554A1368CC
:1012FC0023F01903E1680B431360FFF759FD054612
:10130C00504B1B6813F0040F06D1FFF751FD401B27
:10131C000228F5D903202CE24A4A536823F0FE43F5
:10132C00216943EA01635360236813F0100F51D015
:10133C00444A136903F03803926A082B39D0182BEE
:10134C0033D0E369002B69D03E4A136843F0800325
:10135C001360FFF72DFD05463A4B1B6813F4807F95
:10136C0053D1FFF725FD401B0228F5D9032000E2DD
:10137C00344A536823F0FE43216943EA0163536006
:10138C00D2E7304A136823F001031360FFF710FD16
:10139C0005462C4B1B6813F0040FC5D0FFF708FD56
:1013AC00401B0228F5D90320E3E102F00302012AD5
:1013BC00C7D1244B1B6813F4807F03D0E369802BC7
:1013CC0040F0D4811F4AD36823F07C53216A43EA4E
:1013DC000163D360236813F0080F49D06369002BB5
:1013EC0032D0184A536F43F001035367FFF7E0FC08
:1013FC000546144B5B6F13F0020F39D1FFF7D8FC85
:10140C00401B0228F5D90320B3E10E4AD36823F020
:10141C007C53216A43EA0163D360DBE7094A136812
:10142C0023F080031360FFF7C3FC0546054B1B68D4
:10143C0013F4807FCED0FFF7BBFC401B0228F5D9FC
:10144C00032096E1004402589D4A536F23F0010398
:10145C005367FFF7ADFC0546994B5B6F13F0020F1A
:10146C0006D0FFF7A5FC401B0228F5D9032080E12C
:10147C00236813F0200F29D0A3699BB1904A1368FD
:10148C0043F480531360FFF793FC05468C4B1B68A9
:10149C0013F4005F1AD1FFF78BFC401B0228F5D91F
:1014AC00032066E1864A136823F480531360FFF728
:1014BC007FFC0546824B1B6813F4005F06D0FFF7D8
:1014CC0077FC401B0228F5D9032052E1236813F066
:1014DC00040F21D1636A002B00F04A81784A12690B
:1014EC0002F03802182A00F0F180022B75D0744AF1
:1014FC00136823F080731360FFF75AFC0446704B9B
:10150C001B6813F0007F00F0D880FFF751FC001B24
:10151C000228F4D903202CE16A4A136843F480733F
:10152C001360FFF745FC0546664B1B6813F4807F80
:10153C0006D1FFF73DFC401B6428F5D9032018E1C8
:10154C00A368012B0AD00BBB5D4B1A6F22F0010272
:10155C001A671A6F22F004021A6704E0584A136FD4
:10156C0043F001031367A36833B3FFF721FC05466F
:10157C00534B1B6F13F0020FACD1FFF719FC401B40
:10158C0041F288339842F3D90320F2E0052B09D0BD
:10159C004B4B1A6F22F001021A671A6F22F00402E9
:1015AC001A67E0E7464B1A6F42F004021A671A6F8B
:1015BC0042F001021A67D6E7FFF7FAFB0546404BEB
:1015CC001B6F13F0020F85D0FFF7F2FB401B41F2AB
:1015DC0088339842F3D90320CBE0394A136823F0BF
:1015EC0080731360FFF7E4FB0546354B1B6813F063
:1015FC00007F06D0FFF7DCFB401B0228F5D9032047
:10160C00B7E02F4B996A304A0A40A16AE06A41EA76
:10161C0000110A439A62226B013AC2F30802616B11
:10162C000139490289B20A43A16B0139090401F459
:10163C00FE010A43E16B0139090601F0FE410A4340
:10164C001A63DA6A22F00102DA625A6B6FF3CF0284
:10165C00A16C42EAC1025A63DA6A22F00C02216CD4
:10166C000A43DA62DA6A22F00202616C0A43DA6235
:10167C00DA6A42F48032DA62DA6A42F40032DA620E
:10168C00DA6A42F48022DA62DA6A42F00102DA6241
:10169C001A6842F080721A60FFF78AFB0446084B06
:1016AC001B6813F0007F06D1FFF782FB001B02289A
:1016BC00F5D903205DE000205BE0002059E000BF7D
:1016CC0000440258004802580CFCFFFF30498A6A5B
:1016DC00086B012B4ED002F00303A16A8B424BD155
:1016EC00C2F30512E36A9A4248D1C0F30802236B95
:1016FC00013B9A4244D1C0F34622636B013B9A42B0
:10170C0040D1C0F30642A36B013B9A423CD1C0F3DB
:10171C000660E36B013B984238D11D4B5B6BC3F306
:10172C00CC03A26C9A4201D1002022E0184AD36A61
:10173C0023F00103D362FFF73BFB0546FFF738FBB1
:10174C00A842FBD0124A536B6FF3CF03A16C43EA50
:10175C00C1035363D36A43F00103D362002008E052
:10176C0001207047012004E0012002E0012000E08C
:10177C00002038BD0120FCE70120FAE70120F8E742
:10178C000120F6E70120F4E70120F2E70120F0E761
:10179C0000440258F8B5814B1B6903F03803102B39
:1017AC0000F0F480182B0FD0002B40F0F2807B4B14
:1017BC001B6813F0200F00F0EE80784B1B68C3F30E
:1017CC00C103774CDC40E2E0744B9D6A05F00305E5
:1017DC009C6AC4F30514D86A00F001005B6BC3F378
:1017EC00CC0303FB00F0FEF721FE0646002C00F0B4
:1017FC00CE80012D56D0022D00F08480002D40F0BB
:10180C00A380664B1B6813F0200F29D0634F3B68F5
:10181C00C3F3C1036248D840FEF708FE05462046D4
:10182C00FEF704FE01462846FEF70CFF0446386B13
:10183C00C0F30800FEF7FAFD05464FF06451304640
:10184C00FEF74CFE01462846FEF740FD4FF07E5158
:10185C00FEF73CFD01462046FEF740FE044642E002
:10186C002046FEF7E3FD01464E48FEF7EBFE04462C
:10187C004A4B186BC0F30800FEF7D8FD05464FF035
:10188C0064513046FEF72AFE01462846FEF71EFD3F
:10189C004FF07E51FEF71AFD01462046FEF71EFE64
:1018AC00044620E02046FEF7C1FD01463E48FEF707
:1018BC00C9FE0446394B186BC0F30800FEF7B6FDA1
:1018CC0005464FF064513046FEF708FE01462846A7
:1018DC00FEF7FCFC4FF07E51FEF7F8FC014620466B
:1018EC00FEF7FCFD04462D4B1B6BC3F34623581C23
:1018FC00FEF79CFD01462046FEF7A4FEFEF73EFFD8
:10190C00044644E02046FEF791FD01462748FEF7C9
:10191C0099FE0446214B186BC0F30800FEF786FDB8
:10192C0005464FF064513046FEF7D8FD0146284677
:10193C00FEF7CCFC4FF07E51FEF7C8FC014620466A
:10194C00FEF7CCFD0446CEE72046FEF76FFD0146C0
:10195C001548FEF777FE0446104B186BC0F30800D1
:10196C00FEF764FD05464FF064513046FEF7B6FDB8
:10197C0001462846FEF7AAFC4FF07E51FEF7A6FC66
:10198C0001462046FEF7AAFD0446ACE7084C20466B
:10199C00F8BD084CFBE7024CF9E700BF00440258C5
:1019AC000090D0030024744C0024744A0024744B1F
:1019BC000024F40000093D00002800F0328170B5CD
:1019CC000D4604469B4B1B6803F00F038B420BD256
:1019DC00984A136823F00F030B431360136803F04A
:1019EC000F038B4240F01F81236813F0040F0CD0BF
:1019FC002269914B9B6903F070039A4205D98E4979
:101A0C008B6923F070031A438A61236813F0080F63
:101A1C000CD06269884BDB6903F070039A4205D9DC
:101A2C008549CB6923F070031A43CA61236813F00C
:101A3C00100F0CD0A269804BDB6903F4E0639A426F
:101A4C0005D97D49CB6923F4E0631A43CA61236845
:101A5C0013F0200F0CD0E269774B1B6A03F0700374
:101A6C009A4205D974490B6A23F070031A430A622F
:101A7C00236813F0020F0CD0E2686F4B9B6903F0E4
:101A8C000F039A4205D96C498B6923F00F031A4353
:101A9C008A61236813F0010F41D0674A936923F4DC
:101AAC007063A1680B4393616368022B0AD0032B0C
:101ABC0027D0012B2CD0604A126812F0040F06D1EB
:101ACC000120ADE0126812F4003F00F0AE805A49DC
:101ADC000A6922F0070213430B61FFF769F9064606
:101AEC00554B1B6903F038036268B3EBC20F16D079
:101AFC00FFF75EF9801B41F288339842F0D903203E
:101B0C008EE04D4A126812F0007FE0D1012087E090
:101B1C00494A126812F4807FD9D1012080E02368F1
:101B2C0013F0020F0CD0E268434B9B6903F00F03D8
:101B3C009A4205D240498B6923F00F031A438A61FC
:101B4C003C4B1B6803F00F03AB420AD9394A1368AC
:101B5C0023F00F032B431360136803F00F03AB4206
:101B6C0065D1236813F0040F0CD02269324B9B69AA
:101B7C0003F070039A4205D22F498B6923F070034E
:101B8C001A438A61236813F0080F0CD062692A4B40
:101B9C00DB6903F070039A4205D22749CB6923F025
:101BAC0070031A43CA61236813F0100F0CD0A2699A
:101BBC00214BDB6903F4E0639A4205D21E49CB69E1
:101BCC0023F4E0631A43CA61236813F0200F0CD08E
:101BDC00E269194B1B6A03F070039A4205D216494D
:101BEC000B6A23F070031A430A62FFF7D3FD124904
:101BFC008B69C3F30323114AD35C03F01F03D84052
:101C0C008B6903F00F03D35C03F01F0320FA03F37B
:101C1C000B4A13600B4B18600B4B1868FFF766F8F8
:101C2C0070BD012070470120FAE70120F8E7012080
:101C3C00F6E700BF0020005200440258102C0008A8
:101C4C0000000024040000240C000024404B9B6A7C
:101C5C0003F00303032B79D070B505460E463C4ABE
:101C6C00136823F080631360FFF7A2F80446384B27
:101C7C001B6813F0006F06D0FFF79AF8031B022BBA
:101C8C00F5D9032070BD324B9A6A22F47C32296854
:101C9C0042EA01329A626A68013AC2F30802A96800
:101CAC000139490289B20A43E9680139090401F48E
:101CBC00FE010A4329690139090601F0FE410A4374
:101CCC009A63DA6A22F0C00269690A43DA62DA6A54
:101CDC0022F02002A9690A43DA62DA6A22F01002C1
:101CEC00DA62DA6B6FF3CF02E96942EAC102DA63B6
:101CFC00DA6A42F01002DA62C6B91A46DB6A43F4B9
:101D0C000023D362124A136843F080631360FFF719
:101D1C004FF804460E4B1B6813F0006F14D1FFF7FD
:101D2C0047F8001B0228F5D90320ABE7012E05D09C
:101D3C00074AD36A43F40013D362E3E7044AD36A35
:101D4C0043F48013D362DDE700209BE7012070474A
:101D5C0000440258404B9B6A03F00303032B79D0D9
:101D6C0070B505460E463C4A136823F08053136049
:101D7C00FFF71EF80446384B1B6813F0005F06D0C3
:101D8C00FFF716F8031B022BF5D9032070BD324B5D
:101D9C009A6A22F07C72296842EA01529A626A6855
:101DAC00013AC2F30802A9680139490289B20A430F
:101DBC00E9680139090401F4FE010A432969013972
:101DCC00090601F0FE410A431A64DA6A22F4406201
:101DDC0069690A43DA62DA6A22F40072A9690A4371
:101DEC00DA62DA6A22F48072DA625A6C6FF3CF022A
:101DFC00E96942EAC1025A64DA6A42F48072DA6230
:101E0C00C6B91A46DB6A43F48003D362124A1368DC
:101E1C0043F080531360FEF7CBFF04460E4B1B6858
:101E2C0013F0005F14D1FEF7C3FF001B0228F5D995
:101E3C000320ABE7012E05D0074AD36A43F0807329
:101E4C00D362E3E7044AD36A43F40003D362DDE7C9
:101E5C0000209BE70120704700440258F8B5044667
:101E6C00036813F0006F2FD0436EB3F5001F25D01D
:101E7C0015D8E3B1B3F5801F0ED102210830FFF75E
:101E8C00E5FE054675BB934A136D23F44013616E52
:101E9C000B431365002619E00126354616E0B3F511
:101EAC00401F01D10025EEE7012635460EE0894A98
:101EBC00D36A43F40033D3620025E4E702212830CF
:101ECC00FFF748FF0546DDE700263546236813F487
:101EDC00807F29D0A36D042B22D8DFE803F00513F3
:101EEC001A0A0A002E46F1E77A4AD36A43F4003301
:101EFC00D362C5B9774A136D23F00703A16D0B4369
:101F0C00136511E0002104F10800FFF79FFE054660
:101F1C00EFE7002104F12800FFF71CFF0546E8E776
:101F2C000126354600E02E46236813F4806F2DD031
:101F3C00D4F8A430B3F5800F3DD00DD8C3B1B3F5B0
:101F4C00001F06D1002104F10800FFF77FFE0546B3
:101F5C0013E00126354619E0B3F5000F0DD0B3F5AB
:101F6C00200F0AD0B3F5C00F07D0012635460DE07F
:101F7C00584AD36A43F40033D3621DBB554A936D60
:101F8C0023F46003D4F8A4100B439365236813F473
:101F9C00006F37D0D4F8A830B3F1007F5ED016D8DC
:101FAC000BB3B3F1807F0FD1002104F10800FFF7D0
:101FBC004DFE05461CE0002104F12800FFF7CAFE87
:101FCC000546DAE72E46E1E7012635461AE0B3F17D
:101FDC00806F0DD0B3F1A06F0AD0B3F1407F07D062
:101FEC00012635460EE03B4AD36A43F40033D362F4
:101FFC00002D3AD1374A936D23F0E063D4F8A81042
:10200C000B439365236813F0007F13D0E36C202BF4
:10201C0035D02FD833B1102B29D12E4AD36A43F4A3
:10202C000033D36295BB2B4AD36C23F03003E16CA5
:10203C000B43D364236813F4805F4ED0E36DB3F588
:10204C00005F3FD027D87BB3B3F5805F20D1002150
:10205C0004F10800FFF7FAFD05462AE0002104F11F
:10206C002800FFF777FE0546C2E72E46CAE7012691
:10207C003546DFE7302BD5D001263546DAE702218D
:10208C0004F10800FFF7E2FD0546CBE72E46D1E749
:10209C000126354621E0B3F5405F0AD0B3F5804FF9
:1020AC0007D00126354618E00A4AD36A43F40033B8
:1020BC00D3628DB9074A136D23F4E043E16D0B43F2
:1020CC0013650AE0002104F12800FFF743FE0546E2
:1020DC00EFE700BF004402582E46236813F4005F5C
:1020EC0017D0236EB3F5003F4FD042D843B1B3F5B0
:1020FC00803F3BD1012104F10800FFF7A7FD054605
:10210C00002D49D1924A136D23F4E023216E0B4329
:10211C001365236813F4804F19D0D4F8AC30B3F1A5
:10212C00005F4AD03DD843B1B3F1805F36D1012175
:10213C0004F10800FFF78AFD0546002D44D1844ABE
:10214C00936D23F0E043D4F8AC100B4393652368F4
:10215C0013F4004F47D0E36EB3F1805F36D0B3F188
:10216C00005F4BD0BBB3012635463CE0012635461B
:10217C00CFE7B3F5802FC3D0B3F5A02FC0D0B3F504
:10218C00403FBDD001263546C3E7012104F12800AC
:10219C00FFF7E0FD0546B3E72E46BAE701263546C4
:1021AC00D5E7B3F1804FC8D0B3F1A04FC5D0B3F190
:1021BC00405FC2D001263546C9E7012104F1280051
:1021CC00FFF7C8FD0546B8E72E46C0E7604AD36A5C
:1021DC0043F40033D362C5B95D4A136D23F0405309
:1021EC00E16E0B431365236813F0807F1CD0A36C46
:1021FC00032B44D8DFE803F0100B3C10012104F151
:10220C000800FFF723FD0546E5E72E46EBE7504AAD
:10221C00D36A43F40033D362A5BB4D4AD36C23F08D
:10222C000303A16C0B43D364236813F4800F2BD1ED
:10223C00236813F0010F00F0A980A36F282B00F284
:10224C00A380DFE803F091A1A1A1A1A1A1A18BA181
:10225C00A1A1A1A1A1A19AA1A1A1A1A1A1A191A179
:10226C00A1A1A1A1A1A191A1A1A1A1A1A1A1910013
:10227C00022104F10800FFF7E9FC0546CCE7012632
:10228C003546D1E72E46CFE7324A136843F48073C4
:10229C001360FEF78DFD07462E4B1B6813F4807FF1
:1022AC0005D1FEF785FDC01B6428F5D90325002D4B
:1022BC004AD1274B1B6FD4F8B020534013F4407F06
:1022CC000CD0234B1A6F22F44072196F41F48031F9
:1022DC001967196F21F4803119671A67D4F8B03077
:1022EC00B3F5807F15D08DBBD4F8B03003F44072B9
:1022FC00B2F5407F1ED0164A136923F47C53136148
:10230C0013490B6FD4F8B020C2F30B0213430B67C5
:10231C008EE7FEF74DFD07460D4B1B6F13F0020FBA
:10232C00E1D1FEF745FDC01B41F288339842F3D949
:10233C000325D8E70648026922F47C52064901EAD3
:10234C00131313430361DBE72E4671E72E466FE749
:10235C000044025800480258CFFFFF00012104F14D
:10236C000800FFF773FC0546E5B9B14A536D23F03D
:10237C003803A16F0B43536508E0012104F12800D9
:10238C00FFF7E8FC0546EFE701263546236813F016
:10239C00020F17D0636F052B29D8DFE803F00B056C
:1023AC00210B0B0B2E46F1E7012104F10800FFF77E
:1023BC004DFC0546F5B99E4A536D23F00703616F3A
:1023CC000B435365236813F0040F26D0D4F89030D8
:1023DC00052B00F2D680DFE803F0150FCD1515158F
:1023EC00012104F12800FFF7B5FC0546E2E70126C0
:1023FC003546E7E72E46E5E7012104F10800FFF733
:10240C0025FC0546002D40F0BF80894A936D23F0D2
:10241C000703D4F890100B439365236813F0200F37
:10242C001DD0D4F88C30B3F1005F00F0C18000F205
:10243C00B0804BB1B3F1805F40F0A880002104F173
:10244C000800FFF703FC0546002D40F0B880784AE1
:10245C00536D23F0E043D4F88C100B435365236881
:10246C0013F0400F1DD0D4F89830B3F5006F00F086
:10247C00BA8000F2A9804BB1B3F5806F40F0A18017
:10248C00002104F10800FFF7E1FB0546002D40F0A8
:10249C00B180674A936D23F4E053D4F898100B4342
:1024AC009365236813F0800F1DD0D4F89C30B3F5DE
:1024BC00804F00F0B38000F2A2804BB1B3F5005F07
:1024CC0040F09A80002104F10800FFF7BFFB05469D
:1024DC00002D40F0AA80564A936D23F46043D4F843
:1024EC009C100B439365236813F0080F0DD0D4F8A0
:1024FC008030B3F5805F00F09D804D4A536D23F41E
:10250C004053D4F880100B435365236813F0100F1D
:10251C000DD0D4F89430B3F5807F00F09580444A08
:10252C00936D23F44073D4F894100B439365236894
:10253C0013F4002F00F09D80D4F8A030B3F5803F49
:10254C0000F08C80B3F5003F08D0002B40F08D805C
:10255C00002104F10800FFF779FB0546002D40F03F
:10256C008780334A936D23F44033D4F8A0100B4387
:10257C0093657EE0012104F12800FFF7EBFB054693
:10258C0040E70126354648E72E4646E70126354604
:10259C0065E7B3F1804F3FF457AFB3F1A04F3FF471
:1025AC0053AFB3F1405F3FF44FAF0126354656E7CA
:1025BC00022104F12800FFF7CDFB054644E72E4627
:1025CC004DE7012635466CE7B3F5805F3FF45EAF0F
:1025DC00B3F5A05F3FF45AAFB3F5406F3FF456AF7D
:1025EC00012635465DE7022104F12800FFF7B2FB16
:1025FC0005464BE72E4654E70126354673E7B3F5FF
:10260C00004F3FF465AFB3F5204F3FF461AFB3F526
:10261C00C04F3FF45DAF0126354664E7022104F15B
:10262C002800FFF797FB054652E72E465BE700BFF5
:10263C0000440258022104F12800FFF78BFB00280C
:10264C003FF45BAF012658E7022104F12800FFF7A5
:10265C0081FB00283FF463AF012660E7022104F1FF
:10266C002800FFF777FB054678E70126354600E0A2
:10267C002E46236813F4802F24D0D4F88430B3F57D
:10268C00001F14D0B3F5401F07D0B3F5801F15D130
:10269C007C4AD36A43F40033D36295B9794A536DBB
:1026AC0023F44013D4F884100B4353650AE0012142
:1026BC0004F12800FFF74EFB0546EEE701263546F0
:1026CC0000E02E46236813F4803F06D0236DCBB177
:1026DC00B3F5803F24D001263546236813F0005F04
:1026EC0027D1236813F4003F3DD0E36FB3F5807F0F
:1026FC002BD027D9B3F5007F2CD0B3F5407F29D050
:10270C00012630E05F4AD36A43F40033D36275B9D3
:10271C005C4AD36C23F48033216D0B43D364DCE728
:10272C00022104F10800FFF791FA0546EFE72E4667
:10273C00D3E7022104F12800FFF70CFB0028D0D0CE
:10274C000126CEE733B101260DE04E4AD36A43F49D
:10275C000033D362002D5CD14A4A536D23F440738D
:10276C00E16F0B435365236813F4801F06D0454A71
:10277C00136D23F00043216F0B431365236813F48F
:10278C00001F06D03F4A136D23F08073A16E0B43DC
:10279C001365236813F0804F09D03A4B1A6922F461
:1027AC0000421A611A69D4F8B4100A431A612368FA
:1027BC00002B06DA334AD36C23F04053616D0B4384
:1027CC00D364236813F4000F07D02E4A536D23F4FF
:1027DC004003D4F888100B435365636813F0010F62
:1027EC0019D1636813F0020F1ED1636813F0040F44
:1027FC0023D1636813F0080F28D1636813F0100F0E
:10280C002DD1636813F0200F32D106B1012630466A
:10281C00F8BD2E46A7E7002104F10800FFF716FAD1
:10282C000028DED00646DCE7012104F10800FFF7A2
:10283C000DFA0028D9D00646D7E7022104F108008A
:10284C00FFF704FA0028D4D00646D2E7002104F1A1
:10285C002800FFF77FFA0028CFD00646CDE70121EC
:10286C0004F12800FFF776FA0028CAD00646C8E71C
:10287C00022104F12800FFF76DFA0028C5D00126CB
:10288C00C5E700BF00440258C36B5B09C068083041
:10289C00C00803FB00007047002800F0B78070B53B
:1028AC0004460023836205685C4B5D4E9D4218BF55
:1028BC00B54214BF0126002607D0A3F574439D42F0
:1028CC0003D0C3680F2B00F2A3802046FFF7DCFF78
:1028DC002EB1544B9D4202D0082800F29B804F4AE7
:1028EC004F4B9D4218BF954203D003F580639D4228
:1028FC0002D1102800F2908094F88130F3B10223B9
:10290C0084F881302268136823F001031360236874
:10291C009A6802F4F812A169B1F1806F14D063685F
:10292C0013F4800F23D0E368062B20D921680B68A1
:10293C0023F48073206D03430B601DE084F880301A
:10294C002046FEF7B5F8DAE76168B1F5800F06D0DE
:10295C000029E4D1A16BB1F1805FE0D102E0A06B62
:10296C000028F5D1196841F480511960D7E7216826
:10297C000B6823F480730B60E369A16A0B43134368
:10298C00E26B1343E16822680B439360636B626AEA
:10299C001343A26B1343A269134322691343626965
:1029AC001343226A134362681343E26C1343A26815
:1029BC001343A26C1343A16D22680B43D36063686D
:1029CC006BB92268936823F4C05343F4006393609B
:1029DC002268936823F4C06343F480639360226895
:1029EC00136D23F001031365636813F4800F06D095
:1029FC002268D36823F00043616D0B43D360002041
:102A0C00C4F88400012384F8813070BD0120704724
:102A1C000120FAE70120F8E70120F6E70030014039
:102A2C0000380040003C0040830730B547D0541EAE
:102A3C00002A3ED0CAB2034601E0013C39D303F868
:102A4C00012B9D07F9D1032C2CD9CDB205EB052513
:102A5C000F2C05EB054535D9A4F1100222F00F0C13
:102A6C0003F1100EE6444FEA121C1A46C2E9005557
:102A7C00C2E9025510327245F8D10CF1010214F082
:102A8C000C0F03EB021204F00F0C13D0ACF1040387
:102A9C0023F003030433134442F8045B9342FBD149
:102AAC000CF003042CB1C9B21C4403F8011BA34263
:102ABC00FBD130BD64461346002CF4D1F9E7034634
:102ACC001446C0E71A46A446E0E700BF70B50F4BAA
:102ADC000F4DAB42A3EB050607D0B610002455F8FA
:102AEC00043B01349847A642F9D800F07FF8094D11
:102AFC00094B5E1BAB424FEAA60606D0002455F8E4
:102B0C00043B01349847A642F9D870BD202C00082C
:102B1C00202C0008202C0008282C0008704700BF2F
:102B2C00704700BF024B13B1024800F005B8704764
:102B3C0000000000512B0008002301461A461846DD
:102B4C0000F014B838B5074D074C2C1BA41005D059
:102B5C00013C55F8043D9847002CF9D1BDE83840AC
:102B6C0000F04AB82C2C0008282C00082DE9F8435A
:102B7C001B4D0646286898460F469146FFF7CEFF38
:102B8C00184B1C681CB3286865681F2D22DC4EB9D5
:102B9C006B1C0235636044F82570FFF7C1FF002001
:102BAC00BDE8F88304EB85010123C1F88890D4F8C3
:102BBC008821AB401A43022EC4F88821C1F8088141
:102BCC00E6D1D4F88C211A43C4F88C21E0E7064CEA
:102BDC001C60D8E7FFF7A4FF4FF0FF30E0E700BF21
:102BEC0010000024C0000024C4000024F8B500BF6D
:102BFC00F8BC08BC9E467047F8B500BFF8BC08BCD2
:042C0C009E46704729
:102C10000000000001020304010203040607080982
:082C2000312B00083108000807
:042C2800090800088F
:102C2C000090D0030090D0030100000010000000C1
:042C3C00BC000024B4
:0400000508000CA142
:00000001FF
