:020000040800F2
:1000000000000524E50C0008E50B0008E70B0008DC
:10001000E90B0008EB0B0008ED0B000800000000E6
:10002000000000000000000000000000EF0B0008CE
:10003000F10B000800000000F30B0008F50B0008AE
:10004000390D0008390D0008390D0008390D000878
:10005000390D0008390D0008390D0008390D000868
:10006000390D0008390D0008390D0008390D000858
:10007000390D0008390D0008390D0008390D000848
:10008000390D0008390D0008390D0008390D000838
:10009000390D0008390D0008390D0008390D000828
:1000A000390D0008390D0008390D0008390D000818
:1000B000390D0008390D0008390D0008390D000808
:1000C000390D0008390D0008390D0008390D0008F8
:1000D000390D0008390D0008390D0008390D0008E8
:1000E000390D0008390D000800000000390D000826
:1000F000390D0008390D0008390D0008390D0008C8
:10010000390D0008390D0008390D0008390D0008B7
:10011000390D0008390D0008390D0008390D0008A7
:10012000390D0008390D0008390D0008390D000897
:10013000390D0008390D0008390D0008390D000887
:1001400000000000000000000000000000000000AF
:10015000390D0008390D0008390D0008390D000867
:10016000390D0008390D0008390D0008390D000857
:10017000390D0008FD0B0008390D000800000000D3
:10018000390D0008390D0008390D0008390D000837
:10019000390D0008390D0008390D0008390D000827
:1001A000390D0008390D0008390D00080000000065
:1001B000390D0008390D0008390D0008390D000807
:1001C000390D0008390D0008000000000000000093
:1001D0000000000000000000390D000800000000D1
:1001E000000000000000000000000000000000000F
:1001F0000000000000000000390D0008390D000863
:10020000390D0008390D000800000000390D000804
:10021000390D0008390D0008390D0008390D0008A6
:10022000390D000800000000390D00080000000032
:10023000390D0008390D000800000000390D0008D4
:10024000390D0008390D0008390D0008390D000876
:10025000390D0008390D0008390D0008390D000866
:10026000390D0008390D0008390D0008390D000856
:10027000390D0008390D0008390D00080000000094
:10028000390D0008390D0008390D0008390D000836
:1002900000000000390D0008390D000800000000C2
:1002A00000000000390D0008390D0008390D000864
:1002B000390D0008390D0008390D0008390D000806
:0C02C000390D0008390D0008390D000848
:1002CC0080F0004002E000BF81F0004142001FBFFF
:1002DC005FEA410392EA030F7FEA226C7FEA236C08
:1002EC006AD04FEA1262D2EB1363C1BFD2184140FD
:1002FC0048404140B8BF5B42192B88BF704710F093
:10030C00004F40F4000020F07F4018BF404211F035
:10031C00004F41F4000121F07F4118BF494292EA9D
:10032C00030F3FD0A2F1010241FA03FC10EB0C00C9
:10033C00C3F1200301FA03F100F0004302D5494256
:10034C0060EB4000B0F5000F13D3B0F1807F06D303
:10035C0040084FEA310102F10102FE2A51D2B1F1FB
:10036C00004F40EBC25008BF20F0010040EA0300F0
:10037C007047490040EB0000013A28BFB0F5000F70
:10038C00EDD2B0FA80FCACF1080CB2EB0C0200FA26
:10039C000CF0AABF00EBC25052421843BCBFD04075
:1003AC001843704792F0000F81F4000106BF80F4EF
:1003BC0000000132013BB5E74FEA41037FEA226CB2
:1003CC0018BF7FEA236C21D092EA030F04D092F07D
:1003DC00000F08BF0846704790EA010F1CBF0020B1
:1003EC00704712F07F4F04D1400028BF40F000400E
:1003FC00704712F100723CBF00F50000704700F02E
:10040C00004343F0FE4040F4000070477FEA226254
:10041C0016BF08467FEA23630146420206BF5FEA25
:10042C00412390EA010F40F4800070474FF0000325
:10043C0004E000BF10F0004348BF40425FEA000CEC
:10044C0008BF704743F0964301464FF000001CE094
:10045C0050EA010208BF70474FF000030AE000BFEA
:10046C0050EA010208BF704711F0004302D5404228
:10047C0061EB41015FEA010C02BF8446014600209A
:10048C0043F0B64308BFA3F18053A3F50003BCFAB5
:10049C008CF2083AA3EBC25310DB01FA02FC634462
:1004AC0000FA02FCC2F12002BCF1004F20FA02F269
:1004BC0043EB020008BF20F00100704702F120025C
:1004CC0001FA02FCC2F1200250EA4C0021FA02F2BD
:1004DC0043EB020008BF20EADC7070474FF0FF0CC2
:1004EC001CEAD0521EBF1CEAD15392EA0C0F93EABD
:1004FC000C0F6FD01A4480EA010C400218BF5FEA5F
:10050C0041211ED04FF0006343EA501043EA5111D1
:10051C00A0FB01310CF00040B1F5000F3EBF4900CB
:10052C0041EAD3715B0040EA010062F17F02FD2ACF
:10053C001DD8B3F1004F40EBC25008BF20F00100B2
:10054C00704790F0000F0CF0004C08BF49024CEAC9
:10055C00502040EA51207F3AC2BFD2F1FF0340EA5B
:10056C00C250704740F400004FF00003013A5DDCCC
:10057C0012F1190FDCBF00F000407047C2F100020D
:10058C00410021FA02F1C2F1200200FA02FC5FEAFA
:10059C00310040F1000053EA4C0308BF20EADC7044
:1005AC00704792F0000F00F0004C02BF400010F4B6
:1005BC00000F013AF9D040EA0C0093F0000F01F063
:1005CC00004C02BF490011F4000F013BF9D041EA85
:1005DC000C018FE70CEAD15392EA0C0F18BF93EA87
:1005EC000C0F0AD030F0004C18BF31F0004CD8D1B1
:1005FC0080EA010000F00040704790F0000F17BF38
:10060C0090F0004F084691F0000F91F0004F14D07D
:10061C0092EA0C0F01D142020FD193EA0C0F03D1D5
:10062C004B0218BF084608D180EA010000F00040D8
:10063C0040F0FE4040F40000704740F0FE4040F4B3
:10064C00400070474FF0FF0C1CEAD0521EBF1CEA52
:10065C00D15392EA0C0F93EA0C0F69D0A2EB030270
:10066C0080EA010C49024FEA402037D04FF080530A
:10067C0043EA111143EA10130CF000408B4238BFCF
:10068C005B0042F17D024FF4000C8B4224BF5B1ADD
:10069C0040EA0C00B3EB510F24BFA3EB510340EA2B
:1006AC005C00B3EB910F24BFA3EB910340EA9C00D9
:1006BC00B3EBD10F24BFA3EBD10340EADC001B0149
:1006CC0018BF5FEA1C1CE0D1FD2A3FF650AF8B42ED
:1006DC0040EBC25008BF20F0010070470CF0004CFA
:1006EC004CEA50207F32C2BFD2F1FF0340EAC25025
:1006FC00704740F400004FF00003013A37E792F0E6
:10070C00000F00F0004C02BF400010F4000F013A43
:10071C00F9D040EA0C0093F0000F01F0004C02BF3E
:10072C00490011F4000F013BF9D041EA0C0195E7A7
:10073C000CEAD15392EA0C0F08D142027FF47DAF40
:10074C0093EA0C0F7FF470AF084676E793EA0C0F30
:10075C0004D14B023FF44CAF08466EE730F0004C2E
:10076C0018BF31F0004CCAD130F000427FF45CAFBE
:10077C0031F000437FF43CAF5FE700BF42000ED284
:10078C00B2F1FE4F0BD34FF09E03B3EB126209D4C0
:10079C004FEA002343F0004323FA02F070474FF076
:1007AC000000704712F1610F01D1420202D14FF0EB
:1007BC00FF3070474FF00000704700BF0348044BF8
:1007CC00834202D0034B03B1184770470401002445
:1007DC0004010024000000000548064B1B1AD90F29
:1007EC0001EBA301491002D0034B03B1184770472A
:1007FC0004010024040100240000000010B5064C84
:10080C00237843B9FFF7DAFF044B13B10448AFF375
:10081C0000800123237010BD04010024000000009F
:10082C00845A000808B5054B1BB105490548AFF3C0
:10083C000080BDE80840FFF7CFBF00BF00000000FC
:10084C0008010024845A0008F0B58BB000240594EC
:10085C000694079408940994344BD3F8E02042F0A2
:10086C008002C3F8E020D3F8E02002F0800200926E
:10087C00009AD3F8E02042F00102C3F8E020D3F84C
:10088C00E02002F001020192019AD3F8E02042F03C
:10089C000802C3F8E020D3F8E02002F0080202922C
:1008AC00029AD3F8E02042F00402C3F8E020D3F817
:1008BC00E02002F004020392039AD3F8E02042F005
:1008CC000202C3F8E020D3F8E03003F002030493F3
:1008DC00049B174F22460721384600F081FC154D2A
:1008EC0022464FF40071284600F07AFC072305934A
:1008FC00012606960794089405A9384600F062FB79
:10090C004FF40073059306960794089405A928469E
:10091C0000F058FB21464FF0807000F085FA21461C
:10092C004FF0007000F080FA0BB0F0BD004402589C
:10093C0000000258000C025810B584B0002400943A
:10094C0001940294039400F0F3FA01238DF8003023
:10095C008DF8014001941F228DF8082087228DF814
:10096C0009208DF80A408DF80B408DF80C308DF86D
:10097C000D308DF80E408DF80F40684600F0F6FAF9
:10098C00042000F0E3FA04B010BD72B6FEE70000DC
:10099C0000B59DB04C22002109A804F08BFF202249
:1009AC00002101A804F086FF022001F097FA002331
:1009BC000093204B9A6922F440429A619B6903F49C
:1009CC0040430093009B1B4B9B6913F4005FFAD0D0
:1009DC00012309934FF480320A920222129213924D
:1009EC0014930F2115911693179218930C231993A6
:1009FC0000231A934FF4A0531B9309A801F0A0FAFB
:100A0C00A0B93F2301930321029100230393049384
:100A1C004023059306934FF480620792089301A834
:100A2C0001F092FE20B91DB05DF804FBFFF7ADFF9D
:100A3C00FFF7ABFF0048025808B5FFF77DFF00F049
:100A4C009FF9FFF7A5FFFFF7FFFE00F01BF804F07E
:100A5C00F3FC0B4C0121204600F0C8FB642000F095
:100A6C00CFF90221204600F0C1FB642000F0C8F948
:100A7C000421204600F0BAFB642000F0C1F9E8E73D
:100A8C000000025808B51548154B03604FF480035D
:100A9C004360002383600722C2604FF00072026142
:100AAC004FF0807242614FF080628261C3610362D9
:100ABC0043628362C3624FF0804242638363C363C9
:100ACC00036443648364C36403654365836502F014
:100ADC00CDFD00B908BDFFF758FFFBE7200100244E
:100AEC00003C004030B5B9B004460021339134913C
:100AFC00359136913791B82204A804F0DBFE2268B8
:100B0C00284B9A4201D039B030BD4FF480520023AB
:100B1C00CDE9042304A802F08BF800283ED1224B27
:100B2C00D3F8E82042F40042C3F8E820D3F8E820D8
:100B3C0002F400420192019AD3F8E02042F0040240
:100B4C00C3F8E020D3F8E02002F004020292029AEB
:100B5C00D3F8E02042F00802C3F8E020D3F8E030EC
:100B6C0003F008030393039B4FF440633393022574
:100B7C0034950024359436940623379333A90B48C7
:100B8C0000F020FA402333933495359436940523A2
:100B9C00379333A9064800F015FAB4E7FFF7F5FED2
:100BAC00BDE700BF003C004000440258000802585A
:100BBC00000C025882B0074BD3F8F42042F002022A
:100BCC00C3F8F420D3F8F43003F002030193019B33
:100BDC0002B0704700440258FEE7FEE7FEE7FEE76E
:100BEC00FEE770477047704708B500F0F7F808BD8E
:100BFC0008B5024800F033FE08BD00BFAC18002455
:100C0C00274B1B6803F00F03062B06D8244A1368E6
:100C1C0023F00F0343F007031360224B1A6842F0D2
:100C2C0001021A6000221A6119681F4A0A401A60F0
:100C3C001B4B1B6813F0080F06D0194A136823F0DE
:100C4C000F0343F007031360164B00229A61DA611D
:100C5C001A62164999621649D962164919635A6380
:100C6C009963DA6319645A64196821F48021196054
:100C7C001A66D3F8D43013F4805F10D1094BD3F833
:100C8C00D42042F48052C3F8D4200B4A43F2D20150
:100C9C001160D3F8D42022F48052C3F8D4207047CA
:100CAC0000200052004402587FEDF6EA00020202D6
:100CBC000000FF018002010100400052054AD36888
:100CCC0043F00203D360034B5B6813F4005FFAD06C
:100CDC00704700BF00480258DFF838D0FFF7EEFF2E
:100CEC00FFF78EFF0C480D490D4A002302E0D45843
:100CFC00C4500433C4188C42F9D30A4A0A4C00235A
:100D0C0001E013600432A242FBD304F025FEFFF78E
:100D1C0093FE704700000524000000240401002409
:100D2C00005B000804010024281F0024FEE70000DB
:100D3C00104B1B780BB90120704710B504464FF4CB
:100D4C007A70B0FBF3F30C4A1068B0FBF3F000F0D0
:100D5C00DBF868B90F2C01D901200AE000222146EA
:100D6C004FF0FF3000F0BCF8044B1C60002000E09A
:100D7C00012010BD08000024040000240C000024F5
:100D8C0010B5032000F09AF801F0CCFB0F498B69E9
:100D9C00C3F303230E4AD35C03F01F03D8408B69C3
:100DAC0003F00F03D35C03F01F0320FA03F3094A8B
:100DBC001360094B18600F20FFF7BAFF10B1012424
:100DCC00204610BD0446FFF7F5FEF9E70044025833
:100DDC009C5A00080000002404000024034B1B78DC
:100DEC00034A11680B441360704700BF08000024CD
:100DFC00A8010024014B1868704700BFA80100240B
:100E0C0038B50446FFF7F6FF0546B4F1FF3F02D0B4
:100E1C00044B1B781C44FFF7EDFF401BA042FAD398
:100E2C0038BD00BF08000024034A536823EA0003BE
:100E3C000B435360704700BF00040058002807DBC9
:100E4C0000F01F02400901239340024A42F820306F
:100E5C00704700BF00E100E0002804DB0901C9B2C3
:100E6C00044B1954704700F00F000901C9B2024B32
:100E7C001954704700E400E014ED00E000B500F0F8
:100E8C000700C0F1070CBCF1040F28BF4FF0040C95
:100E9C00031D062B0FD9C31E4FF0FF3E0EFA0CF0AC
:100EAC0021EA000199400EFA03FE22EA0E0241EA01
:100EBC0002005DF804FB0023EEE700000649CB6856
:100ECC0023F4E0631B041B0C000200F4E0600343FA
:100EDC00024A1A43CA60704700ED00E00000FA05B0
:100EEC0010B50446054BD868C0F30220FFF7C6FFC7
:100EFC0001462046FFF7B0FF10BD00BF00ED00E03B
:100F0C0008B5FFF79BFF08BD0138B0F1807F0BD20D
:100F1C004FF0E0235861054AF02182F8231000209D
:100F2C00986107221A6170470120704700ED00E0BC
:100F3C00BFF35F8F044B5A6A22F480325A6200224C
:100F4C00C3F89420704700BF00ED00E040F00100B2
:100F5C00054BC3F894005A6A42F480325A62BFF3CC
:100F6C004F8FBFF36F8F704700ED00E04378144A4A
:100F7C00C2F89830D2F8A03023F00103C2F8A030A8
:100F8C004368C2F89C30017BC37A1B0643EA0173A9
:100F9C00817A43EAC143417B43EA8143817B43EA43
:100FAC004143C17B43EA0143417A43EA0123017A7D
:100FBC0043EA410301780B43C2F8A030704700BFED
:100FCC0000ED00E070B582B000236EE085685E0035
:100FDC000324B44025EA0405CC68B4402C43846057
:100FEC00456825EA0C054C68C4F300149C402C435E
:100FFC0044606DE0DD08083550F8254003F0070C1F
:10100C004FEA8C0C4FF00F0E0EFA0CFE24EA0E0E6B
:10101C000C6904FA0CF444EA0E0440F825406FE025
:10102C00092400E0002404FA0EF42C430CF1020C09
:10103C00684D45F82C404FF0B0442568D44325EA60
:10104C000206D1F804C01CF4801F01D042EA050648
:10105C004FF0B0452E606D6804EA0506D1F804C067
:10106C001CF4001F01D042EA05064FF0B0456E603B
:10107C00D5F8845004EA0506D1F804C01CF4003FEE
:10108C0001D042EA05064FF0B045C5F88460D5F8AA
:10109C0080502C404E6816F4803F01D042EA050483
:1010AC004FF0B042C2F8804001330A6832FA03F4C0
:1010BC0000F08D804FF0010C0CFA03FC1CEA0202CC
:1010CC00F2D04C6804F00304013C012C7FF67EAF97
:1010DC004C6804F00304032C0CD0C4685D004FF082
:1010EC00030C0CFA05FC24EA0C0C8C68AC4044EAAA
:1010FC000C04C4604C6804F00304022C3FF47AAF77
:10110C0004684FEA430E4FF0030C0CFA0EFC24EA71
:10111C000C0C4C6804F0030404FA0EF444EA0C04BE
:10112C0004604C6814F4403FBED02B4CD4F8F450FF
:10113C0045F00205C4F8F450D4F8F44004F002046D
:10114C000194019C4FEA930C0CF10205214C54F8CC
:10115C00255003F0030E4FEA8E0E0F2404FA0EF402
:10116C0025EA04051D4CA0423FF45CAF04F58064F5
:10117C00A0421ED004F58064A0421CD004F580640B
:10118C00A0421AD004F58064A04218D004F5806403
:10119C00A04216D004F58064A04214D004F58064FB
:1011AC00A04212D004F50064A0423FF439AF0A24E7
:1011BC0039E7012437E7022435E7032433E7042415
:1011CC0031E705242FE706242DE707242BE702B08F
:1011DC0070BD00BF000400580044025800000258C3
:1011EC000AB181617047090481617047436901EA62
:1011FC00030221EA030141EA0241816170472DE9B2
:10120C00F04383B0D0F8008001EBC10300EB830303
:10121C009A6A5B6A9A4254D807460C469B1A01EBB1
:10122C00C10200EB8202D2699A4200D31A4602F143
:10123C0003094FEA990915E006F103094FEA9909E8
:10124C00BB7904EBC40507EB8505296A0093B3B29F
:10125C00E2B2404602F00AFE2B6A33442B62AB6AC0
:10126C003344AB6208EB441303F510639B699BB2E8
:10127C004B4512D304EBC40307EB83039A6A5B6AF6
:10128C009A420AD24BB19B1A04EBC40207EB8202BE
:10129C00D6699E42D0D31E46CEE704EBC40307EBBF
:1012AC0083077A6ABB6A9A420FD804F00F040122B2
:1012BC00A240D8F8343823EA0203C8F834380020A6
:1012CC0000E0012003B0BDE8F0830020FAE730B560
:1012DC0083B000287AD0044690F89534ABB1032340
:1012EC0084F89534206802F079FB237C8DF800306B
:1012FC00231D0ECB206802F0A7FA58B1022384F804
:10130C0095340125284603B030BD80F8943404F0A0
:10131C0081F9E4E70021206802F0BFFF024608B91A
:10132C00034617E0022384F895340125EAE703EB22
:10133C00C30104EB8101012048750B75CB8500209E
:10134C000876C861086203EBC30104EB81014862B3
:10135C000133DBB220799842E9D816E002EBC203E4
:10136C0004EB8303002183F8551283F8542283F88D
:10137C005812C3F85C12C3F8601202EBC20304EB00
:10138C008303C3F864120132D2B29042E6D8237CB4
:10139C008DF80030231D0ECB206802F075FB05463E
:1013AC0058B900236374012384F89534237B012BF3
:1013BC0008D0206802F030FFA4E7022384F89534AB
:1013CC0001259FE7204600F073FDF2E7012599E720
:1013DC00036890F89424012A1AD010B5044601220F
:1013EC0080F89424DA6812F0400F02D0427B012A74
:1013FC0009D0206802F0ECFA206802F0FFFE002011
:10140C0084F8940410BD9A6B42F480329A63F0E72E
:10141C000220704770B504460D460068066C00EB60
:10142C00411303F530639A68A179012911D0384929
:10143C008E4256D03DB905EBC50304EB8303D3F8BC
:10144C006432002B5ED0E9B2204604F025F900206E
:10145C0070BD12F0080F09D02E498E42F7D912F444
:10146C00004FF4D04FF400429A60F0E712F0200FD6
:10147C0002D020229A60EAE712F0280FE7D1254922
:10148C008E4206D912F4004F03D04FF400429A60FA
:10149C00DDE705EBC50204EB8202D2F874121B697E
:1014AC00C3F31203CB1AC2F868327DB905EBC5023F
:1014BC0004EB8202D2F864226AB105EBC50204EB9C
:1014CC008202D2F860121944C2F86012E9B22046C6
:1014DC0004F0E2F8BBE704F29C42012102F01CFF8D
:1014EC00F4E712F4004F03D04FF400429A60AEE7D9
:1014FC0012F0200F01D020229A60E9B2204604F0AD
:10150C00CBF8A4E704F29C42002102F005FF9AE715
:10151C000A31544F0A30544F38B5044603681D6CD9
:10152C0003EB4113D3F8081B0E4A954207D903F578
:10153C00306311F4004F02D04FF400429A60204601
:10154C0004F0A2F8074B9D4202D9A379012B01D0DC
:10155C00002038BD04F29C420121206802F0DCFE20
:10156C00F6E700BF0A30544F90F89434012B0CD09E
:10157C0010B50446012380F894344174006802F0DD
:10158C002DFE002084F8940410BD0220704738B55D
:10159C0005468C4611F0800F2BD101F00F0E0EEB8F
:1015AC00CE04A40004F514740444211D0EEBCE0EDD
:1015BC0000EB8E0E00208EF855020CF00F0C81F80B
:1015CC0000C0C2F30A028A600B714A780AB1A1F812
:1015DC001AC0022B1CD095F89434012B1BD001237C
:1015EC0085F89434286802F027FB002085F89404D1
:1015FC0038BD01F00F0000EBC00189001031294407
:10160C00043100EBC00005EB800001244475D4E7E5
:10161C0000234B71DFE70220EAE710B504460A46C7
:10162C0011F0800F20D101F00F0000EBC0039B00E4
:10163C0003F514732344191D00EBC00004EB800068
:10164C00002380F8553202F00F020A7094F894349B
:10165C00012B18D0012384F89434206802F038FB55
:10166C00002084F8940410BD01F00F0000EBC003BF
:10167C009B0010332344191D00EBC00004EB8000C9
:10168C0001234375DFE70220EDE710B5144601F0A6
:10169C000F0C0CEBCC01890001F5147101440431E1
:1016AC000CEBCC0E00EB8E0ECEF86022CEF8643232
:1016BC000023CEF868328EF855328EF854C28279F7
:1016CC00012A04D0006802F0E9FB002010BDCEF81E
:1016DC007042F7E701F00F0101EBC10100EB810053
:1016EC00D0F86802704710B5144601F00F0C0CEBE3
:1016FC00CC0189001031014404310CEBCC0E00EB11
:10170C008E0ECEF82020CEF824300023CEF82830D0
:10171C0001238EF815308EF814C082799A4204D0C9
:10172C00006802F0BBFB002010BDCEF83040F7E79C
:10173C0038B501F00F050279AA4238D304460B469E
:10174C0011F0800F1FD101EBC101890001F514715B
:10175C000144043103EBC30300EB8303002283F841
:10176C00552201238B700D7094F89434012B20D0EA
:10177C00012384F89434206802F0D5FC85B1002054
:10178C0084F8940438BD05EBC5018900103101447F
:10179C00043105EBC50300EB830301225A75E0E726
:1017AC0004F29C42A179206802F0B6FDE7E7012023
:1017BC00E8E70220E6E701F00F0302799A4230D302
:1017CC0010B5044611F0800F1ED103EBC301890044
:1017DC0001F514710144043103EBC30200EB8202E6
:1017EC00002082F8550200228A700B7094F8943411
:1017FC00012B18D0012384F89434206802F0C0FC2B
:10180C00002084F8940410BD03EBC301890010314F
:10181C000144043103EBC30200EB8202012050753A
:10182C00E1E7012070470220EDE708B511F0800FC9
:10183C000CD101F00F0101EBC101890001F514710C
:10184C0001440431006802F0B3FA08BD01F00F0145
:10185C0001EBC1018900103101440431F2E72DE99B
:10186C00F04F83B004460568284602F012FD10B113
:10187C0003B0BDE8F08F0646206802F0DBFC0028C0
:10188C00F6D005F50067BB68C3F30D23C4F8D43458
:10189C00206802F0CFFC10F0020F04D022685369CC
:1018AC0003F002035361206802F0C4FC10F0100F27
:1018BC0016D02268936923F010039361D5F8208029
:1018CC0008F00F0908F4F013B3F5802F6AD0B3F5C4
:1018DC00402F00F08D802268936943F010039361D0
:1018EC00206802F0A7FC10F4002F40F093802068D1
:1018FC0002F0A0FC10F4802F40F0FC80206802F075
:10190C0099FC0028C0F27D81206802F093FC10F451
:10191C00006F09D0BB6813F0010F40F08A81226878
:10192C00536903F400635361206802F083FC10F0E8
:10193C00006F15D02268536903F00063536194F86B
:10194C00CC34002B40F07981012184F8CC1423682D
:10195C005B6DC3F38303C4F8D034204600F0BCFAAB
:10196C00206802F067FC10F4805F40F06A81206808
:10197C0002F060FC10F4005F40F0B681206802F0C9
:10198C0059FC10F0080F40F0C781206802F052FC9F
:10199C0010F0800F00F0DA81AB6923F08003AB61AB
:1019AC000126C3E147F6F07318EA030F93D04FEA10
:1019BC00181A4FEAC903019309EBC90B04EB8B0B03
:1019CC00C8F30A12DBF86012284602F089FBDBF838
:1019DC006032CAF30A0A5344CBF86032DBF868323F
:1019EC00019A4A4404EB82025344C2F8683272E70B
:1019FC00082204F29C41284602F072FB09EBC90351
:101A0C0004EB8303D3F86822C8F30A184244C3F8E2
:101A1C00682260E7206802F011FC8046B14635E090
:101A2C0005EB49130122C3F8082B49462046FFF762
:101A3C00F1FC3CE005EB49130822C3F8082B49469E
:101A4C002046FFF769FD35E009EBC90304EB83037E
:101A5C0093F85732012B41D005EB49130222C3F8FE
:101A6C00082B1AF0200F04D005EB49132022C3F8E1
:101A7C00082B1AF4005F05D005EB49134FF4005204
:101A8C00C3F8082B09F101094FEA5808B8F1000F07
:101A9C003FF42DAF18F0010FF4D05FFA89FB5946D3
:101AAC00206802F0DBFB824610F0010FB8D11AF06F
:101ABC00080FBFD11AF0100F04D005EB49131022F8
:101ACC00C3F8082B1AF0020FCBD06B6913F0800F00
:101ADC00BAD07B6843F480637B60B5E709EBC9033C
:101AEC0004EB8303002283F857225946204603F067
:101AFC0023FEB1E7206802F0A9FB8046B14625E041
:101B0C005946204603F0D4FD1AF0080F04D005EB1B
:101B1C0049130822C3F808291AF0100F04D005EB5A
:101B2C0049131022C3F808291AF0400F04D005EB12
:101B3C0049134022C3F808291AF0020F40D11AF0B9
:101B4C00800F59D109F101094FEA5808B8F1000F7B
:101B5C003FF4D4AE18F0010FF4D05FFA89FB59466C
:101B6C00206802F084FB824610F0010FCCD009F003
:101B7C000F02012101FA02F27B6B23EA02037B6361
:101B8C0005EB4913C3F80819A3798B42B8D109EBBB
:101B9C00C90304EB83031A6AD9690A441A62B9F1BE
:101BAC00000FADD109EBC90304EB83035B6A002B77
:101BBC00A6D104F29C420121206802F0ADFB9FE704
:101BCC004946284601F010FF09EBC90304EB8303D7
:101BDC00DB7D012B05D005EB49130222C3F8082944
:101BEC00ADE709EBC90304EB83030022DA75594610
:101BFC00204603F0A7FDEEE749462046FFF7FFFA23
:101C0C00A0E77B6823F001037B6094F8CC34012BB4
:101C1C0008D0204603F08AFD2268536903F0004384
:101C2C00536171E6002184F8CC14204600F054F97D
:101C3C00F2E7204603F062FD71E6204603F05EFDFC
:101C4C008EE67B6823F001037B601021206801F095
:101C5C00CBFE1AE005EB46134FF67F31C3F808199B
:101C6C00D3F8002922F40012C3F80029C3F8081B8A
:101C7C00D3F8002B22F40012C3F8002BD3F8002B5E
:101C8C0042F00062C3F8002B01362379B342E1D84D
:101C9C00FB6943F00113FB61E37BDBB1D7F88430C4
:101CAC0043F00B03C7F884307B6C43F00B037B646D
:101CBC00D5F8003823F4FE63C5F8003804F29C42D2
:101CCC00A179206802F028FB2268536903F4805341
:101CDC0053614CE67A6942F22B0313437B613B69F7
:101CEC0043F00B033B61E3E7206802F007FB20683D
:101CFC0001F090FFE071266800F070FE0146E27979
:101D0C00304601F0F3FD204603F0E3FC22685369F2
:101D1C0003F40053536131E6204603F0D4FC2268EF
:101D2C00536903F0080353612FE601362379B3425C
:101D3C000CD906EBC60304EB830393F85732012B43
:101D4C00F3D1F1B22046FFF770FDEEE7206802F008
:101D5C0071FA10F4801F25D1206802F06BFA10F490
:101D6C00001F58D0012326E001362379B3421BD93A
:101D7C0005EB4613D3F8002906EBC60304EB8303EB
:101D8C001B7E012BF0D1002AEEDA06EBC60304EB26
:101D9C0083030122DA7566F07F01C9B22046FFF792
:101DAC0044FDE1E70126E0E72268536903F4801360
:101DBC005361D1E7013322799A4227D905EB4312BB
:101DCC00D2F8001B03EBC30204EB820292F85822F8
:101DDC00012AEFD10029EDDAD4F8D42482EA114299
:101DEC0012F0010FE6D103EBC30204EB82020121D6
:101DFC0082F85712AA6942F08002AA616A6912F04D
:101E0C00800FD7D17B6843F400737B6022685369E1
:101E1C0003F400135361206802F00CFA10F0804FA9
:101E2C0010D1206802F006FA10F0040F3FF420AD38
:101E3C0023685D6815F0040F0DD1226853682B439D
:101E4C00536015E5204603F083FC2268536903F0C8
:101E5C0080435361E5E7204603F080FCEDE710B4C6
:101E6C000468606A29B940EA0240A062002010BCF4
:101E7C0070478C46A36A00EB1340002308E003F183
:101E8C00400104EB8101496800EB11400133DBB2E6
:101E9C000CF1FF318B42F2D340EA02400CF13F01CE
:101EAC0004EB81046060E1E703685962002070472D
:101EBC00034602680121C0F8D814002083F8CC0432
:101ECC00936943F000639361516D024B0B4353656F
:101EDC00704700BF0300001070470000134BDB6815
:101EEC0013F0040F07D1114BDB6803F00703834297
:101EFC001AD00120704710B50C4AD36823F00703A1
:101F0C000343D360FEF776FF0446084B5B6813F47B
:101F1C00005F07D1FEF76EFF001BB0F57A7FF4D996
:101F2C00012000E0002010BD00207047004802583E
:101F3C00024AD36843F08073D3607047004802585C
:101F4C00002800F0D58238B50446036813F0010F61
:101F5C0025D0A04A136903F03803926A102B15D0D0
:101F6C00182B0FD06368B3F5803F3FD0002B53D1B3
:101F7C00984B1A6822F480321A601A6822F4802274
:101F8C001A6038E002F00302022AEBD1914B1B6875
:101F9C0013F4003F03D06368002B00F0AB8223687E
:101FAC0013F0020F00F088808A4A1369926A13F0CA
:101FBC0038035AD0182B55D0E368002B00F0A980B9
:101FCC0084490A6822F0190213430B60FEF712FFD2
:101FDC000546804B1B6813F0040F40F09180FEF710
:101FEC0009FF401B0228F4D903208AE2794A1368BE
:101FFC0043F48033136063682BB3FEF7FBFE054696
:10200C00744B1B6813F4003FC9D1FEF7F3FE401B61
:10201C006428F5D9032074E2B3F5A02F09D06D4BD9
:10202C001A6822F480321A601A6822F480221A602C
:10203C00E1E7684B1A6842F480221A601A6842F48D
:10204C0080321A60D7E7FEF7D5FE0546614B1B6858
:10205C0013F4003FA3D0FEF7CDFE401B6428F5D946
:10206C0003204EE212F0030FA6D15A4B1B6813F05B
:10207C00040F03D0E368002B00F03E82554A13682E
:10208C0023F01903E1680B431360FEF7B3FE05461A
:10209C00504B1B6813F0040F06D1FEF7ABFE401B30
:1020AC000228F5D903202CE24A4A536823F0FE4358
:1020BC00216943EA01635360236813F0100F51D078
:1020CC00444A136903F03803926A082B39D0182B51
:1020DC0033D0E369002B69D03E4A136843F0800388
:1020EC001360FEF787FE05463A4B1B6813F4807F9E
:1020FC0053D1FEF77FFE401B0228F5D9032000E2E6
:10210C00344A536823F0FE43216943EA0163536068
:10211C00D2E7304A136823F001031360FEF76AFE1E
:10212C0005462C4B1B6813F0040FC5D0FEF762FE5E
:10213C00401B0228F5D90320E3E102F00302012A37
:10214C00C7D1244B1B6813F4807F03D0E369802B29
:10215C0040F0D4811F4AD36823F07C53216A43EAB0
:10216C000163D360236813F0080F49D06369002B17
:10217C0032D0184A536F43F001035367FEF73AFE0F
:10218C000546144B5B6F13F0020F39D1FEF732FE8C
:10219C00401B0228F5D90320B3E10E4AD36823F083
:1021AC007C53216A43EA0163D360DBE7094A136875
:1021BC0023F080031360FEF71DFE0546054B1B68DC
:1021CC0013F4807FCED0FEF715FE401B0228F5D904
:1021DC00032096E1004402589D4A536F23F00103FB
:1021EC005367FEF707FE0546994B5B6F13F0020F22
:1021FC0006D0FEF7FFFD401B0228F5D9032080E135
:10220C00236813F0200F29D0A3699BB1904A13685F
:10221C0043F480531360FEF7EDFD05468C4B1B68B1
:10222C0013F4005F1AD1FEF7E5FD401B0228F5D927
:10223C00032066E1864A136823F480531360FEF78B
:10224C00D9FD0546824B1B6813F4005F06D0FEF7E0
:10225C00D1FD401B0228F5D9032052E1236813F06D
:10226C00040F21D1636A002B00F04A81784A12696D
:10227C0002F03802182A00F0F180022B75D0744A53
:10228C00136823F080731360FEF7B4FD0446704BA3
:10229C001B6813F0007F00F0D880FEF7ABFD001B2D
:1022AC000228F4D903202CE16A4A136843F48073A2
:1022BC001360FEF79FFD0546664B1B6813F4807F89
:1022CC0006D1FEF797FD401B6428F5D9032018E1D1
:1022DC00A368012B0AD00BBB5D4B1A6F22F00102D5
:1022EC001A671A6F22F004021A6704E0584A136F37
:1022FC0043F001031367A36833B3FEF77BFD054678
:10230C00534B1B6F13F0020FACD1FEF773FD401B48
:10231C0041F288339842F3D90320F2E0052B09D01F
:10232C004B4B1A6F22F001021A671A6F22F004024B
:10233C001A67E0E7464B1A6F42F004021A671A6FED
:10234C0042F001021A67D6E7FEF754FD0546404BF2
:10235C001B6F13F0020F85D0FEF74CFD401B41F2B2
:10236C0088339842F3D90320CBE0394A136823F021
:10237C0080731360FEF73EFD0546354B1B6813F06A
:10238C00007F06D0FEF736FD401B0228F5D903204E
:10239C00B7E02F4B996A304A0A40A16AE06A41EAD9
:1023AC0000110A439A62226B013AC2F30802616B74
:1023BC000139490289B20A43A16B0139090401F4BC
:1023CC00FE010A43E16B0139090601F0FE410A43A3
:1023DC001A63DA6A22F00102DA625A6B6FF3CF02E7
:1023EC00A16C42EAC1025A63DA6A22F00C02216C37
:1023FC000A43DA62DA6A22F00202616C0A43DA6298
:10240C00DA6A42F48032DA62DA6A42F40032DA6270
:10241C00DA6A42F48022DA62DA6A42F00102DA62A3
:10242C001A6842F080721A60FEF7E4FC0446084B0E
:10243C001B6813F0007F06D1FEF7DCFC001B0228A2
:10244C00F5D903205DE000205BE0002059E000BFDF
:10245C0000440258004802580CFCFFFF30498A6ABD
:10246C00086B012B4ED002F00303A16A8B424BD1B7
:10247C00C2F30512E36A9A4248D1C0F30802236BF7
:10248C00013B9A4244D1C0F34622636B013B9A4212
:10249C0040D1C0F30642A36B013B9A423CD1C0F33E
:1024AC000660E36B013B984238D11D4B5B6BC3F369
:1024BC00CC03A26C9A4201D1002022E0184AD36AC4
:1024CC0023F00103D362FEF795FC0546FEF792FC60
:1024DC00A842FBD0124A536B6FF3CF03A16C43EAB3
:1024EC00C1035363D36A43F00103D362002008E0B5
:1024FC0001207047012004E0012002E0012000E0EF
:10250C00002038BD0120FCE70120FAE70120F8E7A4
:10251C000120F6E70120F4E70120F2E70120F0E7C3
:10252C0000440258F8B5814B1B6903F03803102B9B
:10253C0000F0F480182B0FD0002B40F0F2807B4B76
:10254C001B6813F0200F00F0EE80784B1B68C3F370
:10255C00C103774CDC40E2E0744B9D6A05F0030547
:10256C009C6AC4F30514D86A00F001005B6BC3F3DA
:10257C00CC0303FB00F0FDF759FF0646002C00F0DE
:10258C00CE80012D56D0022D00F08480002D40F01D
:10259C00A380664B1B6813F0200F29D0634F3B6858
:1025AC00C3F3C1036248D840FDF740FF05462046FF
:1025BC00FDF73CFF01462846FEF744F80446386B0D
:1025CC00C0F30800FDF732FF05464FF0645130466A
:1025DC00FDF784FF01462846FDF778FE4FF07E514B
:1025EC00FDF774FE01462046FDF778FF044642E0F5
:1025FC002046FDF71BFF01464E48FEF723F8044624
:10260C004A4B186BC0F30800FDF710FF05464FF05E
:10261C0064513046FDF762FF01462846FDF756FE31
:10262C004FF07E51FDF752FE01462046FDF756FF56
:10263C00044620E02046FDF7F9FE01463E48FEF731
:10264C0001F80446394B186BC0F30800FDF7EEFE99
:10265C0005464FF064513046FDF740FF01462846D1
:10266C00FDF734FE4FF07E51FDF730FE014620465B
:10267C00FDF734FF04462D4B1B6BC3F34623581C4C
:10268C00FDF7D4FE01462046FDF7DCFFFEF776F899
:10269C00044644E02046FDF7C9FE01462748FDF7F5
:1026AC00D1FF0446214B186BC0F30800FDF7BEFEAA
:1026BC0005464FF064513046FDF710FF01462846A1
:1026CC00FDF704FE4FF07E51FDF700FE014620465B
:1026DC00FDF704FF0446CEE72046FDF7A7FE0146B2
:1026EC001548FDF7AFFF0446104B186BC0F30800FC
:1026FC00FDF79CFE05464FF064513046FDF7EEFEAB
:10270C0001462846FDF7E2FD4FF07E51FDF7DEFD58
:10271C0001462046FDF7E2FE0446ACE7084C204695
:10272C00F8BD084CFBE7024CF9E700BF0044025827
:10273C000090D0030024744C0024744A0024744B81
:10274C000024F40000093D00002800F0328170B52F
:10275C000D4604469B4B1B6803F00F038B420BD2B8
:10276C00984A136823F00F030B431360136803F0AC
:10277C000F038B4240F01F81236813F0040F0CD021
:10278C002269914B9B6903F070039A4205D98E49DB
:10279C008B6923F070031A438A61236813F0080FC6
:1027AC000CD06269884BDB6903F070039A4205D93F
:1027BC008549CB6923F070031A43CA61236813F06F
:1027CC00100F0CD0A269804BDB6903F4E0639A42D2
:1027DC0005D97D49CB6923F4E0631A43CA612368A8
:1027EC0013F0200F0CD0E269774B1B6A03F07003D7
:1027FC009A4205D974490B6A23F070031A430A6292
:10280C00236813F0020F0CD0E2686F4B9B6903F046
:10281C000F039A4205D96C498B6923F00F031A43B5
:10282C008A61236813F0010F41D0674A936923F43E
:10283C007063A1680B4393616368022B0AD0032B6E
:10284C0027D0012B2CD0604A126812F0040F06D14D
:10285C000120ADE0126812F4003F00F0AE805A493E
:10286C000A6922F0070213430B61FEF7C3FA06460E
:10287C00554B1B6903F038036268B3EBC20F16D0DB
:10288C00FEF7B8FA801B41F288339842F0D9032046
:10289C008EE04D4A126812F0007FE0D1012087E0F3
:1028AC00494A126812F4807FD9D1012080E0236854
:1028BC0013F0020F0CD0E268434B9B6903F00F033B
:1028CC009A4205D240498B6923F00F031A438A615F
:1028DC003C4B1B6803F00F03AB420AD9394A13680F
:1028EC0023F00F032B431360136803F00F03AB4269
:1028FC0065D1236813F0040F0CD02269324B9B690D
:10290C0003F070039A4205D22F498B6923F07003B0
:10291C001A438A61236813F0080F0CD062692A4BA2
:10292C00DB6903F070039A4205D22749CB6923F087
:10293C0070031A43CA61236813F0100F0CD0A269FC
:10294C00214BDB6903F4E0639A4205D21E49CB6943
:10295C0023F4E0631A43CA61236813F0200F0CD0F0
:10296C00E269194B1B6A03F070039A4205D21649AF
:10297C000B6A23F070031A430A62FFF7D3FD124966
:10298C008B69C3F30323114AD35C03F01F03D840B4
:10299C008B6903F00F03D35C03F01F0320FA03F3DE
:1029AC000B4A13600B4B18600B4B1868FEF7C0F901
:1029BC0070BD012070470120FAE70120F8E70120E3
:1029CC00F6E700BF00200052004402589C5A000851
:1029DC0000000024040000240C00002408B5FFF7BC
:1029EC00A1FD0B4A9369C3F303230A49CB5C03F0A3
:1029FC001F0320FA03F3926902F00F02885C00F0C7
:102A0C001F0023FA00F0044A1060044A136008BD4A
:102A1C00004402589C5A00080000002404000024C2
:102A2C00404B9B6A03F00303032B79D070B505462A
:102A3C000E463C4A136823F080631360FEF7DAF904
:102A4C000446384B1B6813F0006F06D0FEF7D2F922
:102A5C00031B022BF5D9032070BD324B9A6A22F46A
:102A6C007C32296842EA01329A626A68013AC2F3FE
:102A7C000802A9680139490289B20A43E968013997
:102A8C00090401F4FE010A4329690139090601F020
:102A9C00FE410A439A63DA6A22F0C00269690A436A
:102AAC00DA62DA6A22F02002A9690A43DA62DA6A87
:102ABC0022F01002DA62DA6B6FF3CF02E96942EAB4
:102ACC00C102DA63DA6A42F01002DA62C6B91A4657
:102ADC00DB6A43F40023D362124A136843F0806329
:102AEC001360FEF787F904460E4B1B6813F0006F5A
:102AFC0014D1FEF77FF9001B0228F5D90320ABE7B0
:102B0C00012E05D0074AD36A43F40013D362E3E7DE
:102B1C00044AD36A43F48013D362DDE700209BE7B9
:102B2C000120704700440258404B9B6A03F003039A
:102B3C00032B79D070B505460E463C4A136823F03A
:102B4C0080531360FEF756F90446384B1B6813F09C
:102B5C00005F06D0FEF74EF9031B022BF5D90320BC
:102B6C0070BD324B9A6A22F07C72296842EA01529B
:102B7C009A626A68013AC2F30802A96801394902EB
:102B8C0089B20A43E9680139090401F4FE010A43D8
:102B9C0029690139090601F0FE410A431A64DA6A0F
:102BAC0022F4406269690A43DA62DA6A22F400723A
:102BBC00A9690A43DA62DA6A22F48072DA625A6C20
:102BCC006FF3CF02E96942EAC1025A64DA6A42F44D
:102BDC008072DA62C6B91A46DB6A43F48003D362A8
:102BEC00124A136843F080531360FEF703F904464E
:102BFC000E4B1B6813F0005F14D1FEF7FBF8001BA3
:102C0C000228F5D90320ABE7012E05D0074AD36A79
:102C1C0043F08073D362E3E7044AD36A43F40003BE
:102C2C00D362DDE700209BE7012070470044025887
:102C3C00F8B50446036813F0006F2FD0436EB3F55C
:102C4C00001F25D015D8E3B1B3F5801F0ED102219A
:102C5C000830FFF7E5FE054675BB934A136D23F468
:102C6C004013616E0B431365002619E001263546AF
:102C7C0016E0B3F5401F01D10025EEE701263546DD
:102C8C000EE0894AD36A43F40033D3620025E4E7AB
:102C9C0002212830FFF748FF0546DDE700263546C0
:102CAC00236813F4807F29D0A36D042B22D8DFE88E
:102CBC0003F005131A0A0A002E46F1E77A4AD36A82
:102CCC0043F40033D362C5B9774A136D23F007037D
:102CDC00A16D0B43136511E0002104F10800FFF70F
:102CEC009FFE0546EFE7002104F12800FFF71CFFCB
:102CFC000546E8E70126354600E02E46236813F426
:102D0C00806F2DD0D4F8A430B3F5800F3DD00DD802
:102D1C00C3B1B3F5001F06D1002104F10800FFF781
:102D2C007FFE054613E00126354619E0B3F5000F8A
:102D3C000DD0B3F5200F0AD0B3F5C00F07D0012684
:102D4C0035460DE0584AD36A43F40033D3621DBBB9
:102D5C00554A936D23F46003D4F8A4100B43936588
:102D6C00236813F4006F37D0D4F8A830B3F1007F88
:102D7C005ED016D80BB3B3F1807F0FD1002104F1D4
:102D8C000800FFF74DFE05461CE0002104F1280069
:102D9C00FFF7CAFE0546DAE72E46E1E7012635467F
:102DAC001AE0B3F1806F0DD0B3F1A06F0AD0B3F17C
:102DBC00407F07D0012635460EE03B4AD36A43F4E8
:102DCC000033D362002D3AD1374A936D23F0E06380
:102DDC00D4F8A8100B439365236813F0007F13D02D
:102DEC00E36C202B35D02FD833B1102B29D12E4AA0
:102DFC00D36A43F40033D36295BB2B4AD36C23F0D4
:102E0C003003E16C0B43D364236813F4805F4ED022
:102E1C00E36DB3F5005F3FD027D87BB3B3F5805F8C
:102E2C0020D1002104F10800FFF7FAFD05462AE045
:102E3C00002104F12800FFF777FE0546C2E72E4675
:102E4C00CAE701263546DFE7302BD5D001263546BB
:102E5C00DAE7022104F10800FFF7E2FD0546CBE7B3
:102E6C002E46D1E70126354621E0B3F5405F0AD066
:102E7C00B3F5804F07D00126354618E00A4AD36ACD
:102E8C0043F40033D3628DB9074A136D23F4E04346
:102E9C00E16D0B4313650AE0002104F12800FFF7F4
:102EAC0043FE0546EFE700BF004402582E46236858
:102EBC0013F4005F17D0236EB3F5003F4FD042D808
:102ECC0043B1B3F5803F3BD1012104F10800FFF77A
:102EDC00A7FD0546002D49D1924A136D23F4E0233A
:102EEC00216E0B431365236813F4804F19D0D4F86B
:102EFC00AC30B3F1005F4AD03DD843B1B3F1805F41
:102F0C0036D1012104F10800FFF78AFD0546002D9A
:102F1C0044D1844A936D23F0E043D4F8AC100B43B6
:102F2C009365236813F4004F47D0E36EB3F1805FD1
:102F3C0036D0B3F1005F4BD0BBB3012635463CE035
:102F4C0001263546CFE7B3F5802FC3D0B3F5A02FBC
:102F5C00C0D0B3F5403FBDD001263546C3E70121B3
:102F6C0004F12800FFF7E0FD0546B3E72E46BAE76B
:102F7C0001263546D5E7B3F1804FC8D0B3F1A04F49
:102F8C00C5D0B3F1405FC2D001263546C9E7012157
:102F9C0004F12800FFF7C8FD0546B8E72E46C0E748
:102FAC00604AD36A43F40033D362C5B95D4A136DEA
:102FBC0023F04053E16E0B431365236813F0807FBD
:102FCC001CD0A36C032B44D8DFE803F0100B3C108F
:102FDC00012104F10800FFF723FD0546E5E72E4625
:102FEC00EBE7504AD36A43F40033D362A5BB4D4A96
:102FFC00D36C23F00303A16C0B43D364236813F449
:10300C00800F2BD1236813F0010F00F0A980A36F60
:10301C00282B00F2A380DFE803F091A1A1A1A1A1CC
:10302C00A1A18BA1A1A1A1A1A1A19AA1A1A1A1A1A1
:10303C00A1A191A1A1A1A1A1A1A191A1A1A1A1A194
:10304C00A1A19100022104F10800FFF7E9FC05465B
:10305C00CCE701263546D1E72E46CFE7324A136836
:10306C0043F480731360FDF7C5FE07462E4B1B68B7
:10307C0013F4807F05D1FDF7BDFEC01B6428F5D984
:10308C000325002D4AD1274B1B6FD4F8B020534099
:10309C0013F4407F0CD0234B1A6F22F44072196F3B
:1030AC0041F480311967196F21F4803119671A675F
:1030BC00D4F8B030B3F5807F15D08DBBD4F8B030D8
:1030CC0003F44072B2F5407F1ED0164A136923F404
:1030DC007C53136113490B6FD4F8B020C2F30B026D
:1030EC0013430B678EE7FDF785FE07460D4B1B6FF1
:1030FC0013F0020FE1D1FDF77DFEC01B41F28833C6
:10310C009842F3D90325D8E70648026922F47C5289
:10311C00064901EA131313430361DBE72E4671E7FB
:10312C002E466FE70044025800480258CFFFFF00BC
:10313C00012104F10800FFF773FC0546E5B9B14A1B
:10314C00536D23F03803A16F0B43536508E0012145
:10315C0004F12800FFF7E8FC0546EFE701263546A9
:10316C00236813F0020F17D0636F052B29D8DFE803
:10317C0003F00B05210B0B0B2E46F1E7012104F19B
:10318C000800FFF74DFC0546F5B99E4A536D23F038
:10319C000703616F0B435365236813F0040F26D0AC
:1031AC00D4F89030052B00F2D680DFE803F0150F31
:1031BC00CD151515012104F12800FFF7B5FC0546C6
:1031CC00E2E701263546E7E72E46E5E7012104F163
:1031DC000800FFF725FC0546002D40F0BF80894A0A
:1031EC00936D23F00703D4F890100B439365236879
:1031FC0013F0200F1DD0D4F88C30B3F1005F00F029
:10320C00C18000F2B0804BB1B3F1805F40F0A88078
:10321C00002104F10800FFF703FC0546002D40F0E7
:10322C00B880784A536D23F0E043D4F88C100B43EC
:10323C005365236813F0400F1DD0D4F89830B3F5C4
:10324C00006F00F0BA8000F2A9804BB1B3F5806F2B
:10325C0040F0A180002104F10800FFF7E1FB0546D6
:10326C00002D40F0B180674A936D23F4E053D4F8FD
:10327C0098100B439365236813F0800F1DD0D4F87E
:10328C009C30B3F5804F00F0B38000F2A2804BB1BC
:10329C00B3F5005F40F09A80002104F10800FFF7BD
:1032AC00BFFB0546002D40F0AA80564A936D23F4CF
:1032BC006043D4F89C100B439365236813F0080FFC
:1032CC000DD0D4F88030B3F5805F00F09D804D4A6E
:1032DC00536D23F44053D4F880100B43536523688B
:1032EC0013F0100F0DD0D4F89430B3F5807F00F0AC
:1032FC009580444A936D23F44073D4F894100B4397
:10330C009365236813F4002F00F09D80D4F8A0304F
:10331C00B3F5803F00F08C80B3F5003F08D0002B54
:10332C0040F08D80002104F10800FFF779FB054681
:10333C00002D40F08780334A936D23F44033D4F84A
:10334C00A0100B4393657EE0012104F12800FFF7E8
:10335C00EBFB054640E70126354648E72E4646E797
:10336C000126354665E7B3F1804F3FF457AFB3F113
:10337C00A04F3FF453AFB3F1405F3FF44FAF012682
:10338C00354656E7022104F12800FFF7CDFB054630
:10339C0044E72E464DE7012635466CE7B3F5805FD2
:1033AC003FF45EAFB3F5A05F3FF45AAFB3F5406F97
:1033BC003FF456AF012635465DE7022104F12800A3
:1033CC00FFF7B2FB05464BE72E4654E70126354680
:1033DC0073E7B3F5004F3FF465AFB3F5204F3FF4FF
:1033EC0061AFB3F5C04F3FF45DAF0126354664E7DE
:1033FC00022104F12800FFF797FB054652E72E4601
:10340C005BE700BF00440258022104F12800FFF7DB
:10341C008BFB00283FF45BAF012658E7022104F137
:10342C002800FFF781FB00283FF463AF012660E71B
:10343C00022104F12800FFF777FB054678E7012607
:10344C00354600E02E46236813F4802F24D0D4F8A0
:10345C008430B3F5001F14D0B3F5401F07D0B3F57B
:10346C00801F15D17C4AD36A43F40033D36295B9DB
:10347C00794A536D23F44013D4F884100B435365ED
:10348C000AE0012104F12800FFF74EFB0546EEE7A8
:10349C000126354600E02E46236813F4803F06D003
:1034AC00236DCBB1B3F5803F24D00126354623687C
:1034BC0013F0005F27D1236813F4003F3DD0E36F76
:1034CC00B3F5807F2BD027D9B3F5007F2CD0B3F583
:1034DC00407F29D0012630E05F4AD36A43F40033A1
:1034EC00D36275B95C4AD36C23F48033216D0B43E2
:1034FC00D364DCE7022104F10800FFF791FA0546DA
:10350C00EFE72E46D3E7022104F12800FFF70CFB6E
:10351C000028D0D00126CEE733B101260DE04E4A6B
:10352C00D36A43F40033D362002D5CD14A4A536D05
:10353C0023F44073E16F0B435365236813F4801F2E
:10354C0006D0454A136D23F00043216F0B431365DE
:10355C00236813F4001F06D03F4A136D23F08073C9
:10356C00A16E0B431365236813F0804F09D03A4BBF
:10357C001A6922F400421A611A69D4F8B4100A4389
:10358C001A612368002B06DA334AD36C23F04053BC
:10359C00616D0B43D364236813F4000F07D02E4ADC
:1035AC00536D23F44003D4F888100B4353656368C0
:1035BC0013F0010F19D1636813F0020F1ED1636869
:1035CC0013F0040F23D1636813F0080F28D163683C
:1035DC0013F0100F2DD1636813F0200F32D106B108
:1035EC0001263046F8BD2E46A7E7002104F108005D
:1035FC00FFF716FA0028DED00646DCE7012104F1BD
:10360C000800FFF70DFA0028D9D00646D7E70221AB
:10361C0004F10800FFF704FA0028D4D00646D2E7DC
:10362C00002104F12800FFF77FFA0028CFD00646CE
:10363C00CDE7012104F12800FFF776FA0028CAD063
:10364C000646C8E7022104F12800FFF76DFA0028AE
:10365C00C5D00126C5E700BF00440258C36B5B0907
:10366C00C0680830C00803FB00007047002800F059
:10367C00B78070B504460023836205685C4B5D4ED1
:10368C009D4218BFB54214BF0126002607D0A3F5F2
:10369C0074439D4203D0C3680F2B00F2A3802046D5
:1036AC00FFF7DCFF2EB1544B9D4202D0082800F2EC
:1036BC009B804F4A4F4B9D4218BF954203D003F558
:1036CC0080639D4202D1102800F2908094F88130E2
:1036DC00F3B1022384F881302268136823F00103CC
:1036EC00136023689A6802F4F812A169B1F1806F33
:1036FC0014D0636813F4800F23D0E368062B20D911
:10370C0021680B6823F48073206D03430B601DE06C
:10371C0084F880302046FDF7E5F9DAE76168B1F509
:10372C00800F06D00029E4D1A16BB1F1805FE0D10C
:10373C0002E0A06B0028F5D1196841F480511960A2
:10374C00D7E721680B6823F480730B60E369A16AE7
:10375C000B431343E26B1343E16822680B43936002
:10376C00636B626A1343A26B1343A269134322690E
:10377C00134362691343226A134362681343E26C76
:10378C001343A2681343A26C1343A16D22680B432D
:10379C00D36063686BB92268936823F4C05343F415
:1037AC00006393602268936823F4C06343F48063DE
:1037BC0093602268136D23F001031365636813F49F
:1037CC00800F06D02268D36823F00043616D0B4351
:1037DC00D3600020C4F88400012384F8813070BDCC
:1037EC00012070470120FAE70120F8E70120F6E7F5
:1037FC000030014000380040003C004082B0002303
:10380C000193019B01330193019BB3F1706F15D8A8
:10381C000369002BF5DA00230193036943F00103DC
:10382C000361019B01330193019BB3F1706F08D8C5
:10383C00036913F0010FF4D1002000E0032002B063
:10384C0070470320FBE7000084B010B5044603A8C2
:10385C0080E80E009DF81130012B1FD1A36B23F4CF
:10386C008033A363E2681F4B1340E360E36823F4E7
:10387C004013E3609DF81830012B0AD02046FFF767
:10388C00BDFF9DF80E30012B1CD0BDE8104004B0DC
:10389C007047E36843F48013E360EFE7E36843F0B9
:1038AC004003E3602046FFF7A9FF9DF8153023B9CC
:1038BC00A36B43F48033A363E3E7A36B23F480335C
:1038CC00A363DEE7E36D9BB2E365E26D064B134346
:1038DC00E365A36843F00603A360A36843F02003E9
:1038EC00A360D2E7BFFFBDFF0000EE03022A0AD09F
:1038FC000922C36823F47053C360C36843EA82236C
:10390C00C36000207047204B0B44204A934229D9B6
:10391C001F4B0B441F4A934226D91F4B0B441F4A83
:10392C00934223D91E4B0B441E4A934220D31E4B69
:10393C000B441E4A93421DD91D4B0B441D4A934206
:10394C001AD31D4B0B441D4A934217D31C4B0B44EB
:10395C001C4A934214D31C4B0B441C4A934211D265
:10396C000722C6E70F22C4E70E22C2E70D22C0E7EA
:10397C000C22BEE70B22BCE70A22BAE70922B8E701
:10398C000822B6E70622B4E7405327FFFF340C00A9
:10399C00401E1BFF3F420F0000DC0BFF7F4F12004D
:1039AC00808CF9FE20D6130060B6E5FE5FE31600AE
:1039BC0000D3CEFE40771B00C05BB3FEC09121004C
:1039CC0000CA91FE20753800E05459FEE09C41007D
:1039DC00836843F00103836000207047836823F001
:1039EC00010383600020704782B000230193019B88
:1039FC0001330193019BB3F1706F15D80369002B50
:103A0C00F5DA00230193890141F020010161019B4A
:103A1C0001330193019BB3F1706F08D8036913F064
:103A2C00200FF4D1002000E0032002B070470320E7
:103A3C00FBE782B000230193019B01330193019BAF
:103A4C00B3F1706F13D80369002BF5DA00230193DF
:103A5C0010230361019B01330193019BB3F1706F40
:103A6C0008D8036913F0100FF4D1002000E00320F4
:103A7C0002B070470320FBE7D0F800381943C0F8B8
:103A8C00001800207047000084B0F8B5044607A861
:103A9C0080E80E00002306E003F1400204EB8202F2
:103AAC000021516001330E2BF6D99DF8266006BB20
:103ABC00D4F8043843F00203C4F80438A36B23F49D
:103ACC000013A363236843F040032360236843F08F
:103ADC00800323600023C4F8003E9DF82130012BA5
:103AEC0011D19DF81F304BB900212046FFF7C4FFC0
:103AFC000DE0A36B43F40013A363EBE70121204615
:103B0C00FFF7BAFF03E003212046FFF7B5FF1021B2
:103B1C002046FFF769FF054600B101252046FFF757
:103B2C0088FF00B1012504F5006C0023CCF810309F
:103B3C00CCF81430CCF81C300AE0CBB94FF0006054
:103B4C00C2F8000900220A614FF67F328A60013305
:103B5C009DF81C10994210D904EB431202F5106128
:103B6C00D2F800090028E8DB0020C2F80009E9E7D8
:103B7C004FF09040C2F80009E4E700230AE0BBB123
:103B8C004FF09047C2F8007B002202614FF67F3263
:103B9C0082600133994210D904EB431202F5306074
:103BAC00D2F8007B002FEADB0027C2F8007BEBE7A2
:103BBC004FF00067C2F8007BE6E7DCF8103023F426
:103BCC008073CCF810300023A3616FF080436361E5
:103BDC009DF81E301BB9A36943F01003A361A269C1
:103BEC000A4B1343A3619DF822301BB1A36943F028
:103BFC000803A361012E04D02846BDE8F84004B0A8
:103C0C007047A269024B1343A361F5E700383C806F
:103C1C0004000040D0F8083803F00603022B04D04F
:103C2C00062B04D02BB900207047022070470220CD
:103C3C0070470F207047000010B591F800C04B780A
:103C4C00012B21D000F5006ED0F81C380CF00F04BD
:103C5C000122A24043EA0243C0F81C3800EB4C108E
:103C6C00D0F8003B13F4004F0CD1D0F8002B8B682C
:103C7C00C3F30A03097943EA81431A43134B1343F1
:103C8C00C0F8003B002010BDD0F81C280CF00F0E23
:103C9C0003FA0EF39BB21343C0F81C3800EB4C1024
:103CAC00D0F8003913F4004FECD1D0F800298B6810
:103CBC00C3F30A03097943EA814343EA8C531A4359
:103CCC00024B1343C0F80039DCE700BF0080001042
:103CDC0030B40B784A78012A26D000EB4313D3F882
:103CEC00002B002A52DBD0F83C480A7802F00F0275
:103CFC004FF0010C0CFA02F224EA0242C0F83C2804
:103D0C00D0F81C28097801F00F010CFA01FC22EA0A
:103D1C000C42C0F81C28D3F8001B234A0A40C3F8F5
:103D2C00002B002030BC704700EB4313D3F8002964
:103D3C00002A1EDBD0F83C580A7802F00F0201244E
:103D4C0004FA02F292B225EA0202C0F83C28D0F83A
:103D5C001C28097801F00F018C40A4B222EA04025D
:103D6C00C0F81C28D3F80019104A0A40C3F80029DF
:103D7C00D7E7D3F8002942F00062C3F80029D3F842
:103D8C00002942F08042C3F80029D3E7D3F8002B76
:103D9C0042F00062C3F8002BD3F8002B42F08042B3
:103DAC00C3F8002B9FE700BF0078F3EF007833ECEB
:103DBC0010B483B0024600230193487801280AD03E
:103DCC000B7802EB4313D3F8000B00282CDB0020FC
:103DDC0003B010BC70470B7802EB4313D3F80049C7
:103DEC00002C01DB0020F3E7D3F8004944F0006419
:103DFC00C3F800490B7802EB4313D3F8004944F0A5
:103E0C008044C3F80049019B01330193019C42F2A9
:103E1C0010739C42DCD80B7802EB4313D3F80039B7
:103E2C00002BF0DB0020D3E7D3F8000B40F0006050
:103E3C00C3F8000B0B7802EB4313D3F8000B40F0E4
:103E4C008040C3F8000B019B01330193019842F2AF
:103E5C001073984208D80B7802EB4313D3F8003B4D
:103E6C00002BF0DB0020B3E70120B1E710B59DF883
:103E7C00084084B903334FEA930E4FF0000C08E06E
:103E8C0000EB023303F5805351F8044B1C600CF12A
:103E9C00010CF445F4D3002010BD0000F0B583B044
:103EAC000C784B78012B2DD000EB441C0CF53063B7
:103EBC001D696FF312051D611D696FF3DC451D61F2
:103ECC00002C40F0CE800C690CB18C680C618C68B5
:103EDC000C621D69C4F312042C431C611C6944F46C
:103EEC0000241C61012A00F0DF800B79012B00F00B
:103EFC00E180DCF8003B43F00443CCF8003B0020AD
:103F0C0003B0F0BD0B6973BB00EB4413D3F810592D
:103F1C006FF3DC45C3F81059D3F8105945F400255C
:103F2C00C3F81059D3F810596FF31205C3F8105990
:103F3C00012A54D000EB4414D4F8003943F0044364
:103F4C00C4F800390B79012B72D00B69002BD6D039
:103F5C00D0F83438097801F00F0101228A4013435C
:103F6C00C0F83438CBE700EB441303F510631D693C
:103F7C006FF312051D611D696FF3DC451D6184B97A
:103F8C000E698D68AE4200D90D611D6945F400259E
:103F9C001D611D690E69C6F3120C45EA0C051D6105
:103FAC00C6E70D698E683544013DB5FBF6F51E6913
:103FBC001FFA85FC494F07EAC54535431D610D794C
:103FCC00012DE6D11D6925F0C0451D611D694FEA23
:103FDC004C7C0CF0C04C45EA0C051D61D9E7CB6953
:103FEC001BB100EB4412C2F814390B79012B08D029
:103FFC0000EB4414D4F8003943F00443C4F80039FE
:10400C007DE7D0F8083813F4807F08D100EB441218
:10401C00D2F8003943F00053C2F80039E8E700EB5E
:10402C004412D2F8003943F08053C2F80039DFE76C
:10403C00D0F8083813F4807F0CD1D4F8003943F051
:10404C000053C4F8003900920B8A0A78C968FFF74C
:10405C000DFF54E7D4F8003943F08053C4F800390D
:10406C00F1E70C6954B91C698D68C5F312052C4332
:10407C001C611C6944F400241C6133E78D682C44DA
:10408C00013CB4FBF5F4A4B204FB05F50D621D690B
:10409C00124E06EAC4442C431C611C690D6AC5F31C
:1040AC0012052C431C611DE7CA68002A3FF41DAFA2
:1040BC005A611AE7D0F8083813F4807F06D1DCF87F
:1040CC00003B43F00053CCF8003B12E7DCF8003B1C
:1040DC0043F08053CCF8003B0BE700BF0000F81F07
:1040EC0010B5844608464FEA920E02F003020023F4
:1040FC0005E00CF58051096840F8041B0133734549
:10410C00F7D37AB10CF5805CDCF800400021CBB21F
:10411C00DB0024FA03F300F8013B0131013A92B2BF
:10412C00002AF4D110BD0B784A78012A14D000EB88
:10413C004310D0F8002B002A06DB2BB1D0F8003B43
:10414C0023F08043C0F8003BD0F8003B43F400134D
:10415C00C0F8003B0020704700EB4310D0F800295A
:10416C00002A06DB2BB1D0F8003923F08043C0F8CD
:10417C000039D0F8003943F40013C0F80039E9E7EE
:10418C000B784A78012A0ED000EB4310D0F8003B94
:10419C0023F40013C0F8003B0B79023BDBB2012B7C
:1041AC0015D90020704700EB4310D0F8003923F4E8
:1041BC000013C0F800390B79023BDBB2012BF0D8AD
:1041CC00D0F8003943F08053C0F80039E9E7D0F853
:1041DC00003B43F08053C0F8003BE2E7D0F80038D6
:1041EC0023F4FE63C0F80038D0F80038090101F45C
:1041FC00FE610B43C0F8003800207047D0F8003E39
:10420C0023F00303C0F8003ED0F8043823F0020377
:10421C00C0F8043800207047D0F8003E23F00303A8
:10422C00C0F8003ED0F8043843F00203C0F804385C
:10423C00002070474269806910407047D0F81838E8
:10424C0000F50060C0691840000C7047D0F81838B1
:10425C0000F50060C069184080B2704700EB411156
:10426C00D1F8082B00F50060406910407047D0F879
:10427C001028D0F8343801F00F0C23FA0CF3DB01C2
:10428C00DBB2134300EB411000F51060806818405E
:10429C007047406900F00100704738B50546C368A7
:1042AC0023F0C043C360012913D019BBC36843F08A
:1042BC008043C36000240A20FCF7A2FD0A34284680
:1042CC00FFF7E7FF08B1C72CF5D9C82C14D0002094
:1042DC0038BDC36843F00053C36000240A20FCF7C8
:1042EC008FFD0A342846FFF7D4FF0128EDD0C72CE8
:1042FC00F4D9EAE70120EBE70120E9E7D0F800392F
:10430C006FF30A03C0F80039D0F8043843F4807313
:10431C00C0F804380020704710B4046C144B9C4255
:10432C0003D9D0F8003B002B16DB0024C0F8104B4F
:10433C00D0F8104B44F40024C0F8104BD0F8104BBC
:10434C0044F01804C0F8104BD0F8104B44F0C044A3
:10435C00C0F8104B012902D0002010BC7047C0F8E7
:10436C00142BD0F8003B43F08023C0F8003BF3E75C
:10437C000A30544F10B5D0F8D43203F1B00250F8D3
:10438C0022408CB100EB820043687BB194F80002B0
:10439C00FF280DD09B6894F8012221469847FF23F3
:1043AC0084F80032002010BD0320FCE70020FAE75F
:1043BC000020F8E70A230380004870478C00002493
:1043CC00F8B506460F4F8221384600F029FC054609
:1043DC000121384600F024FC04468121384600F0C7
:1043EC001FFC0DB11022AA711CB1402222710022B7
:1043FC00627118B140220271002242714323338052
:10440C000048F8BD10000024F8B506460F4F822175
:10441C00384600F005FC05460121384600F000FC4A
:10442C0004468121384600F0FBFB0DB11022AA7125
:10443C001CB1402222710022627118B1402202711B
:10444C0000224271432333800048F8BD1000002441
:10445C00F8B506460F4F8221384600F0E1FB0546C1
:10446C000121384600F0DCFB04468121384600F07F
:10447C00D7FB0DB11022AA711CB1002222710222AD
:10448C00627118B1002202710222427143233380FF
:10449C000048F8BD1000002438B5D0F8D432B03341
:1044AC0050F8235095B1044601F0ACF9C5F80C0254
:1044BC00D4F8D432B03304EB83046368DB6805F5BD
:1044CC000371D5F804029847002038BD0320FCE79F
:1044DC0038B5D0F8C852D0F8D432B03350F82340A5
:1044EC0084B301F00F0303EB830200EB82029269A9
:1044FC004AB103EBC30C05EB8C05ED69B2FBF5FC83
:10450C0005FB1C2292B10023C4F81432D0F8D4322B
:10451C00B03300EB830043681B69ABB10A4604F56A
:10452C000471D4F808029847002038BD03EB8303CC
:10453C0000EB830300249C612346224601F0AAF978
:10454C002046F2E70320F0E70020EEE7F0B583B059
:10455C00D0F8D43203F1B00250F8227000228DF85A
:10456C000720ADF80420002F7BD004460D460978B7
:10457C0011F0600634D0202E6CD1EA882AB311F0E9
:10458C00800F07D16B7887F80032EA883F2A13D85E
:10459C00D2B212E0B03300EB83035B689B68394600
:1045AC0068789847EA88072A28BF072239462046A8
:1045BC0000F0FFFE002651E0402287F80122394628
:1045CC00204600F00BFF002648E0B03300EB8303DD
:1045DC005B689B68002229466878984700263DE076
:1045EC006F780B2F31D8DFE807F0063930303030D8
:1045FC0030303030162690F89C32DBB2032B04D0CE
:10460C00294600F04AFB032628E0022201A900F00B
:10461C00D0FE3E4622E090F89C32DBB2032B04D055
:10462C00294600F03AFB032618E001220DF10701A0
:10463C0000F0BFFE12E090F89C32DBB2032B0DD0E1
:10464C00294600F02AFB032608E0294600F025FB4A
:10465C00032603E0294600F020FB0326304603B076
:10466C00F0BD0326FAE738B50446812101F0F2F8D3
:10467C00002525870121204601F0ECF8A4F878519B
:10468C008221204601F0E6F8A4F84C50A4F84E50D4
:10469C00D4F8D43203F1B00254F822209AB1B033DA
:1046AC0004EB83035B685B689847D4F8D432B0336F
:1046BC0054F8230001F0B0F8D4F8D432B03344F8F5
:1046CC002350C4F8BC52002038BD70B504464FF4DA
:1046DC00077001F09DF8002849D005464FF4077289
:1046EC00002101F0E7F8D4F8D432B03344F8235069
:1046FC00C4F8BC52237C002B41D14FF4007302222E
:10470C008121204601F09BF8012626874FF4007387
:10471C0002223146204601F092F8A4F87861102369
:10472C00A4F84E30082303228221204601F087F89A
:10473C000123A4F84C300026C5F80462D4F8D43216
:10474C00B03304EB83035B681B689847C5F81462AD
:10475C00C5F81862D5F8042262B3257C1DBB4FF452
:10476C0000730121204601F09DF8284670BDD4F855
:10477C00D432B033002244F823200225F5E740233D
:10478C0002228121204601F05AF801262687402377
:10479C0002223146204601F052F8A4F87861102329
:1047AC00A4F84E30BEE740230121204601F07AF8F0
:1047BC000025DAE70225D8E739B1D0F8D432B03386
:1047CC0000EB830041600020704703207047D0F855
:1047DC00D432B03350F823302BB1C3F80812C3F8DD
:1047EC0010220020704703207047D0F8D432B03329
:1047FC0050F823301BB1C3F804120020704703207B
:10480C00704710B5D0F8D432B03350F8232092B1A1
:10481C00047C44B94FF40073D2F80422012101F056
:10482C0041F8204610BD4023D2F80422012101F0AA
:10483C0039F80024F5E70324F3E798B108B50346EB
:10484C000020C3F8B802C3F8C402C3F8D00209B1FF
:10485C00C3F8B412012183F89C121A70184600F0A8
:10486C0083FF08BD0320704710B582B00023ADF85C
:10487C000630B9B10446C0F8B812D0F8D422CB6ACD
:10488C0043B1AE3250F82230DB6A0DF10600984786
:10489C00C4F8D002D4F8D8320133C4F8D83200208E
:1048AC0002B010BD0320FBE708B500F0C0FF08BD47
:1048BC0008B5D0F8B83213B11B68984708BD002072
:1048CC00FCE708B5D0F8B8325B68984700B908BD6A
:1048DC000320FCE738B5044600F2AA25284600F070
:1048EC00C8F90123C4F89432B4F8B032C4F8983241
:1048FC0094F8AA1201F01F03012B07D0022B0AD047
:10490C0073B92946204600F09BFB38BD294620464A
:10491C0000F0D1FBF9E72946204600F00EFCF4E745
:10492C0001F08001204600F09DFFEEE7F8B504464B
:10493C00012380F89C320023C0F894324360C0F805
:10494C00A43280F8A032D0F8B832DBB15B68DBB1AE
:10495C00002198470746C8B940230022114620463B
:10496C0000F06DFF0126A4F864614025C4F8605185
:10497C002B4600228021204600F061FFA684256290
:10498C003846F8BD0027E7E70027E5E70327E3E70C
:10499C0001740020704790F89C32DBB2042B04D0D9
:1049AC0090F89C32DBB280F89D32042380F89C3264
:1049BC000020704790F89C32DBB2042B01D0002011
:1049CC00704790F89D32DBB280F89C32F7E708B55F
:1049DC0090F89C32DBB2032B01D0002008BDD0F83C
:1049EC00B832002BF9D0DB69002BF6D09847F4E7EE
:1049FC0008B5D0F8D432AE3350F823205AB190F821
:104A0C009C32DBB2032B01D0002008BD136A23B10A
:104A1C0098470020F9E70320F7E70020F5E708B5F1
:104A2C00D0F8D432AE3350F823205AB190F89C32DF
:104A3C00DBB2032B01D0002008BD536A23B1984789
:104A4C000020F9E70320F7E70020F5E70020704786
:104A5C0008B5012380F89C32D0F8B83223B15B68DA
:104A6C000179984710B908BD0020FCE70320FAE74C
:104A7C00002070470020704738B504460D460029C9
:104A8C0042D11346D0F89422032A01D0084638BDEF
:104A9C00D0F85C11D0F86021914209D890F8AA3274
:104AAC0003F01F03012B0ED0022B1BD028460FE066
:104ABC00891AC0F85C118A4228BF0A46194600F0D0
:104ACC009CFC2846E3E790F8AE12FFF7D1FF20B923
:104ADC0094F89C32DBB2032B09D0204600F095FCF5
:104AEC002846D4E790F8AE12FFF7C4FFEFE700F1C9
:104AFC00AE0354F823301A69002AEED0C4F8D4025D
:104B0C001B6920469847E8E701F07F01FFF7B2FFE9
:104B1C0090B994F89C32DBB2032BB8D100F1AE0300
:104B2C0054F823309A69002AB1D0C4F8D4029B6996
:104B3C00294620469847AAE70020A8E738B504463E
:104B4C000D4600294BD11346D0F89422022A07D0E7
:104B5C0094F8A00218B1002384F8A032284638BD7E
:104B6C00C269016A8A420ED88A4218D094F89C32E3
:104B7C00DBB2032B27D08021204600F073FE2046A9
:104B8C0000F04EFCE4E7521AC261194600F01EFC1C
:104B9C0000231A461946204600F084FED8E78369A4
:104BAC009942E3D8D0F898229342DFD200221146E2
:104BBC0000F00CFC0021C4F898120B460A46204663
:104BCC0000F070FEC4E7D4F8B832DA68002AD2D00C
:104BDC000022C4F8D422DB6820469847CBE741F08A
:104BEC008001FFF747FF90B994F89C32DBB2032B9E
:104BFC00B5D100F1AE0354F823305A69002AAED077
:104C0C00C4F8D4025B69294620469847A7E70020E0
:104C1C00A5E70B88027813440B800378184470477F
:104C2C00428803789A4218D930B583B004460D46B1
:104C3C00ADF806306388BDF806209A420AD20DF111
:104C4C000601FFF7E6FF4378052BF3D18378AB42DF
:104C5C00F0D100E0002003B030BD002070470346C7
:104C6C00002002E00130C0B201331A78002AF9D1D9
:104C7C0070470B7803704B7843708B78CA7843EA93
:104C8C00022343800B794A7943EA022383808B7990
:104C9C00CA7943EA0223C380704710B504468021C9
:104CAC0000F0E0FD0021204600F0DCFD10BD30B529
:104CBC0083B004460D460023ADF806304A88130A2B
:104CCC00013B0E2B00F2BC80DFE803F0153044BA38
:104CDC00BA9EABBABABABABABABA0800D0F8B432F9
:104CEC00DB6923B10DF10601007C98470AE02946E7
:104CFC00FFF7D3FF18E0D0F8B4321B680DF10601B2
:104D0C00007C9847EA88002A00F0A380BDF80630A2
:104D1C00002B00F099809A4228BF1A46ADF8062065
:104D2C000146204600F045FB03B030BD037C43B97F
:104D3C00D0F8B8329B6A0DF10600984702234370F5
:104D4C00E0E7D0F8B832DB6A0DF106009847022391
:104D5C004370D7E7D2B2052A52D8DFE802F003102D
:104D6C001D2A3744D0F8B4325B6823B10DF106012B
:104D7C00007C9847C6E72946FFF78FFFD4E7D0F8A9
:104D8C00B4329B6823B10DF10601007C9847B9E75A
:104D9C002946FFF782FFC7E7D0F8B432DB6823B1AE
:104DAC000DF10601007C9847ACE72946FFF775FF2B
:104DBC00BAE7D0F8B4321B6923B10DF10601007CBF
:104DCC0098479FE72946FFF768FFADE7D0F8B43264
:104DDC005B6923B10DF10601007C984792E72946E7
:104DEC00FFF75BFFA0E7D0F8B4329B6923B10DF15C
:104DFC000601007C984785E72946FFF74EFF93E7AD
:104E0C002946FFF74AFF8FE7037C33B9D0F8B83255
:104E1C005B6B0DF10600984774E72946FFF73DFFE1
:104E2C0082E7037C43B9D0F8B8321B6B0DF1060056
:104E3C0098470723437065E72946FFF72EFF73E772
:104E4C002946FFF72AFF6FE729462046FFF725FF83
:104E5C006AE7204600F0D9FA66E738B504468B8835
:104E6C00FBB9CB88EBB94B887F2B1AD803F07F05A5
:104E7C0090F89C32DBB2032B0CD080F89E52294662
:104E8C0000F000FD204600F0C0FA35B1022384F892
:104E9C009C3209E0FFF701FF06E0012384F89C3205
:104EAC0002E02046FFF7F9FE38BD000070B504465D
:104EBC000E468D782F4B1D70012D10D890F89C321A
:104ECC00DBB2022B0FD0032B26D0FFF7E6FE294BCB
:104EDC0019782046FFF7F5FC0325284670BDFFF72F
:104EEC00DCFE0325F9E7A5B145602946FFF7E0FC98
:104EFC00054638B131462046FFF7CFFE022384F831
:104F0C009C32EAE7204600F080FA032384F89C32B6
:104F1C00E3E700F07AFAE0E7CDB141688D4225D0A5
:104F2C00C9B2FFF7CEFC134B197861602046FFF72E
:104F3C00BFFC0546B0B131462046FFF7AEFE2179E5
:104F4C002046FFF7BEFC022384F89C32C5E70223FF
:104F5C0080F89C3245602946FFF7B3FC204600F0F0
:104F6C0054FABAE7204600F050FAB6E700F04DFAD2
:104F7C000025B2E7AC01002408B5CB88012B0BD17E
:104F8C0090F89C32DBB2022B09D9032B11D10122F0
:104F9C00011D00F00EFA01E0FFF77FFE08BD5BB2C9
:104FAC003BB10146002341F8083F012200F001FA11
:104FBC00F4E7FFF772FEF1E708B590F89C32013B7D
:104FCC00022B12D8CB88022B0CD10123C360D0F852
:104FDC00A4320BB10323C360022200F10C0100F0D8
:104FEC00E8F908BDFFF759FEFBE7FFF756FEF8E7B7
:104FFC0008B54B88012B04D0022B07D0FFF74DFED0
:10500C0008BDC0F8A43200F000FAF9E78B881B0A3F
:10501C0080F8A03200F0F9F9F2E708B590F89C326C
:10502C00013B022B09D84B88012B00D008BD002373
:10503C00C0F8A43200F0E9F9F8E7FFF72EFEF5E727
:10504C0038B50C7804F06004202C06D0402C04D029
:10505C006CB1FFF722FE002407E0D0F8D432AE3357
:10506C0050F823309B6898470446204638BD4D784D
:10507C00092D1DD8DFE805F012191C161C08051C9B
:10508C000F0BFFF714FEF0E7FFF7E7FEEDE7FFF776
:10509C000DFF0446E9E7FFF76FFFE6E7FFF78CFF2C
:1050AC002C46E2E7FFF7A4FFDFE7FFF7B6FFDCE7EC
:1050BC00FFF7F3FDD9E770B505460C460B7803F006
:1050CC006003202B07D0402B05D023B1FFF7E5FD63
:1050DC000026304670BD95F89C32013B022B26D839
:1050EC002179012905D921462846FFF7D6FD00264E
:1050FC00EFE72846FFF7BCFC68B900F1AE0255F8A3
:10510C002220916889B1C5F8D402936821462846BB
:10511C009847064600E00326E388002BD9D1002EE1
:10512C00D7D1284600F071F9D3E70326F4E72146DE
:10513C002846FFF7B2FD0026CBE72DE9F0410646E5
:10514C000D468B88DFB20C7804F06004202C08D05C
:10515C00402C06D0DCB1FFF7A0FD00242046BDE8B2
:10516C00F08139463046FFF785FC0446002840F0B4
:10517C00F980C6F8D40200F1AE0356F823309B68D0
:10518C00002BEBD02946304698470446E6E791F8C9
:10519C000180B8F1010F31D0B8F1030F05D0B8F18F
:1051AC00000F66D0FFF779FDD8E790F89C32DBB2A0
:1051BC00022B04D0032B11D0FFF76FFDCEE7002F8D
:1051CC0018BF802F07D0394600F04CFB80213046A9
:1051DC0000F048FBC2E7FFF760FDBFE74B882BB937
:1051EC00002F18BF802F01D0CB881BB1304600F0A8
:1051FC000CF9B3E7394600F035FBF7E790F89C3231
:10520C00DBB2022B04D0032B11D0FFF746FDA5E730
:10521C00002F18BF802F07D0394600F023FB8021C8
:10522C00304600F01FFB99E7FFF737FD96E74B88F8
:10523C00002B93D117F07F0F17D1304600F0E5F813
:10524C0039463046FFF716FC002887D1C6F8D40241
:10525C0000F1AE0256F822209268002A00F08480F9
:10526C00294630469047044678E7394600F002FB61
:10527C00E3E790F89C22D2B2022A05D0032A28D068
:10528C00FFF70BFD444669E7002F18BF802F13D1A1
:10529C0013F0800F14D107F07F0707EB8707B900D5
:1052AC0001F5A8710144043100230B600222304641
:1052BC0000F07FF8444651E7FFF7EFFC44464DE71A
:1052CC0007F07F0707EB8707B90010310144043161
:1052DC00EAE75BB2002B20DB07F00F0202EB820245
:1052EC0000EB8202B2F8642122B3002B26DB07F01C
:1052FC007F0303EB83039C0004F5A874344404344B
:10530C00802F18BF002F22D10023236002222146B8
:10531C00304600F04EF8444620E707F00F0202EB4F
:10532C00820200EB8202928C002ADED1FFF7B5FCE0
:10533C00444613E7FFF7B1FC44460FE707F07F0341
:10534C0003EB83039C00103434440434D8E739460F
:10535C00304600F041FA10B101232360D6E7002358
:10536C002360D3E70024F9E60446F7E600B370B5F2
:10537C000D4616460446FFF772FC01304300B3F5A8
:10538C00007F06D89BB233802B7003236B700223F3
:10539C000AE04FF40073F6E7EA5401345A1CD2B217
:1053AC000021A9540233DBB22278002AF4D170BD5B
:1053BC00704708B513460222C0F894228361C3617A
:1053CC000A46002100F066FA002008BD08B5134615
:1053DC000A46002100F05EFA002008BD08B513460D
:1053EC000322C0F89422C0F85831C0F85C310A4648
:1053FC00002100F057FA002008BD08B513460A46F4
:10540C00002100F04FFA002008BD08B50422C0F8B6
:10541C00942200231A46194600F03CFA002008BDDD
:10542C0008B50522C0F8942200231A46194600F04C
:10543C0039FA002008BD000008B5012210491148B6
:10544C00FFF7FBF980B910490E48FFF70DFA70B958
:10545C000E490C48FFF7B0F960B90A48FFF724FA77
:10546C0058B9FCF765FD08BDFBF78FFAEBE7FBF7C6
:10547C008CFAEDE7FBF789FAEFE7FBF786FAF0E732
:10548C00E0000024B0010024540000249800002403
:10549C0000207047002070470020704710B501466F
:1054AC00044C2046FFF7A1F92046FFF7AAF900208B
:1054BC0010BD00BFB001002410B5064C00220649F7
:1054CC002046FFF784F905492046FFF78EF90020A6
:1054DC0010BD00BFB00100248C0400248C0C0024EF
:1054EC0012230B8000487047CC00002404230B804F
:1054FC0000487047C8000024002393421ED200B518
:10550C0010E00CF1370C01F813C000014FEA430C0A
:10551C000CF1010C4FF0000E01F80CE00133DBB282
:10552C00934209D24FEA107CB0F1204FE9D20CF132
:10553C00300C01F813C0E8E75DF804FB704700007D
:10554C0038B50B4BD3F80008D3F80448D3F8083817
:10555C00C01800D138BD074D08222946FFF7CCFFF3
:10556C00042205F110012046FFF7C6FFF2E700BF49
:10557C0000E0F11FAE00002408B51A230B80FFF7E2
:10558C00DFFF014808BD00BFAC00002408B50A4687
:10559C0028B905490548FFF7E9FE034808BD02494B
:1055AC000248FFF7E3FEF8E78C140024AC5A00081D
:1055BC0010B50A46034C21460348FFF7D7FE204698
:1055CC0010BD00BF8C140024C45A000808B50A464C
:1055DC0028B905490548FFF7C9FE034808BD02492B
:1055EC000248FFF7C3FEF8E78C140024D85A0008D1
:1055FC0008B50A4628B905490548FFF7B7FE034820
:10560C0008BD02490248FFF7B1FEF8E78C140024EC
:10561C00E45A000810B5B0B00446B822002102A824
:10562C0000F048F92268164B9A4201D030B010BDF8
:10563C004FF480220023CDE902234FF480132393EF
:10564C0002A8FDF7F5FAB8B9FCF772FC0D4BD3F8CC
:10565C00D82042F00072C3F8D820D3F8D83003F029
:10566C0000730193019B002211464D20FBF738FC7F
:10567C004D20FBF745FCD9E7FBF787F9E4E700BFC2
:10568C00000004400044025808B500F29C41D0F8D8
:10569C00E004FFF71FF908BD08B501EBC10300EBEF
:1056AC008303D3F86022D0F8E004FFF7E5F908BDD6
:1056BC0008B501EBC10300EB83031A6AD0F8E004D0
:1056CC00FFF73CFA08BD08B5D0F8E004FFF77FF906
:1056DC0008BD10B50446C17911B1022909D10121C7
:1056EC00D4F8E004FFF754F9D4F8E004FFF71EF9FE
:1056FC0010BDFBF74AF90121F2E7000010B5044692
:10570C00D0F8E004FFF747F92268D2F8003E43F0E6
:10571C000103C2F8003EE37A23B1034A136943F054
:10572C000603136110BD00BF00ED00E008B5D0F812
:10573C00E004FFF73FF908BD08B5D0F8E004FFF727
:10574C006EF908BD08B5D0F8E004FFF751F908BDB3
:10575C0008B5D0F8E004FFF779F908BD08B5D0F822
:10576C00E004FFF775F908BD0378012B01D0002088
:10577C00704710B5164BC3F8E004C0F8C832154A90
:10578C001A6009221A710221D97100229A71597278
:10579C009A72DA721A739A73DA731A741846FBF7E0
:1057AC0096FD90B90A4C4FF400712046FCF77CFB37
:1057BC00802200212046FCF752FB4FF4BA720121E3
:1057CC002046FCF74CFB002010BDFBF7DEF8E9E7A8
:1057DC00AC18002400000440D0F8C83211F0800F3F
:1057EC0008D101F07F0101EBC10103EB810393F8B8
:1057FC005602704701F07F0101EBC10103EB8103FD
:10580C00987D704708B5D0F8C802FBF763FF08BD58
:10581C00004870478C1600247047032805D8DFE831
:10582C0000F005040205012070470320704708B5FD
:10583C00D0F8C802FBF7CCFDFFF7EFFF08BD08B5A9
:10584C0094461A466346D0F8C802FBF7A0FEFFF751
:10585C00E4FF08BD08B5D0F8C802FBF7DEFEFFF781
:10586C00DCFF08BD08B5D0F8C802FBF761FFFFF7F5
:10587C00D4FF08BD08B5D0F8C802FBF79CFFFFF7B2
:10588C00CCFF08BD08B5D0F8C802FBF76DFEFFF7DA
:10589C00C4FF08BD08B5D0F8C802FBF724FFFFF71A
:1058AC00BCFF08BD08B5D0F8C802FBF7EEFEFFF749
:1058BC00B4FF08BD830730B547D0541E002A3ED034
:1058CC00CAB2034601E0013C39D303F8012B9D0712
:1058DC00F9D1032C2CD9CDB205EB05250F2C05EBFA
:1058EC00054535D9A4F1100222F00F0C03F1100E6E
:1058FC00E6444FEA121C1A46C2E90055C2E90255A9
:10590C0010327245F8D10CF1010214F00C0F03EBBC
:10591C00021204F00F0C13D0ACF1040323F00303B8
:10592C000433134442F8045B9342FBD10CF00304A0
:10593C002CB1C9B21C4403F8011BA342FBD130BDEE
:10594C0064461346002CF4D1F9E703461446C0E72D
:10595C001A46A446E0E700BF70B50F4B0F4DAB42A3
:10596C00A3EB050607D0B610002455F8043B013410
:10597C009847A642F9D800F07FF8094D094B5E1BF9
:10598C00AB424FEAA60606D0002455F8043B01347E
:10599C009847A642F9D870BDF45A0008F45A00088A
:1059AC00F45A0008FC5A0008704700BF704700BF4B
:1059BC00024B13B1024800F005B87047000000001C
:1059CC00DD590008002301461A46184600F014B8A9
:1059DC0038B5074D074C2C1BA41005D0013C55F8CD
:1059EC00043D9847002CF9D1BDE8384000F04AB886
:1059FC00005B0008FC5A00082DE9F8431B4D0646D5
:105A0C00286898460F469146FFF7CEFF184B1C6846
:105A1C001CB3286865681F2D22DC4EB96B1C02353F
:105A2C00636044F82570FFF7C1FF0020BDE8F883E0
:105A3C0004EB85010123C1F88890D4F88821AB4090
:105A4C001A43022EC4F88821C1F80881E6D1D4F893
:105A5C008C211A43C4F88C21E0E7064C1C60D8E773
:105A6C00FFF7A4FF4FF0FF30E0E700BF0001002478
:105A7C00941D0024981D0024F8B500BFF8BC08BC88
:105A8C009E467047F8B500BFF8BC08BC9E467047F0
:105A9C0000000000010203040102030406070809C8
:105AAC0053544D3332205669727475616C20436FB8
:105ABC006D506F727400000053544D6963726F65C2
:105ACC006C656374726F6E696373000043444320AA
